{
  "_format": "hh-sol-artifact-1",
  "contractName": "Controller",
  "sourceName": "contracts/Controller.sol",
  "abi": [
    {
      "anonymous": false,
      "inputs": [
        {
          "indexed": false,
          "internalType": "address",
          "name": "previousAdmin",
          "type": "address"
        },
        {
          "indexed": false,
          "internalType": "address",
          "name": "newAdmin",
          "type": "address"
        }
      ],
      "name": "AdminChanged",
      "type": "event"
    },
    {
      "anonymous": false,
      "inputs": [
        {
          "indexed": true,
          "internalType": "address",
          "name": "beacon",
          "type": "address"
        }
      ],
      "name": "BeaconUpgraded",
      "type": "event"
    },
    {
      "anonymous": false,
      "inputs": [
        {
          "indexed": true,
          "internalType": "address",
          "name": "user",
          "type": "address"
        },
        {
          "indexed": false,
          "internalType": "uint256",
          "name": "tokenId",
          "type": "uint256"
        },
        {
          "indexed": true,
          "internalType": "address",
          "name": "poolAddress",
          "type": "address"
        },
        {
          "indexed": false,
          "internalType": "uint256",
          "name": "transferedToken0",
          "type": "uint256"
        },
        {
          "indexed": false,
          "internalType": "uint256",
          "name": "transferedToken1",
          "type": "uint256"
        }
      ],
      "name": "CancelOrder",
      "type": "event"
    },
    {
      "anonymous": false,
      "inputs": [
        {
          "indexed": true,
          "internalType": "address",
          "name": "user",
          "type": "address"
        },
        {
          "indexed": true,
          "internalType": "address",
          "name": "poolAddress",
          "type": "address"
        },
        {
          "indexed": false,
          "internalType": "uint256",
          "name": "tokenId",
          "type": "uint256"
        },
        {
          "indexed": false,
          "internalType": "int24",
          "name": "tickLower",
          "type": "int24"
        },
        {
          "indexed": false,
          "internalType": "int24",
          "name": "tickUpper",
          "type": "int24"
        },
        {
          "indexed": false,
          "internalType": "enum Controller.OrderType",
          "name": "orderType",
          "type": "uint8"
        }
      ],
      "name": "CreateOrder",
      "type": "event"
    },
    {
      "anonymous": false,
      "inputs": [
        {
          "indexed": true,
          "internalType": "address",
          "name": "user",
          "type": "address"
        },
        {
          "indexed": false,
          "internalType": "uint256",
          "name": "tokenId",
          "type": "uint256"
        },
        {
          "indexed": true,
          "internalType": "address",
          "name": "poolAddress",
          "type": "address"
        },
        {
          "indexed": false,
          "internalType": "uint256",
          "name": "transferedToken0",
          "type": "uint256"
        },
        {
          "indexed": false,
          "internalType": "uint256",
          "name": "transferedToken1",
          "type": "uint256"
        }
      ],
      "name": "ExecuteOrder",
      "type": "event"
    },
    {
      "anonymous": false,
      "inputs": [
        {
          "indexed": false,
          "internalType": "uint8",
          "name": "version",
          "type": "uint8"
        }
      ],
      "name": "Initialized",
      "type": "event"
    },
    {
      "anonymous": false,
      "inputs": [
        {
          "indexed": false,
          "internalType": "address",
          "name": "account",
          "type": "address"
        }
      ],
      "name": "Paused",
      "type": "event"
    },
    {
      "anonymous": false,
      "inputs": [
        {
          "indexed": true,
          "internalType": "bytes32",
          "name": "role",
          "type": "bytes32"
        },
        {
          "indexed": true,
          "internalType": "bytes32",
          "name": "previousAdminRole",
          "type": "bytes32"
        },
        {
          "indexed": true,
          "internalType": "bytes32",
          "name": "newAdminRole",
          "type": "bytes32"
        }
      ],
      "name": "RoleAdminChanged",
      "type": "event"
    },
    {
      "anonymous": false,
      "inputs": [
        {
          "indexed": true,
          "internalType": "bytes32",
          "name": "role",
          "type": "bytes32"
        },
        {
          "indexed": true,
          "internalType": "address",
          "name": "account",
          "type": "address"
        },
        {
          "indexed": true,
          "internalType": "address",
          "name": "sender",
          "type": "address"
        }
      ],
      "name": "RoleGranted",
      "type": "event"
    },
    {
      "anonymous": false,
      "inputs": [
        {
          "indexed": true,
          "internalType": "bytes32",
          "name": "role",
          "type": "bytes32"
        },
        {
          "indexed": true,
          "internalType": "address",
          "name": "account",
          "type": "address"
        },
        {
          "indexed": true,
          "internalType": "address",
          "name": "sender",
          "type": "address"
        }
      ],
      "name": "RoleRevoked",
      "type": "event"
    },
    {
      "anonymous": false,
      "inputs": [
        {
          "indexed": false,
          "internalType": "address",
          "name": "account",
          "type": "address"
        }
      ],
      "name": "Unpaused",
      "type": "event"
    },
    {
      "anonymous": false,
      "inputs": [
        {
          "indexed": true,
          "internalType": "address",
          "name": "implementation",
          "type": "address"
        }
      ],
      "name": "Upgraded",
      "type": "event"
    },
    {
      "inputs": [],
      "name": "DEFAULT_ADMIN_ROLE",
      "outputs": [
        {
          "internalType": "bytes32",
          "name": "",
          "type": "bytes32"
        }
      ],
      "stateMutability": "view",
      "type": "function"
    },
    {
      "inputs": [],
      "name": "SLIPPAGE",
      "outputs": [
        {
          "internalType": "uint256",
          "name": "",
          "type": "uint256"
        }
      ],
      "stateMutability": "view",
      "type": "function"
    },
    {
      "inputs": [],
      "name": "SLIPPAGE_ACCURACY",
      "outputs": [
        {
          "internalType": "uint256",
          "name": "",
          "type": "uint256"
        }
      ],
      "stateMutability": "view",
      "type": "function"
    },
    {
      "inputs": [
        {
          "internalType": "uint256",
          "name": "_tokenId",
          "type": "uint256"
        },
        {
          "internalType": "address",
          "name": "_poolAddress",
          "type": "address"
        }
      ],
      "name": "cancelOrder",
      "outputs": [],
      "stateMutability": "nonpayable",
      "type": "function"
    },
    {
      "inputs": [
        {
          "internalType": "uint256",
          "name": "_tokenId",
          "type": "uint256"
        },
        {
          "internalType": "address",
          "name": "_poolAddress",
          "type": "address"
        }
      ],
      "name": "checkOrder",
      "outputs": [
        {
          "internalType": "bool",
          "name": "isClosable",
          "type": "bool"
        },
        {
          "internalType": "address",
          "name": "owner",
          "type": "address"
        },
        {
          "internalType": "address",
          "name": "quoteToken",
          "type": "address"
        },
        {
          "internalType": "uint256",
          "name": "quoteAmount",
          "type": "uint256"
        },
        {
          "internalType": "address",
          "name": "baseToken",
          "type": "address"
        },
        {
          "internalType": "uint256",
          "name": "baseAmount",
          "type": "uint256"
        }
      ],
      "stateMutability": "view",
      "type": "function"
    },
    {
      "inputs": [
        {
          "components": [
            {
              "internalType": "uint24",
              "name": "fee",
              "type": "uint24"
            },
            {
              "internalType": "address",
              "name": "token0",
              "type": "address"
            },
            {
              "internalType": "address",
              "name": "token1",
              "type": "address"
            },
            {
              "internalType": "int24",
              "name": "tickLower",
              "type": "int24"
            },
            {
              "internalType": "int24",
              "name": "tickUpper",
              "type": "int24"
            },
            {
              "internalType": "uint256",
              "name": "amountOfToken0",
              "type": "uint256"
            },
            {
              "internalType": "uint256",
              "name": "amountOfToken1",
              "type": "uint256"
            },
            {
              "internalType": "uint256",
              "name": "recievedAmountOfToken0",
              "type": "uint256"
            },
            {
              "internalType": "uint256",
              "name": "recievedAmountOfToken1",
              "type": "uint256"
            },
            {
              "internalType": "uint256",
              "name": "deadline",
              "type": "uint256"
            },
            {
              "internalType": "enum Controller.OrderType",
              "name": "orderType",
              "type": "uint8"
            }
          ],
          "internalType": "struct Controller.OrderParams",
          "name": "_params",
          "type": "tuple"
        }
      ],
      "name": "createOrder",
      "outputs": [
        {
          "internalType": "uint256",
          "name": "",
          "type": "uint256"
        }
      ],
      "stateMutability": "payable",
      "type": "function"
    },
    {
      "inputs": [
        {
          "components": [
            {
              "internalType": "uint256",
              "name": "tokenId",
              "type": "uint256"
            },
            {
              "internalType": "address",
              "name": "poolAddress",
              "type": "address"
            },
            {
              "internalType": "uint256",
              "name": "amountOfToken",
              "type": "uint256"
            }
          ],
          "internalType": "struct Controller.EditOrderParams",
          "name": "_editParams",
          "type": "tuple"
        }
      ],
      "name": "editOrder",
      "outputs": [
        {
          "internalType": "uint256",
          "name": "newAmountOfToken0",
          "type": "uint256"
        },
        {
          "internalType": "uint256",
          "name": "newAmountOfToken1",
          "type": "uint256"
        }
      ],
      "stateMutability": "nonpayable",
      "type": "function"
    },
    {
      "inputs": [
        {
          "internalType": "uint256",
          "name": "",
          "type": "uint256"
        }
      ],
      "name": "ethForExecute",
      "outputs": [
        {
          "internalType": "uint256",
          "name": "",
          "type": "uint256"
        }
      ],
      "stateMutability": "view",
      "type": "function"
    },
    {
      "inputs": [
        {
          "internalType": "uint256",
          "name": "_tokenId",
          "type": "uint256"
        },
        {
          "internalType": "address",
          "name": "_poolAddress",
          "type": "address"
        }
      ],
      "name": "executeOrder",
      "outputs": [],
      "stateMutability": "nonpayable",
      "type": "function"
    },
    {
      "inputs": [],
      "name": "executionFee",
      "outputs": [
        {
          "internalType": "uint256",
          "name": "",
          "type": "uint256"
        }
      ],
      "stateMutability": "view",
      "type": "function"
    },
    {
      "inputs": [
        {
          "internalType": "uint256",
          "name": "_amount1",
          "type": "uint256"
        },
        {
          "internalType": "int24",
          "name": "_tickLower",
          "type": "int24"
        },
        {
          "internalType": "int24",
          "name": "_tickUpper",
          "type": "int24"
        }
      ],
      "name": "getAmount0FromAmount1",
      "outputs": [
        {
          "internalType": "uint256",
          "name": "_amount0",
          "type": "uint256"
        }
      ],
      "stateMutability": "pure",
      "type": "function"
    },
    {
      "inputs": [
        {
          "internalType": "uint256",
          "name": "_amount0",
          "type": "uint256"
        },
        {
          "internalType": "int24",
          "name": "_tickLower",
          "type": "int24"
        },
        {
          "internalType": "int24",
          "name": "_tickUpper",
          "type": "int24"
        }
      ],
      "name": "getAmount1FromAmount0",
      "outputs": [
        {
          "internalType": "uint256",
          "name": "_amount1",
          "type": "uint256"
        }
      ],
      "stateMutability": "pure",
      "type": "function"
    },
    {
      "inputs": [
        {
          "internalType": "bytes32",
          "name": "role",
          "type": "bytes32"
        }
      ],
      "name": "getRoleAdmin",
      "outputs": [
        {
          "internalType": "bytes32",
          "name": "",
          "type": "bytes32"
        }
      ],
      "stateMutability": "view",
      "type": "function"
    },
    {
      "inputs": [
        {
          "internalType": "bytes32",
          "name": "role",
          "type": "bytes32"
        },
        {
          "internalType": "address",
          "name": "account",
          "type": "address"
        }
      ],
      "name": "grantRole",
      "outputs": [],
      "stateMutability": "nonpayable",
      "type": "function"
    },
    {
      "inputs": [
        {
          "internalType": "bytes32",
          "name": "role",
          "type": "bytes32"
        },
        {
          "internalType": "address",
          "name": "account",
          "type": "address"
        }
      ],
      "name": "hasRole",
      "outputs": [
        {
          "internalType": "bool",
          "name": "",
          "type": "bool"
        }
      ],
      "stateMutability": "view",
      "type": "function"
    },
    {
      "inputs": [
        {
          "internalType": "address",
          "name": "_nftPositionManager",
          "type": "address"
        },
        {
          "internalType": "address",
          "name": "_uniswapV3Factory",
          "type": "address"
        },
        {
          "internalType": "address",
          "name": "_weth",
          "type": "address"
        },
        {
          "internalType": "address",
          "name": "_uniV3Nft",
          "type": "address"
        },
        {
          "internalType": "uint256",
          "name": "_executionFee",
          "type": "uint256"
        }
      ],
      "name": "initialize",
      "outputs": [],
      "stateMutability": "nonpayable",
      "type": "function"
    },
    {
      "inputs": [],
      "name": "nftPositionManager",
      "outputs": [
        {
          "internalType": "contract INonfungiblePositionManager",
          "name": "",
          "type": "address"
        }
      ],
      "stateMutability": "view",
      "type": "function"
    },
    {
      "inputs": [
        {
          "internalType": "address",
          "name": "",
          "type": "address"
        },
        {
          "internalType": "uint256",
          "name": "",
          "type": "uint256"
        }
      ],
      "name": "orders",
      "outputs": [
        {
          "internalType": "address",
          "name": "owner",
          "type": "address"
        },
        {
          "internalType": "address",
          "name": "token0",
          "type": "address"
        },
        {
          "internalType": "address",
          "name": "token1",
          "type": "address"
        },
        {
          "internalType": "int24",
          "name": "tickLower",
          "type": "int24"
        },
        {
          "internalType": "int24",
          "name": "tickUpper",
          "type": "int24"
        },
        {
          "internalType": "uint24",
          "name": "fee",
          "type": "uint24"
        },
        {
          "internalType": "uint256",
          "name": "amountOfToken0",
          "type": "uint256"
        },
        {
          "internalType": "uint256",
          "name": "amountOfToken1",
          "type": "uint256"
        },
        {
          "internalType": "uint256",
          "name": "recievedAmount",
          "type": "uint256"
        },
        {
          "internalType": "uint128",
          "name": "liquidity",
          "type": "uint128"
        },
        {
          "internalType": "enum Controller.OrderType",
          "name": "orderType",
          "type": "uint8"
        }
      ],
      "stateMutability": "view",
      "type": "function"
    },
    {
      "inputs": [],
      "name": "paused",
      "outputs": [
        {
          "internalType": "bool",
          "name": "",
          "type": "bool"
        }
      ],
      "stateMutability": "view",
      "type": "function"
    },
    {
      "inputs": [],
      "name": "proxiableUUID",
      "outputs": [
        {
          "internalType": "bytes32",
          "name": "",
          "type": "bytes32"
        }
      ],
      "stateMutability": "view",
      "type": "function"
    },
    {
      "inputs": [
        {
          "internalType": "bytes32",
          "name": "role",
          "type": "bytes32"
        },
        {
          "internalType": "address",
          "name": "account",
          "type": "address"
        }
      ],
      "name": "renounceRole",
      "outputs": [],
      "stateMutability": "nonpayable",
      "type": "function"
    },
    {
      "inputs": [
        {
          "internalType": "bytes32",
          "name": "role",
          "type": "bytes32"
        },
        {
          "internalType": "address",
          "name": "account",
          "type": "address"
        }
      ],
      "name": "revokeRole",
      "outputs": [],
      "stateMutability": "nonpayable",
      "type": "function"
    },
    {
      "inputs": [
        {
          "internalType": "uint256",
          "name": "_executionFee",
          "type": "uint256"
        }
      ],
      "name": "setExecutionFee",
      "outputs": [],
      "stateMutability": "nonpayable",
      "type": "function"
    },
    {
      "inputs": [
        {
          "internalType": "bool",
          "name": "_newPauseState",
          "type": "bool"
        }
      ],
      "name": "setPause",
      "outputs": [],
      "stateMutability": "nonpayable",
      "type": "function"
    },
    {
      "inputs": [
        {
          "internalType": "uint256",
          "name": "_newSlippage",
          "type": "uint256"
        },
        {
          "internalType": "uint256",
          "name": "_newSlippageAccuracy",
          "type": "uint256"
        }
      ],
      "name": "setSlippage",
      "outputs": [],
      "stateMutability": "nonpayable",
      "type": "function"
    },
    {
      "inputs": [
        {
          "internalType": "bytes4",
          "name": "interfaceId",
          "type": "bytes4"
        }
      ],
      "name": "supportsInterface",
      "outputs": [
        {
          "internalType": "bool",
          "name": "",
          "type": "bool"
        }
      ],
      "stateMutability": "view",
      "type": "function"
    },
    {
      "inputs": [
        {
          "internalType": "address",
          "name": "_token",
          "type": "address"
        },
        {
          "internalType": "address",
          "name": "_to",
          "type": "address"
        },
        {
          "internalType": "uint256",
          "name": "_amount",
          "type": "uint256"
        }
      ],
      "name": "sweepTokens",
      "outputs": [],
      "stateMutability": "nonpayable",
      "type": "function"
    },
    {
      "inputs": [],
      "name": "uniV3Nft",
      "outputs": [
        {
          "internalType": "address",
          "name": "",
          "type": "address"
        }
      ],
      "stateMutability": "view",
      "type": "function"
    },
    {
      "inputs": [],
      "name": "uniswapV3Factory",
      "outputs": [
        {
          "internalType": "address",
          "name": "",
          "type": "address"
        }
      ],
      "stateMutability": "view",
      "type": "function"
    },
    {
      "inputs": [
        {
          "internalType": "address",
          "name": "newImplementation",
          "type": "address"
        }
      ],
      "name": "upgradeTo",
      "outputs": [],
      "stateMutability": "nonpayable",
      "type": "function"
    },
    {
      "inputs": [
        {
          "internalType": "address",
          "name": "newImplementation",
          "type": "address"
        },
        {
          "internalType": "bytes",
          "name": "data",
          "type": "bytes"
        }
      ],
      "name": "upgradeToAndCall",
      "outputs": [],
      "stateMutability": "payable",
      "type": "function"
    },
    {
      "inputs": [],
      "name": "weth",
      "outputs": [
        {
          "internalType": "contract IWETH9",
          "name": "",
          "type": "address"
        }
      ],
      "stateMutability": "view",
      "type": "function"
    }
  ],
  "bytecode": "0x60a06040523060805234801561001457600080fd5b506080516157d06200004d600039600081816118d201528181611912015281816119c401528181611a040152611a9301526157d06000f3fe6080604052600436106101e35760003560e01c80635c975abb1161010257806391d1485411610095578063bedb86fb11610064578063bedb86fb14610664578063d547741f14610684578063f4adc08b146106a4578063f7013ef6146106c557600080fd5b806391d14854146105f857806398c91f9514610618578063a217fddf1461062f578063bc9ef3e01461064457600080fd5b8063793b8c6d116100d1578063793b8c6d146104db5780637e498c811461059757806384397888146105b75780638b6ca32c146105d857600080fd5b80635c975abb146104625780636711ba401461047a578063687ec4691461048d5780637323a7d3146104bb57600080fd5b80633659cfe61161017a57806340e9903b1161014957806340e9903b146104025780634f1ef2861461041957806352d1902d1461042c5780635b5491821461044157600080fd5b80633659cfe61461037257806336b4134a1461039257806337a063d2146103a95780633fc8cef3146103c957600080fd5b80632a5ab384116101b65780632a5ab3841461029b5780632b3abc5d146102d05780632f2ff15d1461033057806336568abe1461035257600080fd5b806301ffc9a7146101e8578063157cd6101461021d5780631834789c1461024b578063248a9ca31461026b575b600080fd5b3480156101f457600080fd5b50610208610203366004614a67565b6106e5565b60405190151581526020015b60405180910390f35b34801561022957600080fd5b5061023d610238366004614aab565b61071c565b604051908152602001610214565b34801561025757600080fd5b5061023d610266366004614aab565b610760565b34801561027757600080fd5b5061023d610286366004614aed565b600090815260c9602052604090206001015490565b3480156102a757600080fd5b506102bb6102b6366004614b97565b61079b565b60408051928352602083019190915201610214565b3480156102dc57600080fd5b506102f06102eb366004614bf9565b611597565b6040805196151587526001600160a01b039586166020880152938516938601939093526060850191909152909116608083015260a082015260c001610214565b34801561033c57600080fd5b5061035061034b366004614bf9565b61181f565b005b34801561035e57600080fd5b5061035061036d366004614bf9565b611849565b34801561037e57600080fd5b5061035061038d366004614c29565b6118c7565b34801561039e57600080fd5b5061023d6101325481565b3480156103b557600080fd5b506103506103c4366004614aed565b6119a7565b3480156103d557600080fd5b5061012f546103ea906001600160a01b031681565b6040516001600160a01b039091168152602001610214565b34801561040e57600080fd5b5061023d6101315481565b610350610427366004614c46565b6119b9565b34801561043857600080fd5b5061023d611a86565b34801561044d57600080fd5b5061012e546103ea906001600160a01b031681565b34801561046e57600080fd5b5060fb5460ff16610208565b61023d610488366004614d10565b611b39565b34801561049957600080fd5b5061023d6104a8366004614aed565b6101356020526000908152604090205481565b3480156104c757600080fd5b506103506104d6366004614bf9565b612654565b3480156104e757600080fd5b506105806104f6366004614dc9565b6101346020908152600092835260408084209091529082529020805460018201546002808401546003850154600486015460058701546006909701546001600160a01b039687169795871696841695600160a01b8504860b95600160b81b8604900b94600160d01b900462ffffff169392916001600160801b03811690600160801b900460ff168b565b6040516102149b9a99989796959493929190614e2d565b3480156105a357600080fd5b506103506105b2366004614bf9565b6128b0565b3480156105c357600080fd5b5061012d546103ea906001600160a01b031681565b3480156105e457600080fd5b506103506105f3366004614eaf565b612bb1565b34801561060457600080fd5b50610208610613366004614bf9565b612c8c565b34801561062457600080fd5b5061023d6101335481565b34801561063b57600080fd5b5061023d600081565b34801561065057600080fd5b5061035061065f366004614ef0565b612cb7565b34801561067057600080fd5b5061035061067f366004614f20565b612d07565b34801561069057600080fd5b5061035061069f366004614bf9565b612d27565b3480156106b057600080fd5b50610130546103ea906001600160a01b031681565b3480156106d157600080fd5b506103506106e0366004614f3d565b612d4c565b60006001600160e01b03198216637965db0b60e01b148061071657506301ffc9a760e01b6001600160e01b03198316145b92915050565b60008061073a61072b85612e44565b61073485612e44565b87613184565b905061075761074885612e44565b61075185612e44565b836131f5565b95945050505050565b60008061077e61076f85612e44565b61077885612e44565b87613247565b905061075761078c85612e44565b61079585612e44565b8361327d565b80516020820151600091829160016001600160a01b038216600090815261013460209081526040808320868452909152902060060154600160801b900460ff1660058111156107ec576107ec614df5565b148061083a575060006001600160a01b038216600090815261013460209081526040808320868452909152902060060154600160801b900460ff16600581111561083857610838614df5565b145b61085f5760405162461bcd60e51b815260040161085690614fa1565b60405180910390fd5b60fb5460ff16156108825760405162461bcd60e51b815260040161085690614fbd565b84516108b85760405162461bcd60e51b8152602060048201526005602482015264045444954360dc1b6044820152606401610856565b60208501516001600160a01b03166108fa5760405162461bcd60e51b8152602060048201526005602482015264454449543160d81b6044820152606401610856565b602080860180516001600160a01b0316600090815261013483526040808220895183529093529182208751915190929182916109369190611597565b50509350505050806000146109755760405162461bcd60e51b8152602060048201526005602482015264454449543360d81b6044820152606401610856565b82546001600160a01b031633146109b65760405162461bcd60e51b8152602060048201526005602482015264115112550d60da1b6044820152606401610856565b60408801516109d6576109d188600001518960200151612654565b61158d565b60006006840154600160801b900460ff1660058111156109f8576109f8614df5565b148015610a0c575082600301548860400151115b15610a7f57610a40333085600301548b60400151610a2a9190614ffd565b60018701546001600160a01b03169291906132f0565b61012d54600384015460408a0151610a7a926001600160a01b031691610a6591614ffd565b60018601546001600160a01b03169190613361565b610b23565b60016006840154600160801b900460ff166005811115610aa157610aa1614df5565b148015610ab5575082600401548860400151115b15610b2357610ae9333085600401548b60400151610ad39190614ffd565b60028701546001600160a01b03169291906132f0565b61012d54600484015460408a0151610b23926001600160a01b031691610b0e91614ffd565b60028601546001600160a01b03169190613361565b60006006840154600160801b900460ff166005811115610b4557610b45614df5565b141561108d57826003015488604001511015610e935760006040518060a001604052808a600001518152602001610bc1610b8f8760020160149054906101000a900460020b612e44565b600280890154610ba891600160b81b909104900b612e44565b8d604001518960030154610bbc9190614ffd565b613184565b6001600160801b0316815260200161013354610132548c604001518860030154610beb9190614ffd565b610bf59190615014565b610bff9190615049565b8152600060208201524260409182015261012d549051630624e65f60e11b81529192506001600160a01b031690630c49ccbe90610c4090849060040161506b565b6040805180830381600087803b158015610c5957600080fd5b505af1158015610c6d573d6000803e3d6000fd5b505050506040513d601f19601f82011682018060405250810190610c9191906150ae565b61012d54604080516080810182528d5181523060208201526001600160801b038183018190526060820152905163fc6f786560e01b8152939b509199506001600160a01b03169163fc6f786591610cea916004016150d2565b6040805180830381600087803b158015610d0357600080fd5b505af1158015610d17573d6000803e3d6000fd5b505050506040513d601f19601f82011682018060405250810190610d3b91906150ae565b5050610d5c610d473390565b60018601546001600160a01b0316908a613422565b600280850154610dd191610d7891600160a01b9004900b612e44565b600280870154610d9191600160b81b909104900b612e44565b600280880154610dcc91610dad91600160a01b9004900b612e44565b6002808a0154610dc691600160b81b909104900b612e44565b8d613184565b61327d565b846005016000828254610de49190614ffd565b9091555050600280850154610e3291610e0591600160a01b9004900b612e44565b600280870154610e1e91600160b81b909104900b612e44565b8b604001518760030154610bbc9190614ffd565b600685018054600090610e4f9084906001600160801b0316615115565b92506101000a8154816001600160801b0302191690836001600160801b0316021790555087846003016000828254610e879190614ffd565b9091555061158d915050565b82600301548860400151111561105d5760006040518060c001604052808a60000151815260200185600301548b60400151610ece9190614ffd565b815260200160008152602001610133546101325487600301548d60400151610ef69190614ffd565b610f009190615014565b610f0a9190615049565b8152600060208201524260409182015261012d54905163219f5d1760e01b81529192506001600160a01b03169063219f5d1790610f4b90849060040161513d565b606060405180830381600087803b158015610f6557600080fd5b505af1158015610f79573d6000803e3d6000fd5b505050506040513d601f19601f82011682018060405250810190610f9d9190615198565b600280880154929b50909950919450610fe191610fc291600160a01b9004900b612e44565b600280870154610fdb91600160b81b909104900b612e44565b8561327d565b846005016000828254610ff491906151cd565b90915550506006840180548491906000906110199084906001600160801b03166151e5565b92506101000a8154816001600160801b0302191690836001600160801b031602179055508784600301600082825461105191906151cd565b909155506109d1915050565b60405162461bcd60e51b8152602060048201526005602482015264454449543560d81b6044820152606401610856565b60016006840154600160801b900460ff1660058111156110af576110af614df5565b141561158d578260040154886040015110156113ed5760006040518060a001604052808a60000151815260200161112b6110f98760020160149054906101000a900460020b612e44565b60028089015461111291600160b81b909104900b612e44565b8d6040015189600401546111269190614ffd565b613247565b6001600160801b031681526020016000815260200161013354610132548c60400151886004015461115c9190614ffd565b6111669190615014565b6111709190615049565b81524260209091015261012d54604051630624e65f60e11b81529192506001600160a01b031690630c49ccbe906111ab90849060040161506b565b6040805180830381600087803b1580156111c457600080fd5b505af11580156111d8573d6000803e3d6000fd5b505050506040513d601f19601f820116820180604052508101906111fc91906150ae565b61012d54604080516080810182528d5181523060208201526001600160801b038183018190526060820152905163fc6f786560e01b8152939b509199506001600160a01b03169163fc6f786591611255916004016150d2565b6040805180830381600087803b15801561126e57600080fd5b505af1158015611282573d6000803e3d6000fd5b505050506040513d601f19601f820116820180604052508101906112a691906150ae565b50506112c76112b23390565b60028601546001600160a01b03169089613422565b600280850154611337916112e391600160a01b9004900b612e44565b6002808701546112fc91600160b81b909104900b612e44565b600280880154610dcc9161131891600160a01b9004900b612e44565b6002808a015461133191600160b81b909104900b612e44565b8c613247565b84600501600082825461134a9190614ffd565b90915550506002808501546113989161136b91600160a01b9004900b612e44565b60028087015461138491600160b81b909104900b612e44565b8b6040015187600401546111269190614ffd565b6006850180546000906113b59084906001600160801b0316615115565b92506101000a8154816001600160801b0302191690836001600160801b0316021790555086846004016000828254610e879190614ffd565b82600401548860400151111561105d5760006040518060c001604052808a6000015181526020016000815260200185600401548b6040015161142f9190614ffd565b815260200160008152602001610133546101325487600401548d604001516114579190614ffd565b6114619190615014565b61146b9190615049565b81524260209091015261012d5460405163219f5d1760e01b81529192506001600160a01b03169063219f5d17906114a690849060040161513d565b606060405180830381600087803b1580156114c057600080fd5b505af11580156114d4573d6000803e3d6000fd5b505050506040513d601f19601f820116820180604052508101906114f89190615198565b600280880154929b5090995091945061151d91610fc291600160a01b9004900b612e44565b84600501600082825461153091906151cd565b90915550506006840180548491906000906115559084906001600160801b03166151e5565b92506101000a8154816001600160801b0302191690836001600160801b0316021790555086846004016000828254610e8791906151cd565b5050505050915091565b6000806000806000806115aa8888613452565b6001600160a01b038981166000908152610134602090815260408083208e84528252808320815161016081018352815486168152600182015486169381019390935260028082015495861692840192909252600160a01b8504820b6060840152600160b81b850490910b6080830152600160d01b90930462ffffff1660a0820152600383015460c0820152600483015460e082015260058084015461010083015260068401546001600160801b03811661012084015294985094955090939092610140840191600160801b90910460ff169081111561168b5761168b614df5565b600581111561169c5761169c614df5565b90525080518315985096509050600381610140015160058111156116c2576116c2614df5565b14806116e45750600281610140015160058111156116e2576116e2614df5565b145b8061170557506005816101400151600581111561170357611703614df5565b145b8061172657506004816101400151600581111561172457611724614df5565b145b1561173057600096505b6001816101400151600581111561174957611749614df5565b148061176b57506003816101400151600581111561176957611769614df5565b145b8061178c57506005816101400151600581111561178a5761178a614df5565b145b156117a4578060200151945080604001519250611814565b600081610140015160058111156117bd576117bd614df5565b14806117df5750600281610140015160058111156117dd576117dd614df5565b145b806118005750600481610140015160058111156117fe576117fe614df5565b145b156118145780604001519450806020015192505b509295509295509295565b600082815260c9602052604090206001015461183a816136dd565b61184483836136e7565b505050565b6001600160a01b03811633146118b95760405162461bcd60e51b815260206004820152602f60248201527f416363657373436f6e74726f6c3a2063616e206f6e6c792072656e6f756e636560448201526e103937b632b9903337b91039b2b63360891b6064820152608401610856565b6118c3828261376d565b5050565b306001600160a01b037f00000000000000000000000000000000000000000000000000000000000000001614156119105760405162461bcd60e51b815260040161085690615210565b7f00000000000000000000000000000000000000000000000000000000000000006001600160a01b0316611959600080516020615754833981519152546001600160a01b031690565b6001600160a01b03161461197f5760405162461bcd60e51b81526004016108569061525c565b611988816137d4565b604080516000808252602082019092526119a4918391906137df565b50565b60006119b2816136dd565b5061013155565b306001600160a01b037f0000000000000000000000000000000000000000000000000000000000000000161415611a025760405162461bcd60e51b815260040161085690615210565b7f00000000000000000000000000000000000000000000000000000000000000006001600160a01b0316611a4b600080516020615754833981519152546001600160a01b031690565b6001600160a01b031614611a715760405162461bcd60e51b81526004016108569061525c565b611a7a826137d4565b6118c3828260016137df565b6000306001600160a01b037f00000000000000000000000000000000000000000000000000000000000000001614611b265760405162461bcd60e51b815260206004820152603860248201527f555550535570677261646561626c653a206d757374206e6f742062652063616c60448201527f6c6564207468726f7567682064656c656761746563616c6c00000000000000006064820152608401610856565b5060008051602061575483398151915290565b6000611b4760fb5460ff1690565b15611b645760405162461bcd60e51b815260040161085690614fbd565b81604001516001600160a01b031682602001516001600160a01b031610611bb55760405162461bcd60e51b81526020600482015260056024820152644352454f3160d81b6044820152606401610856565b60008261014001516005811115611bce57611bce614df5565b1480611bf0575060018261014001516005811115611bee57611bee614df5565b145b611c245760405162461bcd60e51b815260206004820152600560248201526421a922a79960d91b6044820152606401610856565b61013154341015611c5f5760405162461bcd60e51b81526020600482015260056024820152644352454f3360d81b6044820152606401610856565b61012e54602083015160408401518451600093611c90936001600160a01b0390911692611c8b92613959565b6139c4565b90506001600160a01b0381163b611cd15760405162461bcd60e51b815260206004820152600560248201526410d49153cd60da1b6044820152606401610856565b6000816001600160a01b031663d0c93a7c6040518163ffffffff1660e01b815260040160206040518083038186803b158015611d0c57600080fd5b505afa158015611d20573d6000803e3d6000fd5b505050506040513d601f19601f82011682018060405250810190611d4491906152a8565b90506000826001600160a01b0316633850c7bd6040518163ffffffff1660e01b815260040160e06040518083038186803b158015611d8157600080fd5b505afa158015611d95573d6000803e3d6000fd5b505050506040513d601f19601f82011682018060405250810190611db991906152d7565b5093955060009450611dcb9350505050565b8561014001516005811115611de257611de2614df5565b1415612011578060020b856060015160020b13611e295760405162461bcd60e51b81526020600482015260056024820152644352454f3560d81b6044820152606401610856565b81611e37620d89e71961536f565b611e419190615392565b60020b856060015160020b1315611e825760405162461bcd60e51b815260206004820152600560248201526421a922a79b60d91b6044820152606401610856565b60008560a0015111611ebe5760405162461bcd60e51b81526020600482015260056024820152644352454f3760d81b6044820152606401610856565b60c085015115611ef85760405162461bcd60e51b8152602060048201526005602482015264086a48a9e760db1b6044820152606401610856565b60e085015115611f325760405162461bcd60e51b81526020600482015260056024820152644352454f3960d81b6044820152606401610856565b600085610100015111611f705760405162461bcd60e51b815260206004820152600660248201526504352454f31360d41b6044820152606401610856565b608085015160020b15611fae5760405162461bcd60e51b81526020600482015260066024820152654352454f313160d01b6044820152606401610856565b611fce3360a087015160208801516001600160a01b0316919030906132f0565b61012d5460a08601516020870151611ff4926001600160a01b0391821692911690613361565b81856060015161200491906153da565b60020b6080860152612250565b6001856101400151600581111561202a5761202a614df5565b1415612250578060020b856080015160020b126120725760405162461bcd60e51b815260206004820152600660248201526521a922a7989960d11b6044820152606401610856565b61208082620d89e7196153da565b60020b856080015160020b12156120c25760405162461bcd60e51b81526020600482015260066024820152654352454f313360d01b6044820152606401610856565b60008560c00151116120ff5760405162461bcd60e51b815260206004820152600660248201526510d49153cc4d60d21b6044820152606401610856565b60a08501511561213a5760405162461bcd60e51b81526020600482015260066024820152654352454f313560d01b6044820152606401610856565b610100850151156121765760405162461bcd60e51b815260206004820152600660248201526521a922a7989b60d11b6044820152606401610856565b60008560e00151116121b35760405162461bcd60e51b81526020600482015260066024820152654352454f313760d01b6044820152606401610856565b606085015160020b156121f15760405162461bcd60e51b8152602060048201526006602482015265086a48a9e62760d31b6044820152606401610856565b6122113360c087015160408801516001600160a01b0316919030906132f0565b61012d5460c08601516040870151612237926001600160a01b0391821692911690613361565b8185608001516122479190615392565b60020b60608601525b60008061012d60009054906101000a90046001600160a01b03166001600160a01b031663883164566040518061016001604052808a602001516001600160a01b031681526020018a604001516001600160a01b031681526020018a6000015162ffffff1681526020018a6060015160020b81526020018a6080015160020b81526020018a60a0015181526020018a60c00151815260200161013354610132548c60a001516122fe9190615014565b6123089190615049565b815260200161013354610132548c60c001516123249190615014565b61232e9190615049565b81523060208201526101208b0151604091820152516001600160e01b031960e084901b1681526123619190600401615421565b608060405180830381600087803b15801561237b57600080fd5b505af115801561238f573d6000803e3d6000fd5b505050506040513d601f19601f820116820180604052508101906123b391906154e5565b5050600082815261013560205260409081902034905580516101608101909152919350915080336001600160a01b0316815260200188602001516001600160a01b0316815260200188604001516001600160a01b03168152602001886060015160020b8152602001886080015160020b8152602001886000015162ffffff1681526020018860a0015181526020018860c00151815260200188610100015160001461246357886101000151612469565b8860e001515b8152602001826001600160801b03168152602001886101400151600581111561249457612494614df5565b90526001600160a01b03808716600090815261013460209081526040808320878452825291829020845181549085166001600160a01b0319918216178255918501516001820180549186169190931617909155908301516002820180546060860151608087015160a088015162ffffff908116600160d01b0262ffffff60d01b19928216600160b81b029290921665ffffffffffff60b81b1991909316600160a01b026001600160b81b031990941695909716949094179190911794909416939093171790915560c0820151600382015560e082015160048201556101008201516005808301919091556101208301516006830180546001600160801b039092166fffffffffffffffffffffffffffffffff1983168117825561014086015193919270ffffffffffffffffffffffffffffffffff19161790600160801b9084908111156125e3576125e3614df5565b021790555050506001600160a01b038516336001600160a01b03167f2d283b2be0f7c92cc9b116e3bc0f2cd0a6721a7de6e3c22084f06cfae102971f848a606001518b608001518c61014001516040516126409493929190615521565b60405180910390a35093505050505b919050565b818160016001600160a01b038216600090815261013460209081526040808320868452909152902060060154600160801b900460ff16600581111561269b5761269b614df5565b14806126e9575060006001600160a01b038216600090815261013460209081526040808320868452909152902060060154600160801b900460ff1660058111156126e7576126e7614df5565b145b6127055760405162461bcd60e51b815260040161085690614fa1565b6001600160a01b03808416600090815261013460209081526040808320888452909152902060018101549091166127665760405162461bcd60e51b815260206004820152600560248201526443414e4f3160d81b6044820152606401610856565b80546001600160a01b031633146127a75760405162461bcd60e51b815260206004820152600560248201526421a0a7279960d91b6044820152606401610856565b60016006820154600160801b900460ff1660058111156127c9576127c9614df5565b14156127e95760068101805460ff60801b1916600560801b179055612827565b60006006820154600160801b900460ff16600581111561280b5761280b614df5565b14156128275760068101805460ff60801b1916600160821b1790555b6000806128348784613aad565b8454604080518b8152602081018590529081018390529294509092506001600160a01b03888116929116907f226df4b11af05a52379bad87321459736675945dd33bde1679f65e484f1d2fad9060600160405180910390a3600087815261013560205260409020546128a7903390613faa565b50505050505050565b818160016001600160a01b038216600090815261013460209081526040808320868452909152902060060154600160801b900460ff1660058111156128f7576128f7614df5565b1480612945575060006001600160a01b038216600090815261013460209081526040808320868452909152902060060154600160801b900460ff16600581111561294357612943614df5565b145b6129615760405162461bcd60e51b815260040161085690614fa1565b600061296d8585611597565b505050506001600160a01b038681166000908152610134602090815260408083208b8452909152902060018101549394509216151590506129d85760405162461bcd60e51b81526020600482015260056024820152644558454f3160d81b6044820152606401610856565b600191506000806129e98884613aad565b909250905060016006840154600160801b900460ff166005811115612a1057612a10614df5565b1415612a57578260050154821015612a525760405162461bcd60e51b81526020600482015260056024820152644558454f3560d81b6044820152606401610856565b612abb565b60006006840154600160801b900460ff166005811115612a7957612a79614df5565b1415612abb578260050154811015612abb5760405162461bcd60e51b81526020600482015260056024820152644558454f3560d81b6044820152606401610856565b60016006840154600160801b900460ff166005811115612add57612add614df5565b1415612afd5760068301805460ff60801b1916600360801b179055612b3b565b60006006840154600160801b900460ff166005811115612b1f57612b1f614df5565b1415612b3b5760068301805460ff60801b1916600160811b1790555b8254604080518a8152602081018590529081018390526001600160a01b038981169216907f73062ad2b06840d9726fa08e5d8ff8d7a760737929c0c5f51892e646d7b98ed29060600160405180910390a360008881526101356020526040902054612ba7903390613faa565b5050505050505050565b6000612bbc816136dd565b610130546001600160a01b0385811691161415612c035760405162461bcd60e51b8152602060048201526005602482015264535745543160d81b6044820152606401610856565b60405163a9059cbb60e01b81526001600160a01b0384811660048301526024820184905285169063a9059cbb90604401602060405180830381600087803b158015612c4d57600080fd5b505af1158015612c61573d6000803e3d6000fd5b505050506040513d601f19601f82011682018060405250810190612c859190615547565b5050505050565b600091825260c9602090815260408084206001600160a01b0393909316845291905290205460ff1690565b6000612cc2816136dd565b828211612cf95760405162461bcd60e51b81526020600482015260056024820152645354534c3160d81b6044820152606401610856565b506101329190915561013355565b6000612d12816136dd565b81612d1f576118c36140c3565b6118c3614156565b600082815260c96020526040902060010154612d42816136dd565b611844838361376d565b6000612d5860016141ae565b90508015612d70576000805461ff0019166101001790555b612d7b600033614236565b61012d80546001600160a01b038089166001600160a01b03199283161790925561012e8054888416908316179055610130805486841690831617905561012f80549287169290911691909117905561013182905561270f61013255620186a061013355612de6614240565b612dee614271565b612df6614271565b8015612e3c576000805461ff0019169055604051600181527f7f26b83ff96e1f2b6a682f133852f6798a09c465da95921460cefb38474024989060200160405180910390a15b505050505050565b60008060008360020b12612e5b578260020b612e63565b8260020b6000035b9050620d89e88110612ea95760405162461bcd60e51b815260206004820152600f60248201526e7469636b203e204d41585f5449434b60881b6044820152606401610856565b600060018216612ebd57600160801b612ecf565b6ffffcb933bd6fad37aa2d162d1a5940015b70ffffffffffffffffffffffffffffffffff1690506002821615612f03576ffff97272373d413259a46990580e213a0260801c5b6004821615612f22576ffff2e50f5f656932ef12357cf3c7fdcc0260801c5b6008821615612f41576fffe5caca7e10e4e61c3624eaa0941cd00260801c5b6010821615612f60576fffcb9843d60f6159c9db58835c9266440260801c5b6020821615612f7f576fff973b41fa98c081472e6896dfb254c00260801c5b6040821615612f9e576fff2ea16466c96a3843ec78b326b528610260801c5b6080821615612fbd576ffe5dee046a99a2a811c461f1969c30530260801c5b610100821615612fdd576ffcbe86c7900a88aedcffc83b479aa3a40260801c5b610200821615612ffd576ff987a7253ac413176f2b074cf7815e540260801c5b61040082161561301d576ff3392b0822b70005940c7a398e4b70f30260801c5b61080082161561303d576fe7159475a2c29b7443b29c7fa6e889d90260801c5b61100082161561305d576fd097f3bdfd2022b8845ad8f792aa58250260801c5b61200082161561307d576fa9f746462d870fdf8a65dc1f90e061e50260801c5b61400082161561309d576f70d869a156d2a1b890bb3df62baf32f70260801c5b6180008216156130bd576f31be135f97d08fd981231505542fcfa60260801c5b620100008216156130de576f09aa508b5b7a84e1c677de54f3e99bc90260801c5b620200008216156130fe576e5d6af8dedb81196699c329225ee6040260801c5b6204000082161561311d576d2216e584f5fa1ea926041bedfe980260801c5b6208000082161561313a576b048a170391f7dc42444e8fa20260801c5b60008460020b131561315b57806000198161315757613157615033565b0490505b64010000000081061561316f576001613172565b60005b60ff16602082901c0192505050919050565b6000826001600160a01b0316846001600160a01b031611156131a4579192915b60006131c7856001600160a01b0316856001600160a01b0316600160601b614298565b90506107576131e984836131db8989615564565b6001600160a01b0316614298565b61434b565b9392505050565b6000826001600160a01b0316846001600160a01b03161115613215579192915b61323f6001600160801b03831661322c8686615564565b6001600160a01b0316600160601b614298565b949350505050565b6000826001600160a01b0316846001600160a01b03161115613267579192915b61323f6131e983600160601b6131db8888615564565b6000826001600160a01b0316846001600160a01b0316111561329d579192915b6001600160a01b0384166132e66fffffffffffffffffffffffffffffffff60601b606085901b166132ce8787615564565b6001600160a01b0316866001600160a01b0316614298565b61323f9190615049565b6040516001600160a01b038085166024830152831660448201526064810182905261335b9085906323b872dd60e01b906084015b60408051601f198184030181529190526020810180516001600160e01b03166001600160e01b031990931692909217909152614361565b50505050565b604051636eb1769f60e11b81523060048201526001600160a01b038381166024830152600091839186169063dd62ed3e9060440160206040518083038186803b1580156133ad57600080fd5b505afa1580156133c1573d6000803e3d6000fd5b505050506040513d601f19601f820116820180604052508101906133e59190615584565b6133ef91906151cd565b6040516001600160a01b03851660248201526044810182905290915061335b90859063095ea7b360e01b90606401613324565b6040516001600160a01b03831660248201526044810182905261184490849063a9059cbb60e01b90606401613324565b6001600160a01b038181166000908152610134602090815260408083208684528252808320815161016081018352815486168152600182015486169381019390935260028082015495861692840192909252600160a01b8504820b6060840152600160b81b850490910b6080830152600160d01b90930462ffffff1660a0820152600383015460c0820152600483015460e082015260058084015461010083015260068401546001600160801b03811661012084015292938493849392610140840191600160801b900460ff169081111561352f5761352f614df5565b600581111561354057613540614df5565b8152505090506000846001600160a01b0316633850c7bd6040518163ffffffff1660e01b815260040160e06040518083038186803b15801561358157600080fd5b505afa158015613595573d6000803e3d6000fd5b505050506040513d601f19601f820116820180604052508101906135b991906152d7565b505050505050905060006135d08360600151612e44565b905060006135e18460800151612e44565b90506000806135f7858585896101200151614433565b90925090506001866101400151600581111561361557613615614df5565b148061363757506003866101400151600581111561363557613635614df5565b145b8061365857506005866101400151600581111561365657613656614df5565b145b15613668578196508097506136d0565b6000866101400151600581111561368157613681614df5565b14806136a35750600286610140015160058111156136a1576136a1614df5565b145b806136c45750600486610140015160058111156136c2576136c2614df5565b145b156136d0578197508096505b5050505050509250929050565b6119a481336144cf565b6136f18282612c8c565b6118c357600082815260c9602090815260408083206001600160a01b03851684529091529020805460ff191660011790556137293390565b6001600160a01b0316816001600160a01b0316837f2f8788117e7eff1d82e926ec794901d17c78024a50270940304540a733656f0d60405160405180910390a45050565b6137778282612c8c565b156118c357600082815260c9602090815260408083206001600160a01b0385168085529252808320805460ff1916905551339285917ff6391f5c32d9c69d2a47ea670b442974b53935d1edc7fd64eb21e047a839171b9190a45050565b60006118c3816136dd565b7f4910fdfa16fed3260ed0e7147f7cc6da11a60208b5b9406d12a635614ffd91435460ff16156138125761184483614533565b826001600160a01b03166352d1902d6040518163ffffffff1660e01b815260040160206040518083038186803b15801561384b57600080fd5b505afa92505050801561387b575060408051601f3d908101601f1916820190925261387891810190615584565b60015b6138de5760405162461bcd60e51b815260206004820152602e60248201527f45524331393637557067726164653a206e657720696d706c656d656e7461746960448201526d6f6e206973206e6f74205555505360901b6064820152608401610856565b600080516020615754833981519152811461394d5760405162461bcd60e51b815260206004820152602960248201527f45524331393637557067726164653a20756e737570706f727465642070726f786044820152681a58589b195555525160ba1b6064820152608401610856565b506118448383836145cf565b6040805160608101825260008082526020820181905291810191909152826001600160a01b0316846001600160a01b03161115613994579192915b50604080516060810182526001600160a01b03948516815292909316602083015262ffffff169181019190915290565b600081602001516001600160a01b031682600001516001600160a01b0316106139ec57600080fd5b815160208084015160408086015181516001600160a01b0395861681860152949092168482015262ffffff90911660608085019190915281518085038201815260808501909252815191909201206001600160f81b031960a08401529085901b6bffffffffffffffffffffffff191660a183015260b58201527fe34f199b19b2b4f47f68442619d555527d244f78a3297ea89325f843f87b8b5460d582015260f50160408051601f1981840301815291905280516020909101209392505050565b60018101546040516370a0823160e01b8152306004820152600091829182916001600160a01b0316906370a082319060240160206040518083038186803b158015613af757600080fd5b505afa158015613b0b573d6000803e3d6000fd5b505050506040513d601f19601f82011682018060405250810190613b2f9190615584565b60028501546040516370a0823160e01b81523060048201529192506000916001600160a01b03909116906370a082319060240160206040518083038186803b158015613b7a57600080fd5b505afa158015613b8e573d6000803e3d6000fd5b505050506040513d601f19601f82011682018060405250810190613bb29190615584565b61012d546040805160a08101825289815260068901546001600160801b03166020820152600081830181905260608201524260808201529051630624e65f60e11b81529293506001600160a01b0390911691630c49ccbe91613c169160040161506b565b6040805180830381600087803b158015613c2f57600080fd5b505af1158015613c43573d6000803e3d6000fd5b505050506040513d601f19601f82011682018060405250810190613c6791906150ae565b505061012d54604080516080810182528881523060208201526001600160801b038183018190526060820152905163fc6f786560e01b81526001600160a01b039092169163fc6f786591613cbd916004016150d2565b6040805180830381600087803b158015613cd657600080fd5b505af1158015613cea573d6000803e3d6000fd5b505050506040513d601f19601f82011682018060405250810190613d0e91906150ae565b505060018501546040516370a0823160e01b81523060048201526000916001600160a01b0316906370a082319060240160206040518083038186803b158015613d5657600080fd5b505afa158015613d6a573d6000803e3d6000fd5b505050506040513d601f19601f82011682018060405250810190613d8e9190615584565b60028701546040516370a0823160e01b81523060048201529192506000916001600160a01b03909116906370a082319060240160206040518083038186803b158015613dd957600080fd5b505afa158015613ded573d6000803e3d6000fd5b505050506040513d601f19601f82011682018060405250810190613e119190615584565b905083821115613ebf57600187015487546001600160a01b039182169163a9059cbb9116613e3f8786614ffd565b6040516001600160e01b031960e085901b1681526001600160a01b0390921660048301526024820152604401602060405180830381600087803b158015613e8557600080fd5b505af1158015613e99573d6000803e3d6000fd5b505050506040513d601f19601f82011682018060405250810190613ebd9190615547565b505b82811115613f6b57600287015487546001600160a01b039182169163a9059cbb9116613eeb8685614ffd565b6040516001600160e01b031960e085901b1681526001600160a01b0390921660048301526024820152604401602060405180830381600087803b158015613f3157600080fd5b505af1158015613f45573d6000803e3d6000fd5b505050506040513d601f19601f82011682018060405250810190613f699190615547565b505b838211613f79576000613f83565b613f838483614ffd565b838211613f91576000613f9b565b613f9b8483614ffd565b95509550505050509250929050565b80471015613ffa5760405162461bcd60e51b815260206004820152601d60248201527f416464726573733a20696e73756666696369656e742062616c616e63650000006044820152606401610856565b6000826001600160a01b03168260405160006040518083038185875af1925050503d8060008114614047576040519150601f19603f3d011682016040523d82523d6000602084013e61404c565b606091505b50509050806118445760405162461bcd60e51b815260206004820152603a60248201527f416464726573733a20756e61626c6520746f2073656e642076616c75652c207260448201527f6563697069656e74206d617920686176652072657665727465640000000000006064820152608401610856565b60fb5460ff1661410c5760405162461bcd60e51b815260206004820152601460248201527314185d5cd8589b194e881b9bdd081c185d5cd95960621b6044820152606401610856565b60fb805460ff191690557f5db9ee0a495bf2e6ff9c91a7834c1ba4fdd244a5e8aa4e537bd38aeae4b073aa335b6040516001600160a01b03909116815260200160405180910390a1565b60fb5460ff16156141795760405162461bcd60e51b815260040161085690614fbd565b60fb805460ff191660011790557f62e78cea01bee320cd4e420270b5ea74000d11b0c9f74754ebdbfc544b05a2586141393390565b60008054610100900460ff16156141f5578160ff1660011480156141d15750303b155b6141ed5760405162461bcd60e51b81526004016108569061559d565b506000919050565b60005460ff80841691161061421c5760405162461bcd60e51b81526004016108569061559d565b506000805460ff191660ff92909216919091179055600190565b6118c382826136e7565b600054610100900460ff166142675760405162461bcd60e51b8152600401610856906155eb565b61426f6145f4565b565b600054610100900460ff1661426f5760405162461bcd60e51b8152600401610856906155eb565b6000808060001985870985870292508281108382030391505080600014156142d257600084116142c757600080fd5b5082900490506131ee565b8084116142de57600080fd5b6000848688096000868103871696879004966002600389028118808a02820302808a02820302808a02820302808a02820302808a02820302808a02909103029181900381900460010186841190950394909402919094039290920491909117919091029150509392505050565b806001600160801b038116811461264f57600080fd5b60006143b6826040518060400160405280602081526020017f5361666545524332303a206c6f772d6c6576656c2063616c6c206661696c6564815250856001600160a01b03166146279092919063ffffffff16565b80519091501561184457808060200190518101906143d49190615547565b6118445760405162461bcd60e51b815260206004820152602a60248201527f5361666545524332303a204552433230206f7065726174696f6e20646964206e6044820152691bdd081cdd58d8d9595960b21b6064820152608401610856565b600080836001600160a01b0316856001600160a01b03161115614454579293925b846001600160a01b0316866001600160a01b03161161447f5761447885858561327d565b91506144c6565b836001600160a01b0316866001600160a01b031610156144b8576144a486858561327d565b91506144b18587856131f5565b90506144c6565b6144c38585856131f5565b90505b94509492505050565b6144d98282612c8c565b6118c3576144f1816001600160a01b03166014614636565b6144fc836020614636565b60405160200161450d929190615662565b60408051601f198184030181529082905262461bcd60e51b8252610856916004016156d7565b6001600160a01b0381163b6145a05760405162461bcd60e51b815260206004820152602d60248201527f455243313936373a206e657720696d706c656d656e746174696f6e206973206e60448201526c1bdd08184818dbdb9d1c9858dd609a1b6064820152608401610856565b60008051602061575483398151915280546001600160a01b0319166001600160a01b0392909216919091179055565b6145d8836147d2565b6000825111806145e55750805b156118445761335b8383614812565b600054610100900460ff1661461b5760405162461bcd60e51b8152600401610856906155eb565b60fb805460ff19169055565b606061323f84846000856148fd565b60606000614645836002615014565b6146509060026151cd565b67ffffffffffffffff81111561466857614668614b06565b6040519080825280601f01601f191660200182016040528015614692576020820181803683370190505b509050600360fc1b816000815181106146ad576146ad61570a565b60200101906001600160f81b031916908160001a905350600f60fb1b816001815181106146dc576146dc61570a565b60200101906001600160f81b031916908160001a9053506000614700846002615014565b61470b9060016151cd565b90505b6001811115614783576f181899199a1a9b1b9c1cb0b131b232b360811b85600f166010811061473f5761473f61570a565b1a60f81b8282815181106147555761475561570a565b60200101906001600160f81b031916908160001a90535060049490941c9361477c81615720565b905061470e565b5083156131ee5760405162461bcd60e51b815260206004820181905260248201527f537472696e67733a20686578206c656e67746820696e73756666696369656e746044820152606401610856565b6147db81614533565b6040516001600160a01b038216907fbc7cd75a20ee27fd9adebab32041f755214dbc6bffa90cc0225b39da2e5c2d3b90600090a250565b60606001600160a01b0383163b61487a5760405162461bcd60e51b815260206004820152602660248201527f416464726573733a2064656c65676174652063616c6c20746f206e6f6e2d636f6044820152651b9d1c9858dd60d21b6064820152608401610856565b600080846001600160a01b0316846040516148959190615737565b600060405180830381855af49150503d80600081146148d0576040519150601f19603f3d011682016040523d82523d6000602084013e6148d5565b606091505b5091509150610757828260405180606001604052806027815260200161577460279139614a2e565b60608247101561495e5760405162461bcd60e51b815260206004820152602660248201527f416464726573733a20696e73756666696369656e742062616c616e636520666f6044820152651c8818d85b1b60d21b6064820152608401610856565b6001600160a01b0385163b6149b55760405162461bcd60e51b815260206004820152601d60248201527f416464726573733a2063616c6c20746f206e6f6e2d636f6e74726163740000006044820152606401610856565b600080866001600160a01b031685876040516149d19190615737565b60006040518083038185875af1925050503d8060008114614a0e576040519150601f19603f3d011682016040523d82523d6000602084013e614a13565b606091505b5091509150614a23828286614a2e565b979650505050505050565b60608315614a3d5750816131ee565b825115614a4d5782518084602001fd5b8160405162461bcd60e51b815260040161085691906156d7565b600060208284031215614a7957600080fd5b81356001600160e01b0319811681146131ee57600080fd5b8060020b81146119a457600080fd5b803561264f81614a91565b600080600060608486031215614ac057600080fd5b833592506020840135614ad281614a91565b91506040840135614ae281614a91565b809150509250925092565b600060208284031215614aff57600080fd5b5035919050565b634e487b7160e01b600052604160045260246000fd5b604051610160810167ffffffffffffffff81118282101715614b4057614b40614b06565b60405290565b604051601f8201601f1916810167ffffffffffffffff81118282101715614b6f57614b6f614b06565b604052919050565b6001600160a01b03811681146119a457600080fd5b803561264f81614b77565b600060608284031215614ba957600080fd5b6040516060810181811067ffffffffffffffff82111715614bcc57614bcc614b06565b604052823581526020830135614be181614b77565b60208201526040928301359281019290925250919050565b60008060408385031215614c0c57600080fd5b823591506020830135614c1e81614b77565b809150509250929050565b600060208284031215614c3b57600080fd5b81356131ee81614b77565b60008060408385031215614c5957600080fd5b8235614c6481614b77565b915060208381013567ffffffffffffffff80821115614c8257600080fd5b818601915086601f830112614c9657600080fd5b813581811115614ca857614ca8614b06565b614cba601f8201601f19168501614b46565b91508082528784828501011115614cd057600080fd5b80848401858401376000848284010152508093505050509250929050565b803562ffffff8116811461264f57600080fd5b80356006811061264f57600080fd5b60006101608284031215614d2357600080fd5b614d2b614b1c565b614d3483614cee565b8152614d4260208401614b8c565b6020820152614d5360408401614b8c565b6040820152614d6460608401614aa0565b6060820152614d7560808401614aa0565b608082015260a083013560a082015260c083013560c082015260e083013560e0820152610100808401358183015250610120808401358183015250610140614dbe818501614d01565b908201529392505050565b60008060408385031215614ddc57600080fd5b8235614de781614b77565b946020939093013593505050565b634e487b7160e01b600052602160045260246000fd5b60068110614e2957634e487b7160e01b600052602160045260246000fd5b9052565b6001600160a01b038c811682528b811660208301528a166040820152600289810b606083015288900b608082015262ffffff871660a082015260c0810186905260e0810185905261010081018490526001600160801b0383166101208201526101608101614e9f610140830184614e0b565b9c9b505050505050505050505050565b600080600060608486031215614ec457600080fd5b8335614ecf81614b77565b92506020840135614edf81614b77565b929592945050506040919091013590565b60008060408385031215614f0357600080fd5b50508035926020909101359150565b80151581146119a457600080fd5b600060208284031215614f3257600080fd5b81356131ee81614f12565b600080600080600060a08688031215614f5557600080fd5b8535614f6081614b77565b94506020860135614f7081614b77565b93506040860135614f8081614b77565b92506060860135614f9081614b77565b949793965091946080013592915050565b60208082526002908201526113d560f21b604082015260600190565b60208082526010908201526f14185d5cd8589b194e881c185d5cd95960821b604082015260600190565b634e487b7160e01b600052601160045260246000fd5b60008282101561500f5761500f614fe7565b500390565b600081600019048311821515161561502e5761502e614fe7565b500290565b634e487b7160e01b600052601260045260246000fd5b60008261506657634e487b7160e01b600052601260045260246000fd5b500490565b600060a082019050825182526001600160801b03602084015116602083015260408301516040830152606083015160608301526080830151608083015292915050565b600080604083850312156150c157600080fd5b505080516020909101519092909150565b815181526020808301516001600160a01b0316908201526040808301516001600160801b0390811691830191909152606092830151169181019190915260800190565b60006001600160801b038381169083168181101561513557615135614fe7565b039392505050565b600060c082019050825182526020830151602083015260408301516040830152606083015160608301526080830151608083015260a083015160a083015292915050565b80516001600160801b038116811461264f57600080fd5b6000806000606084860312156151ad57600080fd5b6151b684615181565b925060208401519150604084015190509250925092565b600082198211156151e0576151e0614fe7565b500190565b60006001600160801b0380831681851680830382111561520757615207614fe7565b01949350505050565b6020808252602c908201527f46756e6374696f6e206d7573742062652063616c6c6564207468726f7567682060408201526b19195b1959d85d1958d85b1b60a21b606082015260800190565b6020808252602c908201527f46756e6374696f6e206d7573742062652063616c6c6564207468726f7567682060408201526b6163746976652070726f787960a01b606082015260800190565b6000602082840312156152ba57600080fd5b81516131ee81614a91565b805161ffff8116811461264f57600080fd5b600080600080600080600060e0888a0312156152f257600080fd5b87516152fd81614b77565b602089015190975061530e81614a91565b955061531c604089016152c5565b945061532a606089016152c5565b9350615338608089016152c5565b925060a088015160ff8116811461534e57600080fd5b60c089015190925061535f81614f12565b8091505092959891949750929550565b60008160020b627fffff1981141561538957615389614fe7565b60000392915050565b60008160020b8360020b6000811281627fffff19018312811516156153b9576153b9614fe7565b81627fffff0183138116156153d0576153d0614fe7565b5090039392505050565b60008160020b8360020b6000821282627fffff0382138115161561540057615400614fe7565b82627fffff1903821281161561541857615418614fe7565b50019392505050565b81516001600160a01b031681526101608101602083015161544d60208401826001600160a01b03169052565b506040830151615464604084018262ffffff169052565b506060830151615479606084018260020b9052565b50608083015161548e608084018260020b9052565b5060a083015160a083015260c083015160c083015260e083015160e0830152610100808401518184015250610120808401516154d4828501826001600160a01b03169052565b505061014092830151919092015290565b600080600080608085870312156154fb57600080fd5b8451935061550b60208601615181565b6040860151606090960151949790965092505050565b848152600284810b602083015283900b6040820152608081016107576060830184614e0b565b60006020828403121561555957600080fd5b81516131ee81614f12565b60006001600160a01b038381169083168181101561513557615135614fe7565b60006020828403121561559657600080fd5b5051919050565b6020808252602e908201527f496e697469616c697a61626c653a20636f6e747261637420697320616c72656160408201526d191e481a5b9a5d1a585b1a5e995960921b606082015260800190565b6020808252602b908201527f496e697469616c697a61626c653a20636f6e7472616374206973206e6f74206960408201526a6e697469616c697a696e6760a81b606082015260800190565b60005b83811015615651578181015183820152602001615639565b8381111561335b5750506000910152565b7f416363657373436f6e74726f6c3a206163636f756e742000000000000000000081526000835161569a816017850160208801615636565b7001034b99036b4b9b9b4b733903937b6329607d1b60179184019182015283516156cb816028840160208801615636565b01602801949350505050565b60208152600082518060208401526156f6816040850160208701615636565b601f01601f19169190910160400192915050565b634e487b7160e01b600052603260045260246000fd5b60008161572f5761572f614fe7565b506000190190565b60008251615749818460208701615636565b919091019291505056fe360894a13ba1a3210667c828492db98dca3e2076cc3735a920a3ca505d382bbc416464726573733a206c6f772d6c6576656c2064656c65676174652063616c6c206661696c6564a264697066735822122011ca21715e7192eb2fc03f86285dc1c7e02a6f395f17f9faec36cf9badfd5f3764736f6c63430008090033",
  "linkReferences": {},
  "deployedLinkReferences": {}
}