{
    "contractName": "Controller",
    "abi": [
        {
            "anonymous": false,
            "inputs": [
                {
                    "indexed": false,
                    "internalType": "address",
                    "name": "previousAdmin",
                    "type": "address"
                },
                {
                    "indexed": false,
                    "internalType": "address",
                    "name": "newAdmin",
                    "type": "address"
                }
            ],
            "name": "AdminChanged",
            "type": "event"
        },
        {
            "anonymous": false,
            "inputs": [
                {
                    "indexed": true,
                    "internalType": "address",
                    "name": "beacon",
                    "type": "address"
                }
            ],
            "name": "BeaconUpgraded",
            "type": "event"
        },
        {
            "anonymous": false,
            "inputs": [
                {
                    "indexed": true,
                    "internalType": "address",
                    "name": "user",
                    "type": "address"
                },
                {
                    "indexed": false,
                    "internalType": "uint256",
                    "name": "tokenId",
                    "type": "uint256"
                },
                {
                    "indexed": true,
                    "internalType": "address",
                    "name": "poolAddress",
                    "type": "address"
                },
                {
                    "indexed": false,
                    "internalType": "uint256",
                    "name": "transferedToken0",
                    "type": "uint256"
                },
                {
                    "indexed": false,
                    "internalType": "uint256",
                    "name": "transferedToken1",
                    "type": "uint256"
                }
            ],
            "name": "CancelOrder",
            "type": "event"
        },
        {
            "anonymous": false,
            "inputs": [
                {
                    "indexed": true,
                    "internalType": "address",
                    "name": "user",
                    "type": "address"
                },
                {
                    "indexed": true,
                    "internalType": "address",
                    "name": "poolAddress",
                    "type": "address"
                },
                {
                    "indexed": false,
                    "internalType": "uint256",
                    "name": "tokenId",
                    "type": "uint256"
                },
                {
                    "indexed": false,
                    "internalType": "int24",
                    "name": "tickLower",
                    "type": "int24"
                },
                {
                    "indexed": false,
                    "internalType": "int24",
                    "name": "tickUpper",
                    "type": "int24"
                },
                {
                    "indexed": false,
                    "internalType": "enum Controller.OrderType",
                    "name": "orderType",
                    "type": "uint8"
                }
            ],
            "name": "CreateOrder",
            "type": "event"
        },
        {
            "anonymous": false,
            "inputs": [
                {
                    "indexed": true,
                    "internalType": "address",
                    "name": "user",
                    "type": "address"
                },
                {
                    "indexed": false,
                    "internalType": "uint256",
                    "name": "tokenId",
                    "type": "uint256"
                },
                {
                    "indexed": true,
                    "internalType": "address",
                    "name": "poolAddress",
                    "type": "address"
                },
                {
                    "indexed": false,
                    "internalType": "uint256",
                    "name": "transferedToken0",
                    "type": "uint256"
                },
                {
                    "indexed": false,
                    "internalType": "uint256",
                    "name": "transferedToken1",
                    "type": "uint256"
                }
            ],
            "name": "ExecuteOrder",
            "type": "event"
        },
        {
            "anonymous": false,
            "inputs": [
                {
                    "indexed": false,
                    "internalType": "uint8",
                    "name": "version",
                    "type": "uint8"
                }
            ],
            "name": "Initialized",
            "type": "event"
        },
        {
            "anonymous": false,
            "inputs": [
                {
                    "indexed": false,
                    "internalType": "address",
                    "name": "account",
                    "type": "address"
                }
            ],
            "name": "Paused",
            "type": "event"
        },
        {
            "anonymous": false,
            "inputs": [
                {
                    "indexed": true,
                    "internalType": "bytes32",
                    "name": "role",
                    "type": "bytes32"
                },
                {
                    "indexed": true,
                    "internalType": "bytes32",
                    "name": "previousAdminRole",
                    "type": "bytes32"
                },
                {
                    "indexed": true,
                    "internalType": "bytes32",
                    "name": "newAdminRole",
                    "type": "bytes32"
                }
            ],
            "name": "RoleAdminChanged",
            "type": "event"
        },
        {
            "anonymous": false,
            "inputs": [
                {
                    "indexed": true,
                    "internalType": "bytes32",
                    "name": "role",
                    "type": "bytes32"
                },
                {
                    "indexed": true,
                    "internalType": "address",
                    "name": "account",
                    "type": "address"
                },
                {
                    "indexed": true,
                    "internalType": "address",
                    "name": "sender",
                    "type": "address"
                }
            ],
            "name": "RoleGranted",
            "type": "event"
        },
        {
            "anonymous": false,
            "inputs": [
                {
                    "indexed": true,
                    "internalType": "bytes32",
                    "name": "role",
                    "type": "bytes32"
                },
                {
                    "indexed": true,
                    "internalType": "address",
                    "name": "account",
                    "type": "address"
                },
                {
                    "indexed": true,
                    "internalType": "address",
                    "name": "sender",
                    "type": "address"
                }
            ],
            "name": "RoleRevoked",
            "type": "event"
        },
        {
            "anonymous": false,
            "inputs": [
                {
                    "indexed": false,
                    "internalType": "address",
                    "name": "account",
                    "type": "address"
                }
            ],
            "name": "Unpaused",
            "type": "event"
        },
        {
            "anonymous": false,
            "inputs": [
                {
                    "indexed": true,
                    "internalType": "address",
                    "name": "implementation",
                    "type": "address"
                }
            ],
            "name": "Upgraded",
            "type": "event"
        },
        {
            "inputs": [],
            "name": "DEFAULT_ADMIN_ROLE",
            "outputs": [
                {
                    "internalType": "bytes32",
                    "name": "",
                    "type": "bytes32"
                }
            ],
            "stateMutability": "view",
            "type": "function"
        },
        {
            "inputs": [],
            "name": "SLIPPAGE",
            "outputs": [
                {
                    "internalType": "uint256",
                    "name": "",
                    "type": "uint256"
                }
            ],
            "stateMutability": "view",
            "type": "function"
        },
        {
            "inputs": [],
            "name": "SLIPPAGE_ACCURACY",
            "outputs": [
                {
                    "internalType": "uint256",
                    "name": "",
                    "type": "uint256"
                }
            ],
            "stateMutability": "view",
            "type": "function"
        },
        {
            "inputs": [
                {
                    "internalType": "uint256",
                    "name": "_tokenId",
                    "type": "uint256"
                },
                {
                    "internalType": "address",
                    "name": "_poolAddress",
                    "type": "address"
                }
            ],
            "name": "cancelOrder",
            "outputs": [],
            "stateMutability": "nonpayable",
            "type": "function"
        },
        {
            "inputs": [
                {
                    "internalType": "uint256",
                    "name": "_tokenId",
                    "type": "uint256"
                },
                {
                    "internalType": "address",
                    "name": "_poolAddress",
                    "type": "address"
                }
            ],
            "name": "checkOrder",
            "outputs": [
                {
                    "internalType": "bool",
                    "name": "isClosable",
                    "type": "bool"
                },
                {
                    "internalType": "address",
                    "name": "owner",
                    "type": "address"
                },
                {
                    "internalType": "address",
                    "name": "quoteToken",
                    "type": "address"
                },
                {
                    "internalType": "uint256",
                    "name": "quoteAmount",
                    "type": "uint256"
                },
                {
                    "internalType": "address",
                    "name": "baseToken",
                    "type": "address"
                },
                {
                    "internalType": "uint256",
                    "name": "baseAmount",
                    "type": "uint256"
                }
            ],
            "stateMutability": "view",
            "type": "function"
        },
        {
            "inputs": [
                {
                    "components": [
                        {
                            "internalType": "uint24",
                            "name": "fee",
                            "type": "uint24"
                        },
                        {
                            "internalType": "address",
                            "name": "token0",
                            "type": "address"
                        },
                        {
                            "internalType": "address",
                            "name": "token1",
                            "type": "address"
                        },
                        {
                            "internalType": "int24",
                            "name": "tickLower",
                            "type": "int24"
                        },
                        {
                            "internalType": "int24",
                            "name": "tickUpper",
                            "type": "int24"
                        },
                        {
                            "internalType": "uint256",
                            "name": "amountOfToken0",
                            "type": "uint256"
                        },
                        {
                            "internalType": "uint256",
                            "name": "amountOfToken1",
                            "type": "uint256"
                        },
                        {
                            "internalType": "uint256",
                            "name": "recievedAmountOfToken0",
                            "type": "uint256"
                        },
                        {
                            "internalType": "uint256",
                            "name": "recievedAmountOfToken1",
                            "type": "uint256"
                        },
                        {
                            "internalType": "uint256",
                            "name": "deadline",
                            "type": "uint256"
                        },
                        {
                            "internalType": "enum Controller.OrderType",
                            "name": "orderType",
                            "type": "uint8"
                        }
                    ],
                    "internalType": "struct Controller.OrderParams",
                    "name": "_params",
                    "type": "tuple"
                }
            ],
            "name": "createOrder",
            "outputs": [
                {
                    "internalType": "uint256",
                    "name": "",
                    "type": "uint256"
                }
            ],
            "stateMutability": "payable",
            "type": "function"
        },
        {
            "inputs": [
                {
                    "components": [
                        {
                            "internalType": "uint256",
                            "name": "tokenId",
                            "type": "uint256"
                        },
                        {
                            "internalType": "address",
                            "name": "poolAddress",
                            "type": "address"
                        },
                        {
                            "internalType": "uint256",
                            "name": "amountOfToken",
                            "type": "uint256"
                        }
                    ],
                    "internalType": "struct Controller.EditOrderParams",
                    "name": "_editParams",
                    "type": "tuple"
                }
            ],
            "name": "editOrder",
            "outputs": [
                {
                    "internalType": "uint256",
                    "name": "newAmountOfToken0",
                    "type": "uint256"
                },
                {
                    "internalType": "uint256",
                    "name": "newAmountOfToken1",
                    "type": "uint256"
                }
            ],
            "stateMutability": "nonpayable",
            "type": "function"
        },
        {
            "inputs": [
                {
                    "internalType": "uint256",
                    "name": "",
                    "type": "uint256"
                }
            ],
            "name": "ethForExecute",
            "outputs": [
                {
                    "internalType": "uint256",
                    "name": "",
                    "type": "uint256"
                }
            ],
            "stateMutability": "view",
            "type": "function"
        },
        {
            "inputs": [
                {
                    "internalType": "uint256",
                    "name": "_tokenId",
                    "type": "uint256"
                },
                {
                    "internalType": "address",
                    "name": "_poolAddress",
                    "type": "address"
                }
            ],
            "name": "executeOrder",
            "outputs": [],
            "stateMutability": "nonpayable",
            "type": "function"
        },
        {
            "inputs": [],
            "name": "executionFee",
            "outputs": [
                {
                    "internalType": "uint256",
                    "name": "",
                    "type": "uint256"
                }
            ],
            "stateMutability": "view",
            "type": "function"
        },
        {
            "inputs": [
                {
                    "internalType": "uint256",
                    "name": "_amount1",
                    "type": "uint256"
                },
                {
                    "internalType": "int24",
                    "name": "_tickLower",
                    "type": "int24"
                },
                {
                    "internalType": "int24",
                    "name": "_tickUpper",
                    "type": "int24"
                }
            ],
            "name": "getAmount0FromAmount1",
            "outputs": [
                {
                    "internalType": "uint256",
                    "name": "_amount0",
                    "type": "uint256"
                }
            ],
            "stateMutability": "pure",
            "type": "function"
        },
        {
            "inputs": [
                {
                    "internalType": "uint256",
                    "name": "_amount0",
                    "type": "uint256"
                },
                {
                    "internalType": "int24",
                    "name": "_tickLower",
                    "type": "int24"
                },
                {
                    "internalType": "int24",
                    "name": "_tickUpper",
                    "type": "int24"
                }
            ],
            "name": "getAmount1FromAmount0",
            "outputs": [
                {
                    "internalType": "uint256",
                    "name": "_amount1",
                    "type": "uint256"
                }
            ],
            "stateMutability": "pure",
            "type": "function"
        },
        {
            "inputs": [
                {
                    "internalType": "bytes32",
                    "name": "role",
                    "type": "bytes32"
                }
            ],
            "name": "getRoleAdmin",
            "outputs": [
                {
                    "internalType": "bytes32",
                    "name": "",
                    "type": "bytes32"
                }
            ],
            "stateMutability": "view",
            "type": "function"
        },
        {
            "inputs": [
                {
                    "internalType": "bytes32",
                    "name": "role",
                    "type": "bytes32"
                },
                {
                    "internalType": "address",
                    "name": "account",
                    "type": "address"
                }
            ],
            "name": "grantRole",
            "outputs": [],
            "stateMutability": "nonpayable",
            "type": "function"
        },
        {
            "inputs": [
                {
                    "internalType": "bytes32",
                    "name": "role",
                    "type": "bytes32"
                },
                {
                    "internalType": "address",
                    "name": "account",
                    "type": "address"
                }
            ],
            "name": "hasRole",
            "outputs": [
                {
                    "internalType": "bool",
                    "name": "",
                    "type": "bool"
                }
            ],
            "stateMutability": "view",
            "type": "function"
        },
        {
            "inputs": [
                {
                    "internalType": "address",
                    "name": "_nftPositionManager",
                    "type": "address"
                },
                {
                    "internalType": "address",
                    "name": "_uniswapV3Factory",
                    "type": "address"
                },
                {
                    "internalType": "address",
                    "name": "_weth",
                    "type": "address"
                },
                {
                    "internalType": "address",
                    "name": "_uniV3Nft",
                    "type": "address"
                },
                {
                    "internalType": "uint256",
                    "name": "_executionFee",
                    "type": "uint256"
                }
            ],
            "name": "initialize",
            "outputs": [],
            "stateMutability": "nonpayable",
            "type": "function"
        },
        {
            "inputs": [],
            "name": "nftPositionManager",
            "outputs": [
                {
                    "internalType": "contract INonfungiblePositionManager",
                    "name": "",
                    "type": "address"
                }
            ],
            "stateMutability": "view",
            "type": "function"
        },
        {
            "inputs": [
                {
                    "internalType": "address",
                    "name": "",
                    "type": "address"
                },
                {
                    "internalType": "uint256",
                    "name": "",
                    "type": "uint256"
                }
            ],
            "name": "orders",
            "outputs": [
                {
                    "internalType": "address",
                    "name": "owner",
                    "type": "address"
                },
                {
                    "internalType": "address",
                    "name": "token0",
                    "type": "address"
                },
                {
                    "internalType": "address",
                    "name": "token1",
                    "type": "address"
                },
                {
                    "internalType": "int24",
                    "name": "tickLower",
                    "type": "int24"
                },
                {
                    "internalType": "int24",
                    "name": "tickUpper",
                    "type": "int24"
                },
                {
                    "internalType": "uint24",
                    "name": "fee",
                    "type": "uint24"
                },
                {
                    "internalType": "uint256",
                    "name": "amountOfToken0",
                    "type": "uint256"
                },
                {
                    "internalType": "uint256",
                    "name": "amountOfToken1",
                    "type": "uint256"
                },
                {
                    "internalType": "uint256",
                    "name": "recievedAmount",
                    "type": "uint256"
                },
                {
                    "internalType": "uint128",
                    "name": "liquidity",
                    "type": "uint128"
                },
                {
                    "internalType": "enum Controller.OrderType",
                    "name": "orderType",
                    "type": "uint8"
                }
            ],
            "stateMutability": "view",
            "type": "function"
        },
        {
            "inputs": [],
            "name": "paused",
            "outputs": [
                {
                    "internalType": "bool",
                    "name": "",
                    "type": "bool"
                }
            ],
            "stateMutability": "view",
            "type": "function"
        },
        {
            "inputs": [],
            "name": "proxiableUUID",
            "outputs": [
                {
                    "internalType": "bytes32",
                    "name": "",
                    "type": "bytes32"
                }
            ],
            "stateMutability": "view",
            "type": "function"
        },
        {
            "inputs": [
                {
                    "internalType": "bytes32",
                    "name": "role",
                    "type": "bytes32"
                },
                {
                    "internalType": "address",
                    "name": "account",
                    "type": "address"
                }
            ],
            "name": "renounceRole",
            "outputs": [],
            "stateMutability": "nonpayable",
            "type": "function"
        },
        {
            "inputs": [
                {
                    "internalType": "bytes32",
                    "name": "role",
                    "type": "bytes32"
                },
                {
                    "internalType": "address",
                    "name": "account",
                    "type": "address"
                }
            ],
            "name": "revokeRole",
            "outputs": [],
            "stateMutability": "nonpayable",
            "type": "function"
        },
        {
            "inputs": [
                {
                    "internalType": "uint256",
                    "name": "_executionFee",
                    "type": "uint256"
                }
            ],
            "name": "setExecutionFee",
            "outputs": [],
            "stateMutability": "nonpayable",
            "type": "function"
        },
        {
            "inputs": [
                {
                    "internalType": "bool",
                    "name": "_newPauseState",
                    "type": "bool"
                }
            ],
            "name": "setPause",
            "outputs": [],
            "stateMutability": "nonpayable",
            "type": "function"
        },
        {
            "inputs": [
                {
                    "internalType": "uint256",
                    "name": "_newSlippage",
                    "type": "uint256"
                },
                {
                    "internalType": "uint256",
                    "name": "_newSlippageAccuracy",
                    "type": "uint256"
                }
            ],
            "name": "setSlippage",
            "outputs": [],
            "stateMutability": "nonpayable",
            "type": "function"
        },
        {
            "inputs": [
                {
                    "internalType": "bytes4",
                    "name": "interfaceId",
                    "type": "bytes4"
                }
            ],
            "name": "supportsInterface",
            "outputs": [
                {
                    "internalType": "bool",
                    "name": "",
                    "type": "bool"
                }
            ],
            "stateMutability": "view",
            "type": "function"
        },
        {
            "inputs": [
                {
                    "internalType": "address",
                    "name": "_token",
                    "type": "address"
                },
                {
                    "internalType": "address",
                    "name": "_to",
                    "type": "address"
                },
                {
                    "internalType": "uint256",
                    "name": "_amount",
                    "type": "uint256"
                }
            ],
            "name": "sweepTokens",
            "outputs": [],
            "stateMutability": "nonpayable",
            "type": "function"
        },
        {
            "inputs": [],
            "name": "uniV3Nft",
            "outputs": [
                {
                    "internalType": "address",
                    "name": "",
                    "type": "address"
                }
            ],
            "stateMutability": "view",
            "type": "function"
        },
        {
            "inputs": [],
            "name": "uniswapV3Factory",
            "outputs": [
                {
                    "internalType": "address",
                    "name": "",
                    "type": "address"
                }
            ],
            "stateMutability": "view",
            "type": "function"
        },
        {
            "inputs": [
                {
                    "internalType": "address",
                    "name": "newImplementation",
                    "type": "address"
                }
            ],
            "name": "upgradeTo",
            "outputs": [],
            "stateMutability": "nonpayable",
            "type": "function"
        },
        {
            "inputs": [
                {
                    "internalType": "address",
                    "name": "newImplementation",
                    "type": "address"
                },
                {
                    "internalType": "bytes",
                    "name": "data",
                    "type": "bytes"
                }
            ],
            "name": "upgradeToAndCall",
            "outputs": [],
            "stateMutability": "payable",
            "type": "function"
        },
        {
            "inputs": [],
            "name": "weth",
            "outputs": [
                {
                    "internalType": "contract IWETH9",
                    "name": "",
                    "type": "address"
                }
            ],
            "stateMutability": "view",
            "type": "function"
        }
    ],
    "bytecode": "60a06040523060805234801561001457600080fd5b506080516155b46200004d6000396000818161185d0152818161189d0152818161194e0152818161198e0152611a1d01526155b46000f3fe6080604052600436106101e35760003560e01c80635c975abb1161010257806391d1485411610095578063bedb86fb11610064578063bedb86fb14610664578063d547741f14610684578063f4adc08b146106a4578063f7013ef6146106c557600080fd5b806391d14854146105f857806398c91f9514610618578063a217fddf1461062f578063bc9ef3e01461064457600080fd5b8063793b8c6d116100d1578063793b8c6d146104db5780637e498c811461059757806384397888146105b75780638b6ca32c146105d857600080fd5b80635c975abb146104625780636711ba401461047a578063687ec4691461048d5780637323a7d3146104bb57600080fd5b80633659cfe61161017a57806340e9903b1161014957806340e9903b146104025780634f1ef2861461041957806352d1902d1461042c5780635b5491821461044157600080fd5b80633659cfe61461037257806336b4134a1461039257806337a063d2146103a95780633fc8cef3146103c957600080fd5b80632a5ab384116101b65780632a5ab3841461029b5780632b3abc5d146102d05780632f2ff15d1461033057806336568abe1461035257600080fd5b806301ffc9a7146101e8578063157cd6101461021d5780631834789c1461024b578063248a9ca31461026b575b600080fd5b3480156101f457600080fd5b5061020861020336600461492e565b6106e5565b60405190151581526020015b60405180910390f35b34801561022957600080fd5b5061023d610238366004614972565b61071c565b604051908152602001610214565b34801561025757600080fd5b5061023d610266366004614972565b610760565b34801561027757600080fd5b5061023d6102863660046149b4565b600090815260c9602052604090206001015490565b3480156102a757600080fd5b506102bb6102b6366004614a5e565b61079b565b60408051928352602083019190915201610214565b3480156102dc57600080fd5b506102f06102eb366004614ac0565b611523565b6040805196151587526001600160a01b039586166020880152938516938601939093526060850191909152909116608083015260a082015260c001610214565b34801561033c57600080fd5b5061035061034b366004614ac0565b6117ab565b005b34801561035e57600080fd5b5061035061036d366004614ac0565b6117d5565b34801561037e57600080fd5b5061035061038d366004614af0565b611853565b34801561039e57600080fd5b5061023d6101325481565b3480156103b557600080fd5b506103506103c43660046149b4565b611932565b3480156103d557600080fd5b5061012f546103ea906001600160a01b031681565b6040516001600160a01b039091168152602001610214565b34801561040e57600080fd5b5061023d6101315481565b610350610427366004614b0d565b611944565b34801561043857600080fd5b5061023d611a10565b34801561044d57600080fd5b5061012e546103ea906001600160a01b031681565b34801561046e57600080fd5b5060fb5460ff16610208565b61023d610488366004614bd7565b611ac3565b34801561049957600080fd5b5061023d6104a83660046149b4565b6101356020526000908152604090205481565b3480156104c757600080fd5b506103506104d6366004614ac0565b61258e565b3480156104e757600080fd5b506105806104f6366004614c90565b6101346020908152600092835260408084209091529082529020805460018201546002808401546003850154600486015460058701546006909701546001600160a01b039687169795871696841695600160a01b8504860b95600160b81b8604900b94600160d01b900462ffffff169392916001600160801b03811690600160801b900460ff168b565b6040516102149b9a99989796959493929190614cf4565b3480156105a357600080fd5b506103506105b2366004614ac0565b6127e8565b3480156105c357600080fd5b5061012d546103ea906001600160a01b031681565b3480156105e457600080fd5b506103506105f3366004614d76565b612ae3565b34801561060457600080fd5b50610208610613366004614ac0565b612baf565b34801561062457600080fd5b5061023d6101335481565b34801561063b57600080fd5b5061023d600081565b34801561065057600080fd5b5061035061065f366004614db7565b612bda565b34801561067057600080fd5b5061035061067f366004614de7565b612c2a565b34801561069057600080fd5b5061035061069f366004614ac0565b612c4a565b3480156106b057600080fd5b50610130546103ea906001600160a01b031681565b3480156106d157600080fd5b506103506106e0366004614e04565b612c6f565b60006001600160e01b03198216637965db0b60e01b148061071657506301ffc9a760e01b6001600160e01b03198316145b92915050565b60008061073a61072b85612e03565b61073485612e03565b87613146565b905061075761074885612e03565b61075185612e03565b836131b7565b95945050505050565b60008061077e61076f85612e03565b61077885612e03565b87613209565b905061075761078c85612e03565b61079585612e03565b8361323f565b80516020820151600091829160016001600160a01b038216600090815261013460209081526040808320868452909152902060060154600160801b900460ff1660058111156107ec576107ec614cbc565b148061083a575060006001600160a01b038216600090815261013460209081526040808320868452909152902060060154600160801b900460ff16600581111561083857610838614cbc565b145b61085f5760405162461bcd60e51b815260040161085690614e68565b60405180910390fd5b6108676132b2565b845161089d5760405162461bcd60e51b8152602060048201526005602482015264045444954360dc1b6044820152606401610856565b60208501516001600160a01b03166108df5760405162461bcd60e51b8152602060048201526005602482015264454449543160d81b6044820152606401610856565b602080860180516001600160a01b03166000908152610134835260408082208951835290935291822087519151909291829161091b9190611523565b505093505050508060001461095a5760405162461bcd60e51b8152602060048201526005602482015264454449543360d81b6044820152606401610856565b82546001600160a01b0316331461099b5760405162461bcd60e51b8152602060048201526005602482015264115112550d60da1b6044820152606401610856565b87604001516000036109be576109b98860000151896020015161258e565b611519565b60006006840154600160801b900460ff1660058111156109e0576109e0614cbc565b1480156109f4575082600301548860400151115b15610a6757610a28333085600301548b60400151610a129190614e9a565b60018701546001600160a01b03169291906132fa565b61012d54600384015460408a0151610a62926001600160a01b031691610a4d91614e9a565b60018601546001600160a01b0316919061336b565b610b0b565b60016006840154600160801b900460ff166005811115610a8957610a89614cbc565b148015610a9d575082600401548860400151115b15610b0b57610ad1333085600401548b60400151610abb9190614e9a565b60028701546001600160a01b03169291906132fa565b61012d54600484015460408a0151610b0b926001600160a01b031691610af691614e9a565b60028601546001600160a01b0316919061336b565b60006006840154600160801b900460ff166005811115610b2d57610b2d614cbc565b0361104757826003015488604001511015610e5c5760006040518060a001604052808a600001518152602001610ba8610b768760020160149054906101000a900460020b612e03565b600280890154610b8f91600160b81b909104900b612e03565b8d604001518960030154610ba39190614e9a565b613146565b6001600160801b0316815260200161013354610132548c604001518860030154610bd29190614e9a565b610bdc9190614ead565b610be69190614eda565b8152600060208201524260409182015261012d549051630624e65f60e11b81529192506001600160a01b031690630c49ccbe90610c27908490600401614efc565b60408051808303816000875af1158015610c45573d6000803e3d6000fd5b505050506040513d601f19601f82011682018060405250810190610c699190614f3f565b61012d54604080516080810182528d5181523060208201526001600160801b038183018190526060820152905163fc6f786560e01b8152939b509199506001600160a01b03169163fc6f786591610cc291600401614f63565b60408051808303816000875af1158015610ce0573d6000803e3d6000fd5b505050506040513d601f19601f82011682018060405250810190610d049190614f3f565b5050610d25610d103390565b60018601546001600160a01b0316908a61341d565b600280850154610d9a91610d4191600160a01b9004900b612e03565b600280870154610d5a91600160b81b909104900b612e03565b600280880154610d9591610d7691600160a01b9004900b612e03565b6002808a0154610d8f91600160b81b909104900b612e03565b8d613146565b61323f565b846005016000828254610dad9190614e9a565b9091555050600280850154610dfb91610dce91600160a01b9004900b612e03565b600280870154610de791600160b81b909104900b612e03565b8b604001518760030154610ba39190614e9a565b600685018054600090610e189084906001600160801b0316614fa6565b92506101000a8154816001600160801b0302191690836001600160801b0316021790555087846003016000828254610e509190614e9a565b90915550611519915050565b8260030154886040015111156110175760006040518060c001604052808a60000151815260200185600301548b60400151610e979190614e9a565b815260200160008152602001610133546101325487600301548d60400151610ebf9190614e9a565b610ec99190614ead565b610ed39190614eda565b8152600060208201524260409182015261012d54905163219f5d1760e01b81529192506001600160a01b03169063219f5d1790610f14908490600401614fcd565b6060604051808303816000875af1158015610f33573d6000803e3d6000fd5b505050506040513d601f19601f82011682018060405250810190610f579190615028565b600280880154929b50909950919450610f9b91610f7c91600160a01b9004900b612e03565b600280870154610f9591600160b81b909104900b612e03565b8561323f565b846005016000828254610fae919061505d565b9091555050600684018054849190600090610fd39084906001600160801b0316615070565b92506101000a8154816001600160801b0302191690836001600160801b031602179055508784600301600082825461100b919061505d565b909155506109b9915050565b60405162461bcd60e51b8152602060048201526005602482015264454449543560d81b6044820152606401610856565b60016006840154600160801b900460ff16600581111561106957611069614cbc565b03611519578260040154886040015110156113885760006040518060a001604052808a6000015181526020016110e46110b28760020160149054906101000a900460020b612e03565b6002808901546110cb91600160b81b909104900b612e03565b8d6040015189600401546110df9190614e9a565b613209565b6001600160801b031681526020016000815260200161013354610132548c6040015188600401546111159190614e9a565b61111f9190614ead565b6111299190614eda565b81524260209091015261012d54604051630624e65f60e11b81529192506001600160a01b031690630c49ccbe90611164908490600401614efc565b60408051808303816000875af1158015611182573d6000803e3d6000fd5b505050506040513d601f19601f820116820180604052508101906111a69190614f3f565b61012d54604080516080810182528d5181523060208201526001600160801b038183018190526060820152905163fc6f786560e01b8152939b509199506001600160a01b03169163fc6f7865916111ff91600401614f63565b60408051808303816000875af115801561121d573d6000803e3d6000fd5b505050506040513d601f19601f820116820180604052508101906112419190614f3f565b505061126261124d3390565b60028601546001600160a01b0316908961341d565b6002808501546112d29161127e91600160a01b9004900b612e03565b60028087015461129791600160b81b909104900b612e03565b600280880154610d95916112b391600160a01b9004900b612e03565b6002808a01546112cc91600160b81b909104900b612e03565b8c613209565b8460050160008282546112e59190614e9a565b90915550506002808501546113339161130691600160a01b9004900b612e03565b60028087015461131f91600160b81b909104900b612e03565b8b6040015187600401546110df9190614e9a565b6006850180546000906113509084906001600160801b0316614fa6565b92506101000a8154816001600160801b0302191690836001600160801b0316021790555086846004016000828254610e509190614e9a565b8260040154886040015111156110175760006040518060c001604052808a6000015181526020016000815260200185600401548b604001516113ca9190614e9a565b815260200160008152602001610133546101325487600401548d604001516113f29190614e9a565b6113fc9190614ead565b6114069190614eda565b81524260209091015261012d5460405163219f5d1760e01b81529192506001600160a01b03169063219f5d1790611441908490600401614fcd565b6060604051808303816000875af1158015611460573d6000803e3d6000fd5b505050506040513d601f19601f820116820180604052508101906114849190615028565b600280880154929b509099509194506114a991610f7c91600160a01b9004900b612e03565b8460050160008282546114bc919061505d565b90915550506006840180548491906000906114e19084906001600160801b0316615070565b92506101000a8154816001600160801b0302191690836001600160801b0316021790555086846004016000828254610e50919061505d565b5050505050915091565b600080600080600080611536888861344d565b6001600160a01b038981166000908152610134602090815260408083208e84528252808320815161016081018352815486168152600182015486169381019390935260028082015495861692840192909252600160a01b8504820b6060840152600160b81b850490910b6080830152600160d01b90930462ffffff1660a0820152600383015460c0820152600483015460e082015260058084015461010083015260068401546001600160801b03811661012084015294985094955090939092610140840191600160801b90910460ff169081111561161757611617614cbc565b600581111561162857611628614cbc565b905250805183159850965090506003816101400151600581111561164e5761164e614cbc565b148061167057506002816101400151600581111561166e5761166e614cbc565b145b8061169157506005816101400151600581111561168f5761168f614cbc565b145b806116b25750600481610140015160058111156116b0576116b0614cbc565b145b156116bc57600096505b600181610140015160058111156116d5576116d5614cbc565b14806116f75750600381610140015160058111156116f5576116f5614cbc565b145b8061171857506005816101400151600581111561171657611716614cbc565b145b156117305780602001519450806040015192506117a0565b6000816101400151600581111561174957611749614cbc565b148061176b57506002816101400151600581111561176957611769614cbc565b145b8061178c57506004816101400151600581111561178a5761178a614cbc565b145b156117a05780604001519450806020015192505b509295509295509295565b600082815260c960205260409020600101546117c6816136c9565b6117d083836136d3565b505050565b6001600160a01b03811633146118455760405162461bcd60e51b815260206004820152602f60248201527f416363657373436f6e74726f6c3a2063616e206f6e6c792072656e6f756e636560448201526e103937b632b9903337b91039b2b63360891b6064820152608401610856565b61184f8282613759565b5050565b6001600160a01b037f000000000000000000000000000000000000000000000000000000000000000016300361189b5760405162461bcd60e51b815260040161085690615090565b7f00000000000000000000000000000000000000000000000000000000000000006001600160a01b03166118e4600080516020615538833981519152546001600160a01b031690565b6001600160a01b03161461190a5760405162461bcd60e51b8152600401610856906150dc565b611913816137c0565b6040805160008082526020820190925261192f918391906137cb565b50565b600061193d816136c9565b5061013155565b6001600160a01b037f000000000000000000000000000000000000000000000000000000000000000016300361198c5760405162461bcd60e51b815260040161085690615090565b7f00000000000000000000000000000000000000000000000000000000000000006001600160a01b03166119d5600080516020615538833981519152546001600160a01b031690565b6001600160a01b0316146119fb5760405162461bcd60e51b8152600401610856906150dc565b611a04826137c0565b61184f828260016137cb565b6000306001600160a01b037f00000000000000000000000000000000000000000000000000000000000000001614611ab05760405162461bcd60e51b815260206004820152603860248201527f555550535570677261646561626c653a206d757374206e6f742062652063616c60448201527f6c6564207468726f7567682064656c656761746563616c6c00000000000000006064820152608401610856565b5060008051602061553883398151915290565b6000611acd6132b2565b81604001516001600160a01b031682602001516001600160a01b031610611b1e5760405162461bcd60e51b81526020600482015260056024820152644352454f3160d81b6044820152606401610856565b60008261014001516005811115611b3757611b37614cbc565b1480611b59575060018261014001516005811115611b5757611b57614cbc565b145b611b8d5760405162461bcd60e51b815260206004820152600560248201526421a922a79960d91b6044820152606401610856565b61013154341015611bc85760405162461bcd60e51b81526020600482015260056024820152644352454f3360d81b6044820152606401610856565b61012e54602083015160408401518451600093611bf9936001600160a01b0390911692611bf492613936565b6139a1565b90506001600160a01b0381163b611c3a5760405162461bcd60e51b815260206004820152600560248201526410d49153cd60da1b6044820152606401610856565b6000816001600160a01b031663d0c93a7c6040518163ffffffff1660e01b8152600401602060405180830381865afa158015611c7a573d6000803e3d6000fd5b505050506040513d601f19601f82011682018060405250810190611c9e9190615128565b90506000826001600160a01b0316633850c7bd6040518163ffffffff1660e01b815260040160e060405180830381865afa158015611ce0573d6000803e3d6000fd5b505050506040513d601f19601f82011682018060405250810190611d049190615157565b5093955060009450611d169350505050565b8561014001516005811115611d2d57611d2d614cbc565b03611f5b578060020b856060015160020b13611d735760405162461bcd60e51b81526020600482015260056024820152644352454f3560d81b6044820152606401610856565b81611d81620d89e7196151ef565b611d8b9190615211565b60020b856060015160020b1315611dcc5760405162461bcd60e51b815260206004820152600560248201526421a922a79b60d91b6044820152606401610856565b60008560a0015111611e085760405162461bcd60e51b81526020600482015260056024820152644352454f3760d81b6044820152606401610856565b60c085015115611e425760405162461bcd60e51b8152602060048201526005602482015264086a48a9e760db1b6044820152606401610856565b60e085015115611e7c5760405162461bcd60e51b81526020600482015260056024820152644352454f3960d81b6044820152606401610856565b600085610100015111611eba5760405162461bcd60e51b815260206004820152600660248201526504352454f31360d41b6044820152606401610856565b608085015160020b15611ef85760405162461bcd60e51b81526020600482015260066024820152654352454f313160d01b6044820152606401610856565b611f183360a087015160208801516001600160a01b0316919030906132fa565b61012d5460a08601516020870151611f3e926001600160a01b039182169291169061336b565b818560600151611f4e9190615236565b60020b6080860152612199565b60018561014001516005811115611f7457611f74614cbc565b03612199578060020b856080015160020b12611fbb5760405162461bcd60e51b815260206004820152600660248201526521a922a7989960d11b6044820152606401610856565b611fc982620d89e719615236565b60020b856080015160020b121561200b5760405162461bcd60e51b81526020600482015260066024820152654352454f313360d01b6044820152606401610856565b60008560c00151116120485760405162461bcd60e51b815260206004820152600660248201526510d49153cc4d60d21b6044820152606401610856565b60a0850151156120835760405162461bcd60e51b81526020600482015260066024820152654352454f313560d01b6044820152606401610856565b610100850151156120bf5760405162461bcd60e51b815260206004820152600660248201526521a922a7989b60d11b6044820152606401610856565b60008560e00151116120fc5760405162461bcd60e51b81526020600482015260066024820152654352454f313760d01b6044820152606401610856565b606085015160020b1561213a5760405162461bcd60e51b8152602060048201526006602482015265086a48a9e62760d31b6044820152606401610856565b61215a3360c087015160408801516001600160a01b0316919030906132fa565b61012d5460c08601516040870151612180926001600160a01b039182169291169061336b565b8185608001516121909190615211565b60020b60608601525b60008061012d60009054906101000a90046001600160a01b03166001600160a01b031663883164566040518061016001604052808a602001516001600160a01b031681526020018a604001516001600160a01b031681526020018a6000015162ffffff1681526020018a6060015160020b81526020018a6080015160020b81526020018a60a0015181526020018a60c00151815260200161013354610132548c60a001516122479190614ead565b6122519190614eda565b815260200161013354610132548c60c0015161226d9190614ead565b6122779190614eda565b81523060208201526101208b0151604091820152516001600160e01b031960e084901b1681526122aa919060040161525b565b6080604051808303816000875af11580156122c9573d6000803e3d6000fd5b505050506040513d601f19601f820116820180604052508101906122ed919061531f565b5050600082815261013560205260409081902034905580516101608101909152919350915080336001600160a01b0316815260200188602001516001600160a01b0316815260200188604001516001600160a01b03168152602001886060015160020b8152602001886080015160020b8152602001886000015162ffffff1681526020018860a0015181526020018860c00151815260200188610100015160001461239d578861010001516123a3565b8860e001515b8152602001826001600160801b0316815260200188610140015160058111156123ce576123ce614cbc565b90526001600160a01b03808716600090815261013460209081526040808320878452825291829020845181549085166001600160a01b0319918216178255918501516001820180549186169190931617909155908301516002820180546060860151608087015160a088015162ffffff908116600160d01b0262ffffff60d01b19928216600160b81b029290921665ffffffffffff60b81b1991909316600160a01b026001600160b81b031990941695909716949094179190911794909416939093171790915560c0820151600382015560e082015160048201556101008201516005808301919091556101208301516006830180546001600160801b039092166fffffffffffffffffffffffffffffffff1983168117825561014086015193919270ffffffffffffffffffffffffffffffffff19161790600160801b90849081111561251d5761251d614cbc565b021790555050506001600160a01b038516336001600160a01b03167f2d283b2be0f7c92cc9b116e3bc0f2cd0a6721a7de6e3c22084f06cfae102971f848a606001518b608001518c610140015160405161257a949392919061535b565b60405180910390a35093505050505b919050565b818160016001600160a01b038216600090815261013460209081526040808320868452909152902060060154600160801b900460ff1660058111156125d5576125d5614cbc565b1480612623575060006001600160a01b038216600090815261013460209081526040808320868452909152902060060154600160801b900460ff16600581111561262157612621614cbc565b145b61263f5760405162461bcd60e51b815260040161085690614e68565b6001600160a01b03808416600090815261013460209081526040808320888452909152902060018101549091166126a05760405162461bcd60e51b815260206004820152600560248201526443414e4f3160d81b6044820152606401610856565b80546001600160a01b031633146126e15760405162461bcd60e51b815260206004820152600560248201526421a0a7279960d91b6044820152606401610856565b60016006820154600160801b900460ff16600581111561270357612703614cbc565b036127225760068101805460ff60801b1916600560801b17905561275f565b60006006820154600160801b900460ff16600581111561274457612744614cbc565b0361275f5760068101805460ff60801b1916600160821b1790555b60008061276c8784613a8a565b8454604080518b8152602081018590529081018390529294509092506001600160a01b03888116929116907f226df4b11af05a52379bad87321459736675945dd33bde1679f65e484f1d2fad9060600160405180910390a3600087815261013560205260409020546127df903390613f0f565b50505050505050565b818160016001600160a01b038216600090815261013460209081526040808320868452909152902060060154600160801b900460ff16600581111561282f5761282f614cbc565b148061287d575060006001600160a01b038216600090815261013460209081526040808320868452909152902060060154600160801b900460ff16600581111561287b5761287b614cbc565b145b6128995760405162461bcd60e51b815260040161085690614e68565b60006128a58585611523565b505050506001600160a01b038681166000908152610134602090815260408083208b8452909152902060018101549394509216905061290e5760405162461bcd60e51b81526020600482015260056024820152644558454f3160d81b6044820152606401610856565b6001915060008061291f8884613a8a565b909250905060016006840154600160801b900460ff16600581111561294657612946614cbc565b0361298c5782600501548210156129875760405162461bcd60e51b81526020600482015260056024820152644558454f3560d81b6044820152606401610856565b6129ef565b60006006840154600160801b900460ff1660058111156129ae576129ae614cbc565b036129ef5782600501548110156129ef5760405162461bcd60e51b81526020600482015260056024820152644558454f3560d81b6044820152606401610856565b60016006840154600160801b900460ff166005811115612a1157612a11614cbc565b03612a305760068301805460ff60801b1916600360801b179055612a6d565b60006006840154600160801b900460ff166005811115612a5257612a52614cbc565b03612a6d5760068301805460ff60801b1916600160811b1790555b8254604080518a8152602081018590529081018390526001600160a01b038981169216907f73062ad2b06840d9726fa08e5d8ff8d7a760737929c0c5f51892e646d7b98ed29060600160405180910390a360008881526101356020526040902054612ad9903390613f0f565b5050505050505050565b6000612aee816136c9565b610130546001600160a01b0390811690851603612b355760405162461bcd60e51b8152602060048201526005602482015264535745543160d81b6044820152606401610856565b60405163a9059cbb60e01b81526001600160a01b0384811660048301526024820184905285169063a9059cbb906044016020604051808303816000875af1158015612b84573d6000803e3d6000fd5b505050506040513d601f19601f82011682018060405250810190612ba89190615381565b5050505050565b600091825260c9602090815260408084206001600160a01b0393909316845291905290205460ff1690565b6000612be5816136c9565b828211612c1c5760405162461bcd60e51b81526020600482015260056024820152645354534c3160d81b6044820152606401610856565b506101329190915561013355565b6000612c35816136c9565b81612c425761184f614028565b61184f61407a565b600082815260c96020526040902060010154612c65816136c9565b6117d08383613759565b600054610100900460ff1615808015612c8f5750600054600160ff909116105b80612ca95750303b158015612ca9575060005460ff166001145b612d0c5760405162461bcd60e51b815260206004820152602e60248201527f496e697469616c697a61626c653a20636f6e747261637420697320616c72656160448201526d191e481a5b9a5d1a585b1a5e995960921b6064820152608401610856565b6000805460ff191660011790558015612d2f576000805461ff0019166101001790555b612d3a6000336140b7565b61012d80546001600160a01b038089166001600160a01b03199283161790925561012e8054888416908316179055610130805486841690831617905561012f80549287169290911691909117905561013182905561270f61013255620186a061013355612da56140c1565b612dad6140f0565b612db56140f0565b8015612dfb576000805461ff0019169055604051600181527f7f26b83ff96e1f2b6a682f133852f6798a09c465da95921460cefb38474024989060200160405180910390a15b505050505050565b60008060008360020b12612e1a578260020b612e22565b8260020b6000035b9050620d89e88110612e685760405162461bcd60e51b815260206004820152600f60248201526e7469636b203e204d41585f5449434b60881b6044820152606401610856565b600081600116600003612e7f57600160801b612e91565b6ffffcb933bd6fad37aa2d162d1a5940015b70ffffffffffffffffffffffffffffffffff1690506002821615612ec5576ffff97272373d413259a46990580e213a0260801c5b6004821615612ee4576ffff2e50f5f656932ef12357cf3c7fdcc0260801c5b6008821615612f03576fffe5caca7e10e4e61c3624eaa0941cd00260801c5b6010821615612f22576fffcb9843d60f6159c9db58835c9266440260801c5b6020821615612f41576fff973b41fa98c081472e6896dfb254c00260801c5b6040821615612f60576fff2ea16466c96a3843ec78b326b528610260801c5b6080821615612f7f576ffe5dee046a99a2a811c461f1969c30530260801c5b610100821615612f9f576ffcbe86c7900a88aedcffc83b479aa3a40260801c5b610200821615612fbf576ff987a7253ac413176f2b074cf7815e540260801c5b610400821615612fdf576ff3392b0822b70005940c7a398e4b70f30260801c5b610800821615612fff576fe7159475a2c29b7443b29c7fa6e889d90260801c5b61100082161561301f576fd097f3bdfd2022b8845ad8f792aa58250260801c5b61200082161561303f576fa9f746462d870fdf8a65dc1f90e061e50260801c5b61400082161561305f576f70d869a156d2a1b890bb3df62baf32f70260801c5b61800082161561307f576f31be135f97d08fd981231505542fcfa60260801c5b620100008216156130a0576f09aa508b5b7a84e1c677de54f3e99bc90260801c5b620200008216156130c0576e5d6af8dedb81196699c329225ee6040260801c5b620400008216156130df576d2216e584f5fa1ea926041bedfe980260801c5b620800008216156130fc576b048a170391f7dc42444e8fa20260801c5b60008460020b131561311d57806000198161311957613119614ec4565b0490505b640100000000810615613131576001613134565b60005b60ff16602082901c0192505050919050565b6000826001600160a01b0316846001600160a01b03161115613166579192915b6000613189856001600160a01b0316856001600160a01b0316600160601b614117565b90506107576131ab848361319d898961539e565b6001600160a01b0316614117565b6141c9565b9392505050565b6000826001600160a01b0316846001600160a01b031611156131d7579192915b6132016001600160801b0383166131ee868661539e565b6001600160a01b0316600160601b614117565b949350505050565b6000826001600160a01b0316846001600160a01b03161115613229579192915b6132016131ab83600160601b61319d888861539e565b6000826001600160a01b0316846001600160a01b0316111561325f579192915b6001600160a01b0384166132a86fffffffffffffffffffffffffffffffff60601b606085901b16613290878761539e565b6001600160a01b0316866001600160a01b0316614117565b6132019190614eda565b60fb5460ff16156132f85760405162461bcd60e51b815260206004820152601060248201526f14185d5cd8589b194e881c185d5cd95960821b6044820152606401610856565b565b6040516001600160a01b03808516602483015283166044820152606481018290526133659085906323b872dd60e01b906084015b60408051601f198184030181529190526020810180516001600160e01b03166001600160e01b0319909316929092179091526141df565b50505050565b604051636eb1769f60e11b81523060048201526001600160a01b038381166024830152600091839186169063dd62ed3e90604401602060405180830381865afa1580156133bc573d6000803e3d6000fd5b505050506040513d601f19601f820116820180604052508101906133e091906153be565b6133ea919061505d565b6040516001600160a01b03851660248201526044810182905290915061336590859063095ea7b360e01b9060640161332e565b6040516001600160a01b0383166024820152604481018290526117d090849063a9059cbb60e01b9060640161332e565b6001600160a01b038181166000908152610134602090815260408083208684528252808320815161016081018352815486168152600182015486169381019390935260028082015495861692840192909252600160a01b8504820b6060840152600160b81b850490910b6080830152600160d01b90930462ffffff1660a0820152600383015460c0820152600483015460e082015260058084015461010083015260068401546001600160801b03811661012084015292938493849392610140840191600160801b900460ff169081111561352a5761352a614cbc565b600581111561353b5761353b614cbc565b8152505090506000846001600160a01b0316633850c7bd6040518163ffffffff1660e01b815260040160e060405180830381865afa158015613581573d6000803e3d6000fd5b505050506040513d601f19601f820116820180604052508101906135a59190615157565b505050505050905060006135bc8360600151612e03565b905060006135cd8460800151612e03565b90506000806135e38585858961012001516142b1565b90925090506001866101400151600581111561360157613601614cbc565b148061362357506003866101400151600581111561362157613621614cbc565b145b8061364457506005866101400151600581111561364257613642614cbc565b145b15613654578196508097506136bc565b6000866101400151600581111561366d5761366d614cbc565b148061368f57506002866101400151600581111561368d5761368d614cbc565b145b806136b05750600486610140015160058111156136ae576136ae614cbc565b145b156136bc578197508096505b5050505050509250929050565b61192f813361434d565b6136dd8282612baf565b61184f57600082815260c9602090815260408083206001600160a01b03851684529091529020805460ff191660011790556137153390565b6001600160a01b0316816001600160a01b0316837f2f8788117e7eff1d82e926ec794901d17c78024a50270940304540a733656f0d60405160405180910390a45050565b6137638282612baf565b1561184f57600082815260c9602090815260408083206001600160a01b0385168085529252808320805460ff1916905551339285917ff6391f5c32d9c69d2a47ea670b442974b53935d1edc7fd64eb21e047a839171b9190a45050565b600061184f816136c9565b7f4910fdfa16fed3260ed0e7147f7cc6da11a60208b5b9406d12a635614ffd91435460ff16156137fe576117d0836143b1565b826001600160a01b03166352d1902d6040518163ffffffff1660e01b8152600401602060405180830381865afa925050508015613858575060408051601f3d908101601f19168201909252613855918101906153be565b60015b6138bb5760405162461bcd60e51b815260206004820152602e60248201527f45524331393637557067726164653a206e657720696d706c656d656e7461746960448201526d6f6e206973206e6f74205555505360901b6064820152608401610856565b600080516020615538833981519152811461392a5760405162461bcd60e51b815260206004820152602960248201527f45524331393637557067726164653a20756e737570706f727465642070726f786044820152681a58589b195555525160ba1b6064820152608401610856565b506117d083838361444d565b6040805160608101825260008082526020820181905291810191909152826001600160a01b0316846001600160a01b03161115613971579192915b50604080516060810182526001600160a01b03948516815292909316602083015262ffffff169181019190915290565b600081602001516001600160a01b031682600001516001600160a01b0316106139c957600080fd5b815160208084015160408086015181516001600160a01b0395861681860152949092168482015262ffffff90911660608085019190915281518085038201815260808501909252815191909201206001600160f81b031960a08401529085901b6bffffffffffffffffffffffff191660a183015260b58201527fe34f199b19b2b4f47f68442619d555527d244f78a3297ea89325f843f87b8b5460d582015260f50160408051601f1981840301815291905280516020909101209392505050565b60018101546040516370a0823160e01b8152306004820152600091829182916001600160a01b0316906370a0823190602401602060405180830381865afa158015613ad9573d6000803e3d6000fd5b505050506040513d601f19601f82011682018060405250810190613afd91906153be565b60028501546040516370a0823160e01b81523060048201529192506000916001600160a01b03909116906370a0823190602401602060405180830381865afa158015613b4d573d6000803e3d6000fd5b505050506040513d601f19601f82011682018060405250810190613b7191906153be565b61012d546040805160a08101825289815260068901546001600160801b03166020820152600081830181905260608201524260808201529051630624e65f60e11b81529293506001600160a01b0390911691630c49ccbe91613bd591600401614efc565b60408051808303816000875af1158015613bf3573d6000803e3d6000fd5b505050506040513d601f19601f82011682018060405250810190613c179190614f3f565b505061012d54604080516080810182528881523060208201526001600160801b038183018190526060820152905163fc6f786560e01b81526001600160a01b039092169163fc6f786591613c6d91600401614f63565b60408051808303816000875af1158015613c8b573d6000803e3d6000fd5b505050506040513d601f19601f82011682018060405250810190613caf9190614f3f565b505060018501546040516370a0823160e01b81523060048201526000916001600160a01b0316906370a0823190602401602060405180830381865afa158015613cfc573d6000803e3d6000fd5b505050506040513d601f19601f82011682018060405250810190613d2091906153be565b60028701546040516370a0823160e01b81523060048201529192506000916001600160a01b03909116906370a0823190602401602060405180830381865afa158015613d70573d6000803e3d6000fd5b505050506040513d601f19601f82011682018060405250810190613d9491906153be565b905083821115613e3357600187015487546001600160a01b039182169163a9059cbb9116613dc28786614e9a565b6040516001600160e01b031960e085901b1681526001600160a01b03909216600483015260248201526044016020604051808303816000875af1158015613e0d573d6000803e3d6000fd5b505050506040513d601f19601f82011682018060405250810190613e319190615381565b505b82811115613ed057600287015487546001600160a01b039182169163a9059cbb9116613e5f8685614e9a565b6040516001600160e01b031960e085901b1681526001600160a01b03909216600483015260248201526044016020604051808303816000875af1158015613eaa573d6000803e3d6000fd5b505050506040513d601f19601f82011682018060405250810190613ece9190615381565b505b838211613ede576000613ee8565b613ee88483614e9a565b838211613ef6576000613f00565b613f008483614e9a565b95509550505050509250929050565b80471015613f5f5760405162461bcd60e51b815260206004820152601d60248201527f416464726573733a20696e73756666696369656e742062616c616e63650000006044820152606401610856565b6000826001600160a01b03168260405160006040518083038185875af1925050503d8060008114613fac576040519150601f19603f3d011682016040523d82523d6000602084013e613fb1565b606091505b50509050806117d05760405162461bcd60e51b815260206004820152603a60248201527f416464726573733a20756e61626c6520746f2073656e642076616c75652c207260448201527f6563697069656e74206d617920686176652072657665727465640000000000006064820152608401610856565b614030614472565b60fb805460ff191690557f5db9ee0a495bf2e6ff9c91a7834c1ba4fdd244a5e8aa4e537bd38aeae4b073aa335b6040516001600160a01b03909116815260200160405180910390a1565b6140826132b2565b60fb805460ff191660011790557f62e78cea01bee320cd4e420270b5ea74000d11b0c9f74754ebdbfc544b05a25861405d3390565b61184f82826136d3565b600054610100900460ff166140e85760405162461bcd60e51b8152600401610856906153d7565b6132f86144bb565b600054610100900460ff166132f85760405162461bcd60e51b8152600401610856906153d7565b6000808060001985870985870292508281108382030391505080600003614150576000841161414557600080fd5b5082900490506131b0565b80841161415c57600080fd5b6000848688096000868103871696879004966002600389028118808a02820302808a02820302808a02820302808a02820302808a02820302808a02909103029181900381900460010186841190950394909402919094039290920491909117919091029150509392505050565b806001600160801b038116811461258957600080fd5b6000614234826040518060400160405280602081526020017f5361666545524332303a206c6f772d6c6576656c2063616c6c206661696c6564815250856001600160a01b03166144ee9092919063ffffffff16565b8051909150156117d057808060200190518101906142529190615381565b6117d05760405162461bcd60e51b815260206004820152602a60248201527f5361666545524332303a204552433230206f7065726174696f6e20646964206e6044820152691bdd081cdd58d8d9595960b21b6064820152608401610856565b600080836001600160a01b0316856001600160a01b031611156142d2579293925b846001600160a01b0316866001600160a01b0316116142fd576142f685858561323f565b9150614344565b836001600160a01b0316866001600160a01b031610156143365761432286858561323f565b915061432f8587856131b7565b9050614344565b6143418585856131b7565b90505b94509492505050565b6143578282612baf565b61184f5761436f816001600160a01b031660146144fd565b61437a8360206144fd565b60405160200161438b929190615446565b60408051601f198184030181529082905262461bcd60e51b8252610856916004016154bb565b6001600160a01b0381163b61441e5760405162461bcd60e51b815260206004820152602d60248201527f455243313936373a206e657720696d706c656d656e746174696f6e206973206e60448201526c1bdd08184818dbdb9d1c9858dd609a1b6064820152608401610856565b60008051602061553883398151915280546001600160a01b0319166001600160a01b0392909216919091179055565b61445683614699565b6000825111806144635750805b156117d05761336583836146d9565b60fb5460ff166132f85760405162461bcd60e51b815260206004820152601460248201527314185d5cd8589b194e881b9bdd081c185d5cd95960621b6044820152606401610856565b600054610100900460ff166144e25760405162461bcd60e51b8152600401610856906153d7565b60fb805460ff19169055565b606061320184846000856147c4565b6060600061450c836002614ead565b61451790600261505d565b67ffffffffffffffff81111561452f5761452f6149cd565b6040519080825280601f01601f191660200182016040528015614559576020820181803683370190505b509050600360fc1b81600081518110614574576145746154ee565b60200101906001600160f81b031916908160001a905350600f60fb1b816001815181106145a3576145a36154ee565b60200101906001600160f81b031916908160001a90535060006145c7846002614ead565b6145d290600161505d565b90505b600181111561464a576f181899199a1a9b1b9c1cb0b131b232b360811b85600f1660108110614606576146066154ee565b1a60f81b82828151811061461c5761461c6154ee565b60200101906001600160f81b031916908160001a90535060049490941c9361464381615504565b90506145d5565b5083156131b05760405162461bcd60e51b815260206004820181905260248201527f537472696e67733a20686578206c656e67746820696e73756666696369656e746044820152606401610856565b6146a2816143b1565b6040516001600160a01b038216907fbc7cd75a20ee27fd9adebab32041f755214dbc6bffa90cc0225b39da2e5c2d3b90600090a250565b60606001600160a01b0383163b6147415760405162461bcd60e51b815260206004820152602660248201527f416464726573733a2064656c65676174652063616c6c20746f206e6f6e2d636f6044820152651b9d1c9858dd60d21b6064820152608401610856565b600080846001600160a01b03168460405161475c919061551b565b600060405180830381855af49150503d8060008114614797576040519150601f19603f3d011682016040523d82523d6000602084013e61479c565b606091505b50915091506107578282604051806060016040528060278152602001615558602791396148f5565b6060824710156148255760405162461bcd60e51b815260206004820152602660248201527f416464726573733a20696e73756666696369656e742062616c616e636520666f6044820152651c8818d85b1b60d21b6064820152608401610856565b6001600160a01b0385163b61487c5760405162461bcd60e51b815260206004820152601d60248201527f416464726573733a2063616c6c20746f206e6f6e2d636f6e74726163740000006044820152606401610856565b600080866001600160a01b03168587604051614898919061551b565b60006040518083038185875af1925050503d80600081146148d5576040519150601f19603f3d011682016040523d82523d6000602084013e6148da565b606091505b50915091506148ea8282866148f5565b979650505050505050565b606083156149045750816131b0565b8251156149145782518084602001fd5b8160405162461bcd60e51b815260040161085691906154bb565b60006020828403121561494057600080fd5b81356001600160e01b0319811681146131b057600080fd5b8060020b811461192f57600080fd5b803561258981614958565b60008060006060848603121561498757600080fd5b83359250602084013561499981614958565b915060408401356149a981614958565b809150509250925092565b6000602082840312156149c657600080fd5b5035919050565b634e487b7160e01b600052604160045260246000fd5b604051610160810167ffffffffffffffff81118282101715614a0757614a076149cd565b60405290565b604051601f8201601f1916810167ffffffffffffffff81118282101715614a3657614a366149cd565b604052919050565b6001600160a01b038116811461192f57600080fd5b803561258981614a3e565b600060608284031215614a7057600080fd5b6040516060810181811067ffffffffffffffff82111715614a9357614a936149cd565b604052823581526020830135614aa881614a3e565b60208201526040928301359281019290925250919050565b60008060408385031215614ad357600080fd5b823591506020830135614ae581614a3e565b809150509250929050565b600060208284031215614b0257600080fd5b81356131b081614a3e565b60008060408385031215614b2057600080fd5b8235614b2b81614a3e565b915060208381013567ffffffffffffffff80821115614b4957600080fd5b818601915086601f830112614b5d57600080fd5b813581811115614b6f57614b6f6149cd565b614b81601f8201601f19168501614a0d565b91508082528784828501011115614b9757600080fd5b80848401858401376000848284010152508093505050509250929050565b803562ffffff8116811461258957600080fd5b80356006811061258957600080fd5b60006101608284031215614bea57600080fd5b614bf26149e3565b614bfb83614bb5565b8152614c0960208401614a53565b6020820152614c1a60408401614a53565b6040820152614c2b60608401614967565b6060820152614c3c60808401614967565b608082015260a083013560a082015260c083013560c082015260e083013560e0820152610100808401358183015250610120808401358183015250610140614c85818501614bc8565b908201529392505050565b60008060408385031215614ca357600080fd5b8235614cae81614a3e565b946020939093013593505050565b634e487b7160e01b600052602160045260246000fd5b60068110614cf057634e487b7160e01b600052602160045260246000fd5b9052565b6001600160a01b038c811682528b811660208301528a166040820152600289810b606083015288900b608082015262ffffff871660a082015260c0810186905260e0810185905261010081018490526001600160801b0383166101208201526101608101614d66610140830184614cd2565b9c9b505050505050505050505050565b600080600060608486031215614d8b57600080fd5b8335614d9681614a3e565b92506020840135614da681614a3e565b929592945050506040919091013590565b60008060408385031215614dca57600080fd5b50508035926020909101359150565b801515811461192f57600080fd5b600060208284031215614df957600080fd5b81356131b081614dd9565b600080600080600060a08688031215614e1c57600080fd5b8535614e2781614a3e565b94506020860135614e3781614a3e565b93506040860135614e4781614a3e565b92506060860135614e5781614a3e565b949793965091946080013592915050565b60208082526002908201526113d560f21b604082015260600190565b634e487b7160e01b600052601160045260246000fd5b8181038181111561071657610716614e84565b808202811582820484141761071657610716614e84565b634e487b7160e01b600052601260045260246000fd5b600082614ef757634e487b7160e01b600052601260045260246000fd5b500490565b600060a082019050825182526001600160801b03602084015116602083015260408301516040830152606083015160608301526080830151608083015292915050565b60008060408385031215614f5257600080fd5b505080516020909101519092909150565b815181526020808301516001600160a01b0316908201526040808301516001600160801b0390811691830191909152606092830151169181019190915260800190565b6001600160801b03828116828216039080821115614fc657614fc6614e84565b5092915050565b600060c082019050825182526020830151602083015260408301516040830152606083015160608301526080830151608083015260a083015160a083015292915050565b80516001600160801b038116811461258957600080fd5b60008060006060848603121561503d57600080fd5b61504684615011565b925060208401519150604084015190509250925092565b8082018082111561071657610716614e84565b6001600160801b03818116838216019080821115614fc657614fc6614e84565b6020808252602c908201527f46756e6374696f6e206d7573742062652063616c6c6564207468726f7567682060408201526b19195b1959d85d1958d85b1b60a21b606082015260800190565b6020808252602c908201527f46756e6374696f6e206d7573742062652063616c6c6564207468726f7567682060408201526b6163746976652070726f787960a01b606082015260800190565b60006020828403121561513a57600080fd5b81516131b081614958565b805161ffff8116811461258957600080fd5b600080600080600080600060e0888a03121561517257600080fd5b875161517d81614a3e565b602089015190975061518e81614958565b955061519c60408901615145565b94506151aa60608901615145565b93506151b860808901615145565b925060a088015160ff811681146151ce57600080fd5b60c08901519092506151df81614dd9565b8091505092959891949750929550565b60008160020b627fffff19810361520857615208614e84565b60000392915050565b600282810b9082900b03627fffff198112627fffff8213171561071657610716614e84565b600281810b9083900b01627fffff8113627fffff198212171561071657610716614e84565b81516001600160a01b031681526101608101602083015161528760208401826001600160a01b03169052565b50604083015161529e604084018262ffffff169052565b5060608301516152b3606084018260020b9052565b5060808301516152c8608084018260020b9052565b5060a083015160a083015260c083015160c083015260e083015160e08301526101008084015181840152506101208084015161530e828501826001600160a01b03169052565b505061014092830151919092015290565b6000806000806080858703121561533557600080fd5b8451935061534560208601615011565b6040860151606090960151949790965092505050565b848152600284810b602083015283900b6040820152608081016107576060830184614cd2565b60006020828403121561539357600080fd5b81516131b081614dd9565b6001600160a01b03828116828216039080821115614fc657614fc6614e84565b6000602082840312156153d057600080fd5b5051919050565b6020808252602b908201527f496e697469616c697a61626c653a20636f6e7472616374206973206e6f74206960408201526a6e697469616c697a696e6760a81b606082015260800190565b60005b8381101561543d578181015183820152602001615425565b50506000910152565b7f416363657373436f6e74726f6c3a206163636f756e742000000000000000000081526000835161547e816017850160208801615422565b7001034b99036b4b9b9b4b733903937b6329607d1b60179184019182015283516154af816028840160208801615422565b01602801949350505050565b60208152600082518060208401526154da816040850160208701615422565b601f01601f19169190910160400192915050565b634e487b7160e01b600052603260045260246000fd5b60008161551357615513614e84565b506000190190565b6000825161552d818460208701615422565b919091019291505056fe360894a13ba1a3210667c828492db98dca3e2076cc3735a920a3ca505d382bbc416464726573733a206c6f772d6c6576656c2064656c65676174652063616c6c206661696c6564a2646970667358221220018a7bc097b7c0e06e44c9fbe25cf13a205b2b0f52685c07446bbef6d9dbebfd64736f6c63430008110033",
    "sourcePath": "c:/Users/kolam/Desktop/work/THETrade/contracts/Controller.sol",
    "compiler": {
        "name": "solc",
        "version": "0.8.17+commit.8df45f5f"
    },
    "functionHashes": {
        "DEFAULT_ADMIN_ROLE()": "a217fddf",
        "SLIPPAGE()": "36b4134a",
        "SLIPPAGE_ACCURACY()": "98c91f95",
        "cancelOrder(uint256,address)": "7323a7d3",
        "checkOrder(uint256,address)": "2b3abc5d",
        "createOrder((uint24,address,address,int24,int24,uint256,uint256,uint256,uint256,uint256,uint8))": "6711ba40",
        "editOrder((uint256,address,uint256))": "2a5ab384",
        "ethForExecute(uint256)": "687ec469",
        "executeOrder(uint256,address)": "7e498c81",
        "executionFee()": "40e9903b",
        "getAmount0FromAmount1(uint256,int24,int24)": "1834789c",
        "getAmount1FromAmount0(uint256,int24,int24)": "157cd610",
        "getRoleAdmin(bytes32)": "248a9ca3",
        "grantRole(bytes32,address)": "2f2ff15d",
        "hasRole(bytes32,address)": "91d14854",
        "initialize(address,address,address,address,uint256)": "f7013ef6",
        "nftPositionManager()": "84397888",
        "orders(address,uint256)": "793b8c6d",
        "paused()": "5c975abb",
        "proxiableUUID()": "52d1902d",
        "renounceRole(bytes32,address)": "36568abe",
        "revokeRole(bytes32,address)": "d547741f",
        "setExecutionFee(uint256)": "37a063d2",
        "setPause(bool)": "bedb86fb",
        "setSlippage(uint256,uint256)": "bc9ef3e0",
        "supportsInterface(bytes4)": "01ffc9a7",
        "sweepTokens(address,address,uint256)": "8b6ca32c",
        "uniV3Nft()": "f4adc08b",
        "uniswapV3Factory()": "5b549182",
        "upgradeTo(address)": "3659cfe6",
        "upgradeToAndCall(address,bytes)": "4f1ef286",
        "weth()": "3fc8cef3"
    },
    "gasEstimates": {
        "creation": {
            "codeDepositCost": "4388000",
            "executionCost": "infinite",
            "totalCost": "infinite"
        },
        "external": {
            "DEFAULT_ADMIN_ROLE()": "284",
            "SLIPPAGE()": "2363",
            "SLIPPAGE_ACCURACY()": "2362",
            "cancelOrder(uint256,address)": "infinite",
            "checkOrder(uint256,address)": "infinite",
            "createOrder((uint24,address,address,int24,int24,uint256,uint256,uint256,uint256,uint256,uint8))": "infinite",
            "editOrder((uint256,address,uint256))": "infinite",
            "ethForExecute(uint256)": "2528",
            "executeOrder(uint256,address)": "infinite",
            "executionFee()": "2340",
            "getAmount0FromAmount1(uint256,int24,int24)": "infinite",
            "getAmount1FromAmount0(uint256,int24,int24)": "infinite",
            "getRoleAdmin(bytes32)": "2557",
            "grantRole(bytes32,address)": "infinite",
            "hasRole(bytes32,address)": "2698",
            "initialize(address,address,address,address,uint256)": "infinite",
            "nftPositionManager()": "2426",
            "orders(address,uint256)": "15890",
            "paused()": "2339",
            "proxiableUUID()": "infinite",
            "renounceRole(bytes32,address)": "29112",
            "revokeRole(bytes32,address)": "infinite",
            "setExecutionFee(uint256)": "infinite",
            "setPause(bool)": "infinite",
            "setSlippage(uint256,uint256)": "infinite",
            "supportsInterface(bytes4)": "473",
            "sweepTokens(address,address,uint256)": "infinite",
            "uniV3Nft()": "2425",
            "uniswapV3Factory()": "2448",
            "upgradeTo(address)": "infinite",
            "upgradeToAndCall(address,bytes)": "infinite",
            "weth()": "2449"
        },
        "internal": {
            "_authorizeUpgrade(address)": "infinite",
            "_closeOrder(uint256,struct Controller.Order storage pointer)": "infinite",
            "_getBaseTokenAmount(uint256,address)": "infinite"
        }
    }
}