{
  "_format": "hh-sol-artifact-1",
  "contractName": "SwapRouter",
  "sourceName": "contracts/SwapRouter.sol",
  "abi": [
    {
      "inputs": [
        {
          "internalType": "address",
          "name": "_factory",
          "type": "address"
        },
        {
          "internalType": "address",
          "name": "_WETH9",
          "type": "address"
        }
      ],
      "stateMutability": "nonpayable",
      "type": "constructor"
    },
    {
      "inputs": [],
      "name": "WETH9",
      "outputs": [
        {
          "internalType": "address",
          "name": "",
          "type": "address"
        }
      ],
      "stateMutability": "view",
      "type": "function"
    },
    {
      "inputs": [
        {
          "components": [
            {
              "internalType": "bytes",
              "name": "path",
              "type": "bytes"
            },
            {
              "internalType": "address",
              "name": "recipient",
              "type": "address"
            },
            {
              "internalType": "uint256",
              "name": "deadline",
              "type": "uint256"
            },
            {
              "internalType": "uint256",
              "name": "amountIn",
              "type": "uint256"
            },
            {
              "internalType": "uint256",
              "name": "amountOutMinimum",
              "type": "uint256"
            }
          ],
          "internalType": "struct ISwapRouter.ExactInputParams",
          "name": "params",
          "type": "tuple"
        }
      ],
      "name": "exactInput",
      "outputs": [
        {
          "internalType": "uint256",
          "name": "amountOut",
          "type": "uint256"
        }
      ],
      "stateMutability": "payable",
      "type": "function"
    },
    {
      "inputs": [
        {
          "components": [
            {
              "internalType": "address",
              "name": "tokenIn",
              "type": "address"
            },
            {
              "internalType": "address",
              "name": "tokenOut",
              "type": "address"
            },
            {
              "internalType": "uint24",
              "name": "fee",
              "type": "uint24"
            },
            {
              "internalType": "address",
              "name": "recipient",
              "type": "address"
            },
            {
              "internalType": "uint256",
              "name": "deadline",
              "type": "uint256"
            },
            {
              "internalType": "uint256",
              "name": "amountIn",
              "type": "uint256"
            },
            {
              "internalType": "uint256",
              "name": "amountOutMinimum",
              "type": "uint256"
            },
            {
              "internalType": "uint160",
              "name": "sqrtPriceLimitX96",
              "type": "uint160"
            }
          ],
          "internalType": "struct ISwapRouter.ExactInputSingleParams",
          "name": "params",
          "type": "tuple"
        }
      ],
      "name": "exactInputSingle",
      "outputs": [
        {
          "internalType": "uint256",
          "name": "amountOut",
          "type": "uint256"
        }
      ],
      "stateMutability": "payable",
      "type": "function"
    },
    {
      "inputs": [
        {
          "components": [
            {
              "internalType": "bytes",
              "name": "path",
              "type": "bytes"
            },
            {
              "internalType": "address",
              "name": "recipient",
              "type": "address"
            },
            {
              "internalType": "uint256",
              "name": "deadline",
              "type": "uint256"
            },
            {
              "internalType": "uint256",
              "name": "amountOut",
              "type": "uint256"
            },
            {
              "internalType": "uint256",
              "name": "amountInMaximum",
              "type": "uint256"
            }
          ],
          "internalType": "struct ISwapRouter.ExactOutputParams",
          "name": "params",
          "type": "tuple"
        }
      ],
      "name": "exactOutput",
      "outputs": [
        {
          "internalType": "uint256",
          "name": "amountIn",
          "type": "uint256"
        }
      ],
      "stateMutability": "payable",
      "type": "function"
    },
    {
      "inputs": [
        {
          "components": [
            {
              "internalType": "address",
              "name": "tokenIn",
              "type": "address"
            },
            {
              "internalType": "address",
              "name": "tokenOut",
              "type": "address"
            },
            {
              "internalType": "uint24",
              "name": "fee",
              "type": "uint24"
            },
            {
              "internalType": "address",
              "name": "recipient",
              "type": "address"
            },
            {
              "internalType": "uint256",
              "name": "deadline",
              "type": "uint256"
            },
            {
              "internalType": "uint256",
              "name": "amountOut",
              "type": "uint256"
            },
            {
              "internalType": "uint256",
              "name": "amountInMaximum",
              "type": "uint256"
            },
            {
              "internalType": "uint160",
              "name": "sqrtPriceLimitX96",
              "type": "uint160"
            }
          ],
          "internalType": "struct ISwapRouter.ExactOutputSingleParams",
          "name": "params",
          "type": "tuple"
        }
      ],
      "name": "exactOutputSingle",
      "outputs": [
        {
          "internalType": "uint256",
          "name": "amountIn",
          "type": "uint256"
        }
      ],
      "stateMutability": "payable",
      "type": "function"
    },
    {
      "inputs": [],
      "name": "factory",
      "outputs": [
        {
          "internalType": "address",
          "name": "",
          "type": "address"
        }
      ],
      "stateMutability": "view",
      "type": "function"
    },
    {
      "inputs": [
        {
          "internalType": "bytes[]",
          "name": "data",
          "type": "bytes[]"
        }
      ],
      "name": "multicall",
      "outputs": [
        {
          "internalType": "bytes[]",
          "name": "results",
          "type": "bytes[]"
        }
      ],
      "stateMutability": "payable",
      "type": "function"
    },
    {
      "inputs": [],
      "name": "refundETH",
      "outputs": [],
      "stateMutability": "payable",
      "type": "function"
    },
    {
      "inputs": [
        {
          "internalType": "address",
          "name": "token",
          "type": "address"
        },
        {
          "internalType": "uint256",
          "name": "value",
          "type": "uint256"
        },
        {
          "internalType": "uint256",
          "name": "deadline",
          "type": "uint256"
        },
        {
          "internalType": "uint8",
          "name": "v",
          "type": "uint8"
        },
        {
          "internalType": "bytes32",
          "name": "r",
          "type": "bytes32"
        },
        {
          "internalType": "bytes32",
          "name": "s",
          "type": "bytes32"
        }
      ],
      "name": "selfPermit",
      "outputs": [],
      "stateMutability": "payable",
      "type": "function"
    },
    {
      "inputs": [
        {
          "internalType": "address",
          "name": "token",
          "type": "address"
        },
        {
          "internalType": "uint256",
          "name": "nonce",
          "type": "uint256"
        },
        {
          "internalType": "uint256",
          "name": "expiry",
          "type": "uint256"
        },
        {
          "internalType": "uint8",
          "name": "v",
          "type": "uint8"
        },
        {
          "internalType": "bytes32",
          "name": "r",
          "type": "bytes32"
        },
        {
          "internalType": "bytes32",
          "name": "s",
          "type": "bytes32"
        }
      ],
      "name": "selfPermitAllowed",
      "outputs": [],
      "stateMutability": "payable",
      "type": "function"
    },
    {
      "inputs": [
        {
          "internalType": "address",
          "name": "token",
          "type": "address"
        },
        {
          "internalType": "uint256",
          "name": "nonce",
          "type": "uint256"
        },
        {
          "internalType": "uint256",
          "name": "expiry",
          "type": "uint256"
        },
        {
          "internalType": "uint8",
          "name": "v",
          "type": "uint8"
        },
        {
          "internalType": "bytes32",
          "name": "r",
          "type": "bytes32"
        },
        {
          "internalType": "bytes32",
          "name": "s",
          "type": "bytes32"
        }
      ],
      "name": "selfPermitAllowedIfNecessary",
      "outputs": [],
      "stateMutability": "payable",
      "type": "function"
    },
    {
      "inputs": [
        {
          "internalType": "address",
          "name": "token",
          "type": "address"
        },
        {
          "internalType": "uint256",
          "name": "value",
          "type": "uint256"
        },
        {
          "internalType": "uint256",
          "name": "deadline",
          "type": "uint256"
        },
        {
          "internalType": "uint8",
          "name": "v",
          "type": "uint8"
        },
        {
          "internalType": "bytes32",
          "name": "r",
          "type": "bytes32"
        },
        {
          "internalType": "bytes32",
          "name": "s",
          "type": "bytes32"
        }
      ],
      "name": "selfPermitIfNecessary",
      "outputs": [],
      "stateMutability": "payable",
      "type": "function"
    },
    {
      "inputs": [
        {
          "internalType": "address",
          "name": "token",
          "type": "address"
        },
        {
          "internalType": "uint256",
          "name": "amountMinimum",
          "type": "uint256"
        },
        {
          "internalType": "address",
          "name": "recipient",
          "type": "address"
        }
      ],
      "name": "sweepToken",
      "outputs": [],
      "stateMutability": "payable",
      "type": "function"
    },
    {
      "inputs": [
        {
          "internalType": "address",
          "name": "token",
          "type": "address"
        },
        {
          "internalType": "uint256",
          "name": "amountMinimum",
          "type": "uint256"
        },
        {
          "internalType": "address",
          "name": "recipient",
          "type": "address"
        },
        {
          "internalType": "uint256",
          "name": "feeBips",
          "type": "uint256"
        },
        {
          "internalType": "address",
          "name": "feeRecipient",
          "type": "address"
        }
      ],
      "name": "sweepTokenWithFee",
      "outputs": [],
      "stateMutability": "payable",
      "type": "function"
    },
    {
      "inputs": [
        {
          "internalType": "int256",
          "name": "amount0Delta",
          "type": "int256"
        },
        {
          "internalType": "int256",
          "name": "amount1Delta",
          "type": "int256"
        },
        {
          "internalType": "bytes",
          "name": "_data",
          "type": "bytes"
        }
      ],
      "name": "uniswapV3SwapCallback",
      "outputs": [],
      "stateMutability": "nonpayable",
      "type": "function"
    },
    {
      "inputs": [
        {
          "internalType": "uint256",
          "name": "amountMinimum",
          "type": "uint256"
        },
        {
          "internalType": "address",
          "name": "recipient",
          "type": "address"
        }
      ],
      "name": "unwrapWETH9",
      "outputs": [],
      "stateMutability": "payable",
      "type": "function"
    },
    {
      "inputs": [
        {
          "internalType": "uint256",
          "name": "amountMinimum",
          "type": "uint256"
        },
        {
          "internalType": "address",
          "name": "recipient",
          "type": "address"
        },
        {
          "internalType": "uint256",
          "name": "feeBips",
          "type": "uint256"
        },
        {
          "internalType": "address",
          "name": "feeRecipient",
          "type": "address"
        }
      ],
      "name": "unwrapWETH9WithFee",
      "outputs": [],
      "stateMutability": "payable",
      "type": "function"
    },
    {
      "stateMutability": "payable",
      "type": "receive"
    }
  ],
  "bytecode": "0x60c06040526000196000553480156200001757600080fd5b5060405162002a9d38038062002a9d8339810160408190526200003a9162000076565b6001600160601b0319606092831b8116608052911b1660a052620000ad565b80516001600160a01b03811681146200007157600080fd5b919050565b6000806040838503121562000089578182fd5b620000948362000059565b9150620000a46020840162000059565b90509250929050565b60805160601c60a05160601c6129946200010960003980610122528061050e5280610604528061069152806106d152806107c752806118ba52806119005280611974525080610c5a52806111b65280611a4f52506129946000f3fe6080604052600436106101125760003560e01c8063c04b8d59116100a5578063df2ab5bb11610074578063f28c049811610059578063f28c0498146102ce578063f3995c67146102e1578063fa461e33146102f457610196565b8063df2ab5bb146102a8578063e0e189a0146102bb57610196565b8063c04b8d591461025a578063c2e3140a1461026d578063c45a015514610280578063db3e21981461029557610196565b80634aa4a4fc116100e15780634aa4a4fc146101f25780639b2c0a3714610214578063a4a78f0c14610227578063ac9650d81461023a57610196565b806312210e8a1461019b578063414bf389146101a35780634659a494146101cc57806349404b7c146101df57610196565b3661019657336001600160a01b037f00000000000000000000000000000000000000000000000000000000000000001614610194576040805162461bcd60e51b815260206004820152600960248201527f4e6f742057455448390000000000000000000000000000000000000000000000604482015290519081900360640190fd5b005b600080fd5b610194610314565b6101b66101b13660046124ad565b610326565b6040516101c39190612861565b60405180910390f35b6101946101da36600461222b565b610457565b6101946101ed3660046125b4565b61050a565b3480156101fe57600080fd5b5061020761068f565b6040516101c391906126ce565b6101946102223660046125e3565b6106b3565b61019461023536600461222b565b61088a565b61024d61024836600461228b565b610952565b6040516101c39190612727565b6101b6610268366004612402565b610a92565b61019461027b36600461222b565b610bb0565b34801561028c57600080fd5b50610207610c58565b6101b66102a33660046124ad565b610c7c565b6101946102b636600461218c565b610dcb565b6101946102c93660046121cd565b610eb4565b6101b66102dc3660046124c9565b610fe6565b6101946102ef36600461222b565b6110e6565b34801561030057600080fd5b5061019461030f36600461231d565b611171565b4715610324576103243347611284565b565b600081608001358061033661138d565b1115610389576040805162461bcd60e51b815260206004820152601360248201527f5472616e73616374696f6e20746f6f206f6c6400000000000000000000000000604482015290519081900360640190fd5b61042260a08401356103a16080860160608701612169565b6103b2610100870160e08801612169565b60408051808201909152806103ca60208a018a612169565b6103da60608b0160408c01612591565b6103ea60408c0160208d01612169565b6040516020016103fc93929190612658565b6040516020818303038152906040528152602001336001600160a01b0316815250611391565b91508260c001358210156104515760405162461bcd60e51b8152600401610448906127ef565b60405180910390fd5b50919050565b604080517f8fcbaf0c00000000000000000000000000000000000000000000000000000000815233600482015230602482015260448101879052606481018690526001608482015260ff851660a482015260c4810184905260e4810183905290516001600160a01b03881691638fcbaf0c9161010480830192600092919082900301818387803b1580156104ea57600080fd5b505af11580156104fe573d6000803e3d6000fd5b50505050505050505050565b60007f00000000000000000000000000000000000000000000000000000000000000006001600160a01b03166370a08231306040518263ffffffff1660e01b815260040180826001600160a01b0316815260200191505060206040518083038186803b15801561057957600080fd5b505afa15801561058d573d6000803e3d6000fd5b505050506040513d60208110156105a357600080fd5b50519050828110156105fc576040805162461bcd60e51b815260206004820152601260248201527f496e73756666696369656e742057455448390000000000000000000000000000604482015290519081900360640190fd5b801561068a577f00000000000000000000000000000000000000000000000000000000000000006001600160a01b0316632e1a7d4d826040518263ffffffff1660e01b815260040180828152602001915050600060405180830381600087803b15801561066857600080fd5b505af115801561067c573d6000803e3d6000fd5b5050505061068a8282611284565b505050565b7f000000000000000000000000000000000000000000000000000000000000000081565b6000821180156106c4575060648211155b6106cd57600080fd5b60007f00000000000000000000000000000000000000000000000000000000000000006001600160a01b03166370a08231306040518263ffffffff1660e01b815260040180826001600160a01b0316815260200191505060206040518083038186803b15801561073c57600080fd5b505afa158015610750573d6000803e3d6000fd5b505050506040513d602081101561076657600080fd5b50519050848110156107bf576040805162461bcd60e51b815260206004820152601260248201527f496e73756666696369656e742057455448390000000000000000000000000000604482015290519081900360640190fd5b8015610883577f00000000000000000000000000000000000000000000000000000000000000006001600160a01b0316632e1a7d4d826040518263ffffffff1660e01b815260040180828152602001915050600060405180830381600087803b15801561082b57600080fd5b505af115801561083f573d6000803e3d6000fd5b50505050600061271061085b85846114e390919063ffffffff16565b8161086257fe5b0490508015610875576108758382611284565b61088185828403611284565b505b5050505050565b604080517fdd62ed3e00000000000000000000000000000000000000000000000000000000815233600482015230602482015290517fffffffffffffffffffffffffffffffffffffffffffffffffffffffffffffffff916001600160a01b0389169163dd62ed3e91604480820192602092909190829003018186803b15801561091257600080fd5b505afa158015610926573d6000803e3d6000fd5b505050506040513d602081101561093c57600080fd5b5051101561088157610881868686868686610457565b60608167ffffffffffffffff8111801561096b57600080fd5b5060405190808252806020026020018201604052801561099f57816020015b606081526020019060019003908161098a5790505b50905060005b82811015610a8b57600080308686858181106109bd57fe5b90506020028101906109cf919061286a565b6040516109dd9291906126be565b600060405180830381855af49150503d8060008114610a18576040519150601f19603f3d011682016040523d82523d6000602084013e610a1d565b606091505b509150915081610a6957604481511015610a3657600080fd5b60048101905080806020019051810190610a509190612398565b60405162461bcd60e51b815260040161044891906127a5565b80848481518110610a7657fe5b602090810291909101015250506001016109a5565b5092915050565b6000816040015180610aa261138d565b1115610af5576040805162461bcd60e51b815260206004820152601360248201527f5472616e73616374696f6e20746f6f206f6c6400000000000000000000000000604482015290519081900360640190fd5b335b6000610b06856000015161150d565b9050610b52856060015182610b1f578660200151610b21565b305b60006040518060400160405280610b3b8b60000151611519565b8152602001876001600160a01b0316815250611391565b60608601528015610b72578451309250610b6b90611528565b8552610b7f565b8460600151935050610b85565b50610af7565b8360800151831015610ba95760405162461bcd60e51b8152600401610448906127ef565b5050919050565b604080517fdd62ed3e000000000000000000000000000000000000000000000000000000008152336004820152306024820152905186916001600160a01b0389169163dd62ed3e91604480820192602092909190829003018186803b158015610c1857600080fd5b505afa158015610c2c573d6000803e3d6000fd5b505050506040513d6020811015610c4257600080fd5b50511015610881576108818686868686866110e6565b7f000000000000000000000000000000000000000000000000000000000000000081565b6000816080013580610c8c61138d565b1115610cdf576040805162461bcd60e51b815260206004820152601360248201527f5472616e73616374696f6e20746f6f206f6c6400000000000000000000000000604482015290519081900360640190fd5b610d7b60a0840135610cf76080860160608701612169565b610d08610100870160e08801612169565b6040518060400160405280886020016020810190610d269190612169565b610d3660608b0160408c01612591565b610d4360208c018c612169565b604051602001610d5593929190612658565b6040516020818303038152906040528152602001336001600160a01b031681525061155d565b91508260c00135821115610da15760405162461bcd60e51b8152600401610448906127b8565b507fffffffffffffffffffffffffffffffffffffffffffffffffffffffffffffffff600055919050565b6000836001600160a01b03166370a08231306040518263ffffffff1660e01b815260040180826001600160a01b0316815260200191505060206040518083038186803b158015610e1a57600080fd5b505afa158015610e2e573d6000803e3d6000fd5b505050506040513d6020811015610e4457600080fd5b5051905082811015610e9d576040805162461bcd60e51b815260206004820152601260248201527f496e73756666696369656e7420746f6b656e0000000000000000000000000000604482015290519081900360640190fd5b8015610eae57610eae8483836116d8565b50505050565b600082118015610ec5575060648211155b610ece57600080fd5b6000856001600160a01b03166370a08231306040518263ffffffff1660e01b815260040180826001600160a01b0316815260200191505060206040518083038186803b158015610f1d57600080fd5b505afa158015610f31573d6000803e3d6000fd5b505050506040513d6020811015610f4757600080fd5b5051905084811015610fa0576040805162461bcd60e51b815260206004820152601260248201527f496e73756666696369656e7420746f6b656e0000000000000000000000000000604482015290519081900360640190fd5b8015610881576000612710610fb583866114e3565b81610fbc57fe5b0490508015610fd057610fd08784836116d8565b610fdd87868385036116d8565b50505050505050565b6000816040013580610ff661138d565b1115611049576040805162461bcd60e51b815260206004820152601360248201527f5472616e73616374696f6e20746f6f206f6c6400000000000000000000000000604482015290519081900360640190fd5b6110bc60608401356110616040860160208701612169565b6040805180820190915260009080611079898061286a565b8080601f0160208091040260200160405190810160405280939291908181526020018383808284376000920191909152505050908252503360209091015261155d565b5060005491508260800135821115610da15760405162461bcd60e51b8152600401610448906127b8565b604080517fd505accf000000000000000000000000000000000000000000000000000000008152336004820152306024820152604481018790526064810186905260ff8516608482015260a4810184905260c4810183905290516001600160a01b0388169163d505accf9160e480830192600092919082900301818387803b1580156104ea57600080fd5b60008413806111805750600083135b61118957600080fd5b600061119782840184612501565b905060008060006111ab8460000151611868565b9250925092506111dd7f0000000000000000000000000000000000000000000000000000000000000000848484611899565b5060008060008a1361120457846001600160a01b0316846001600160a01b0316108961121b565b836001600160a01b0316856001600160a01b0316108a5b91509150811561123a5761123585876020015133846118b8565b6104fe565b85516112459061150d565b1561126a57855161125590611528565b8652611264813360008961155d565b506104fe565b806000819055508394506104fe85876020015133846118b8565b604080516000808252602082019092526001600160a01b0384169083906040518082805190602001908083835b602083106112d05780518252601f1990920191602091820191016112b1565b6001836020036101000a03801982511681845116808217855250505050505090500191505060006040518083038185875af1925050503d8060008114611332576040519150601f19603f3d011682016040523d82523d6000602084013e611337565b606091505b505090508061068a576040805162461bcd60e51b815260206004820152600360248201527f5354450000000000000000000000000000000000000000000000000000000000604482015290519081900360640190fd5b4290565b60006001600160a01b0384166113a5573093505b60008060006113b78560000151611868565b919450925090506001600160a01b03808316908416106000806113db868686611a48565b6001600160a01b031663128acb088b856113f48f611a86565b6001600160a01b038e1615611409578d61142f565b876114285773fffd8963efd1fc6a506488495d951d5263988d2561142f565b6401000276a45b8d6040516020016114409190612826565b6040516020818303038152906040526040518663ffffffff1660e01b815260040161146f9594939291906126e2565b6040805180830381600087803b15801561148857600080fd5b505af115801561149c573d6000803e3d6000fd5b505050506040513d601f19601f820116820180604052508101906114c091906122fa565b91509150826114cf57816114d1565b805b6000039b9a5050505050505050505050565b60008215806114fe575050818102818382816114fb57fe5b04145b61150757600080fd5b92915050565b8051604211155b919050565b6060611507826000602b611ab8565b80516060906115079083906017907fffffffffffffffffffffffffffffffffffffffffffffffffffffffffffffffe901611ab8565b60006001600160a01b038416611571573093505b60008060006115838560000151611868565b919450925090506001600160a01b03808416908316106000806115a7858786611a48565b6001600160a01b031663128acb088b856115c08f611a86565b6000036001600160a01b038e16156115d8578d6115fe565b876115f75773fffd8963efd1fc6a506488495d951d5263988d256115fe565b6401000276a45b8d60405160200161160f9190612826565b6040516020818303038152906040526040518663ffffffff1660e01b815260040161163e9594939291906126e2565b6040805180830381600087803b15801561165757600080fd5b505af115801561166b573d6000803e3d6000fd5b505050506040513d601f19601f8201168201806040525081019061168f91906122fa565b915091506000836116a45781836000036116aa565b82826000035b90985090506001600160a01b038a166116c9578b81146116c957600080fd5b50505050505050949350505050565b604080516001600160a01b038481166024830152604480830185905283518084039091018152606490920183526020820180517bffffffffffffffffffffffffffffffffffffffffffffffffffffffff167fa9059cbb000000000000000000000000000000000000000000000000000000001781529251825160009485949389169392918291908083835b602083106117825780518252601f199092019160209182019101611763565b6001836020036101000a0380198251168184511680821785525050505050509050019150506000604051808303816000865af19150503d80600081146117e4576040519150601f19603f3d011682016040523d82523d6000602084013e6117e9565b606091505b5091509150818015611817575080511580611817575080806020019051602081101561181457600080fd5b50515b610883576040805162461bcd60e51b815260206004820152600260248201527f5354000000000000000000000000000000000000000000000000000000000000604482015290519081900360640190fd5b600080806118768482611c33565b9250611883846014611cff565b9050611890846017611c33565b91509193909250565b60006118af856118aa868686611dbb565b611e11565b95945050505050565b7f00000000000000000000000000000000000000000000000000000000000000006001600160a01b0316846001600160a01b03161480156118f95750804710155b15611a1b577f00000000000000000000000000000000000000000000000000000000000000006001600160a01b031663d0e30db0826040518263ffffffff1660e01b81526004016000604051808303818588803b15801561195957600080fd5b505af115801561196d573d6000803e3d6000fd5b50505050507f00000000000000000000000000000000000000000000000000000000000000006001600160a01b031663a9059cbb83836040518363ffffffff1660e01b815260040180836001600160a01b0316815260200182815260200192505050602060405180830381600087803b1580156119e957600080fd5b505af11580156119fd573d6000803e3d6000fd5b505050506040513d6020811015611a1357600080fd5b50610eae9050565b6001600160a01b038316301415611a3c57611a378483836116d8565b610eae565b610eae84848484611e34565b6000611a7e7f0000000000000000000000000000000000000000000000000000000000000000611a79868686611dbb565b611fcc565b949350505050565b60007f80000000000000000000000000000000000000000000000000000000000000008210611ab457600080fd5b5090565b60608182601f011015611b12576040805162461bcd60e51b815260206004820152600e60248201527f736c6963655f6f766572666c6f77000000000000000000000000000000000000604482015290519081900360640190fd5b828284011015611b69576040805162461bcd60e51b815260206004820152600e60248201527f736c6963655f6f766572666c6f77000000000000000000000000000000000000604482015290519081900360640190fd5b81830184511015611bc1576040805162461bcd60e51b815260206004820152601160248201527f736c6963655f6f75744f66426f756e6473000000000000000000000000000000604482015290519081900360640190fd5b606082158015611be05760405191506000825260208201604052611c2a565b6040519150601f8416801560200281840101858101878315602002848b0101015b81831015611c19578051835260209283019201611c01565b5050858452601f01601f1916604052505b50949350505050565b600081826014011015611c8d576040805162461bcd60e51b815260206004820152601260248201527f746f416464726573735f6f766572666c6f770000000000000000000000000000604482015290519081900360640190fd5b8160140183511015611ce6576040805162461bcd60e51b815260206004820152601560248201527f746f416464726573735f6f75744f66426f756e64730000000000000000000000604482015290519081900360640190fd5b5001602001516c01000000000000000000000000900490565b600081826003011015611d59576040805162461bcd60e51b815260206004820152601160248201527f746f55696e7432345f6f766572666c6f77000000000000000000000000000000604482015290519081900360640190fd5b8160030183511015611db2576040805162461bcd60e51b815260206004820152601460248201527f746f55696e7432345f6f75744f66426f756e6473000000000000000000000000604482015290519081900360640190fd5b50016003015190565b611dc36120db565b826001600160a01b0316846001600160a01b03161115611de1579192915b50604080516060810182526001600160a01b03948516815292909316602083015262ffffff169181019190915290565b6000611e1d8383611fcc565b9050336001600160a01b0382161461150757600080fd5b604080516001600160a01b0385811660248301528481166044830152606480830185905283518084039091018152608490920183526020820180517bffffffffffffffffffffffffffffffffffffffffffffffffffffffff167f23b872dd00000000000000000000000000000000000000000000000000000000178152925182516000948594938a169392918291908083835b60208310611ee65780518252601f199092019160209182019101611ec7565b6001836020036101000a0380198251168184511680821785525050505050509050019150506000604051808303816000865af19150503d8060008114611f48576040519150601f19603f3d011682016040523d82523d6000602084013e611f4d565b606091505b5091509150818015611f7b575080511580611f7b5750808060200190516020811015611f7857600080fd5b50515b610881576040805162461bcd60e51b815260206004820152600360248201527f5354460000000000000000000000000000000000000000000000000000000000604482015290519081900360640190fd5b600081602001516001600160a01b031682600001516001600160a01b031610611ff457600080fd5b50805160208083015160409384015184516001600160a01b0394851681850152939091168385015262ffffff166060808401919091528351808403820181526080840185528051908301207fff0000000000000000000000000000000000000000000000000000000000000060a085015294901b7fffffffffffffffffffffffffffffffffffffffff0000000000000000000000001660a183015260b58201939093527fe34f199b19b2b4f47f68442619d555527d244f78a3297ea89325f843f87b8b5460d5808301919091528251808303909101815260f5909101909152805191012090565b604080516060810182526000808252602082018190529181019190915290565b803561151481612946565b600082601f830112612116578081fd5b8135612129612124826128f8565b6128d4565b81815284602083860101111561213d578283fd5b816020850160208301379081016020019190915292915050565b60006101008284031215610451578081fd5b60006020828403121561217a578081fd5b813561218581612946565b9392505050565b6000806000606084860312156121a0578182fd5b83356121ab81612946565b92506020840135915060408401356121c281612946565b809150509250925092565b600080600080600060a086880312156121e4578081fd5b85356121ef81612946565b945060208601359350604086013561220681612946565b925060608601359150608086013561221d81612946565b809150509295509295909350565b60008060008060008060c08789031215612243578081fd5b863561224e81612946565b95506020870135945060408701359350606087013560ff81168114612271578182fd5b9598949750929560808101359460a0909101359350915050565b6000806020838503121561229d578182fd5b823567ffffffffffffffff808211156122b4578384fd5b818501915085601f8301126122c7578384fd5b8135818111156122d5578485fd5b86602080830285010111156122e8578485fd5b60209290920196919550909350505050565b6000806040838503121561230c578182fd5b505080516020909101519092909150565b60008060008060608587031215612332578182fd5b8435935060208501359250604085013567ffffffffffffffff80821115612357578384fd5b818701915087601f83011261236a578384fd5b813581811115612378578485fd5b886020828501011115612389578485fd5b95989497505060200194505050565b6000602082840312156123a9578081fd5b815167ffffffffffffffff8111156123bf578182fd5b8201601f810184136123cf578182fd5b80516123dd612124826128f8565b8181528560208385010111156123f1578384fd5b6118af82602083016020860161291a565b600060208284031215612413578081fd5b813567ffffffffffffffff8082111561242a578283fd5b9083019060a0828603121561243d578283fd5b60405160a08101818110838211171561245257fe5b604052823582811115612463578485fd5b61246f87828601612106565b82525061247e602084016120fb565b602082015260408301356040820152606083013560608201526080830135608082015280935050505092915050565b600061010082840312156124bf578081fd5b6121858383612157565b6000602082840312156124da578081fd5b813567ffffffffffffffff8111156124f0578182fd5b820160a08185031215612185578182fd5b600060208284031215612512578081fd5b813567ffffffffffffffff80821115612529578283fd5b908301906040828603121561253c578283fd5b60405160408101818110838211171561255157fe5b604052823582811115612562578485fd5b61256e87828601612106565b8252506020830135925061258183612946565b6020810192909252509392505050565b6000602082840312156125a2578081fd5b813562ffffff81168114612185578182fd5b600080604083850312156125c6578182fd5b8235915060208301356125d881612946565b809150509250929050565b600080600080608085870312156125f8578182fd5b84359350602085013561260a81612946565b925060408501359150606085013561262181612946565b939692955090935050565b6000815180845261264481602086016020860161291a565b601f01601f19169290920160200192915050565b606093841b7fffffffffffffffffffffffffffffffffffffffff000000000000000000000000908116825260e89390931b7fffffff0000000000000000000000000000000000000000000000000000000000166014820152921b166017820152602b0190565b6000828483379101908152919050565b6001600160a01b0391909116815260200190565b60006001600160a01b038088168352861515602084015285604084015280851660608401525060a0608083015261271c60a083018461262c565b979650505050505050565b6000602080830181845280855180835260408601915060408482028701019250838701855b82811015612798577fffffffffffffffffffffffffffffffffffffffffffffffffffffffffffffffc088860301845261278685835161262c565b9450928501929085019060010161274c565b5092979650505050505050565b600060208252612185602083018461262c565b60208082526012908201527f546f6f206d756368207265717565737465640000000000000000000000000000604082015260600190565b60208082526013908201527f546f6f206c6974746c6520726563656976656400000000000000000000000000604082015260600190565b600060208252825160406020840152612842606084018261262c565b90506001600160a01b0360208501511660408401528091505092915050565b90815260200190565b60008083357fffffffffffffffffffffffffffffffffffffffffffffffffffffffffffffffe184360301811261289e578283fd5b83018035915067ffffffffffffffff8211156128b8578283fd5b6020019150368190038213156128cd57600080fd5b9250929050565b60405181810167ffffffffffffffff811182821017156128f057fe5b604052919050565b600067ffffffffffffffff82111561290c57fe5b50601f01601f191660200190565b60005b8381101561293557818101518382015260200161291d565b83811115610eae5750506000910152565b6001600160a01b038116811461295b57600080fd5b5056fea26469706673582212204e5e7f01222c3594e23ca59483f20e8955bfcf2b7fd59bc44d47db53d6ef5cf664736f6c63430007060033",
  "linkReferences": {},
  "deployedLinkReferences": {}
}