{
  "_format": "hh-sol-artifact-1",
  "contractName": "UniswapV3Pool",
  "sourceName": "contracts/UniswapV3Pool.sol",
  "abi": [
    {
      "inputs": [],
      "stateMutability": "nonpayable",
      "type": "constructor"
    },
    {
      "anonymous": false,
      "inputs": [
        {
          "indexed": true,
          "internalType": "address",
          "name": "owner",
          "type": "address"
        },
        {
          "indexed": true,
          "internalType": "int24",
          "name": "tickLower",
          "type": "int24"
        },
        {
          "indexed": true,
          "internalType": "int24",
          "name": "tickUpper",
          "type": "int24"
        },
        {
          "indexed": false,
          "internalType": "uint128",
          "name": "amount",
          "type": "uint128"
        },
        {
          "indexed": false,
          "internalType": "uint256",
          "name": "amount0",
          "type": "uint256"
        },
        {
          "indexed": false,
          "internalType": "uint256",
          "name": "amount1",
          "type": "uint256"
        }
      ],
      "name": "Burn",
      "type": "event"
    },
    {
      "anonymous": false,
      "inputs": [
        {
          "indexed": true,
          "internalType": "address",
          "name": "owner",
          "type": "address"
        },
        {
          "indexed": false,
          "internalType": "address",
          "name": "recipient",
          "type": "address"
        },
        {
          "indexed": true,
          "internalType": "int24",
          "name": "tickLower",
          "type": "int24"
        },
        {
          "indexed": true,
          "internalType": "int24",
          "name": "tickUpper",
          "type": "int24"
        },
        {
          "indexed": false,
          "internalType": "uint128",
          "name": "amount0",
          "type": "uint128"
        },
        {
          "indexed": false,
          "internalType": "uint128",
          "name": "amount1",
          "type": "uint128"
        }
      ],
      "name": "Collect",
      "type": "event"
    },
    {
      "anonymous": false,
      "inputs": [
        {
          "indexed": true,
          "internalType": "address",
          "name": "sender",
          "type": "address"
        },
        {
          "indexed": true,
          "internalType": "address",
          "name": "recipient",
          "type": "address"
        },
        {
          "indexed": false,
          "internalType": "uint128",
          "name": "amount0",
          "type": "uint128"
        },
        {
          "indexed": false,
          "internalType": "uint128",
          "name": "amount1",
          "type": "uint128"
        }
      ],
      "name": "CollectProtocol",
      "type": "event"
    },
    {
      "anonymous": false,
      "inputs": [
        {
          "indexed": true,
          "internalType": "address",
          "name": "sender",
          "type": "address"
        },
        {
          "indexed": true,
          "internalType": "address",
          "name": "recipient",
          "type": "address"
        },
        {
          "indexed": false,
          "internalType": "uint256",
          "name": "amount0",
          "type": "uint256"
        },
        {
          "indexed": false,
          "internalType": "uint256",
          "name": "amount1",
          "type": "uint256"
        },
        {
          "indexed": false,
          "internalType": "uint256",
          "name": "paid0",
          "type": "uint256"
        },
        {
          "indexed": false,
          "internalType": "uint256",
          "name": "paid1",
          "type": "uint256"
        }
      ],
      "name": "Flash",
      "type": "event"
    },
    {
      "anonymous": false,
      "inputs": [
        {
          "indexed": false,
          "internalType": "uint16",
          "name": "observationCardinalityNextOld",
          "type": "uint16"
        },
        {
          "indexed": false,
          "internalType": "uint16",
          "name": "observationCardinalityNextNew",
          "type": "uint16"
        }
      ],
      "name": "IncreaseObservationCardinalityNext",
      "type": "event"
    },
    {
      "anonymous": false,
      "inputs": [
        {
          "indexed": false,
          "internalType": "uint160",
          "name": "sqrtPriceX96",
          "type": "uint160"
        },
        {
          "indexed": false,
          "internalType": "int24",
          "name": "tick",
          "type": "int24"
        }
      ],
      "name": "Initialize",
      "type": "event"
    },
    {
      "anonymous": false,
      "inputs": [
        {
          "indexed": false,
          "internalType": "address",
          "name": "sender",
          "type": "address"
        },
        {
          "indexed": true,
          "internalType": "address",
          "name": "owner",
          "type": "address"
        },
        {
          "indexed": true,
          "internalType": "int24",
          "name": "tickLower",
          "type": "int24"
        },
        {
          "indexed": true,
          "internalType": "int24",
          "name": "tickUpper",
          "type": "int24"
        },
        {
          "indexed": false,
          "internalType": "uint128",
          "name": "amount",
          "type": "uint128"
        },
        {
          "indexed": false,
          "internalType": "uint256",
          "name": "amount0",
          "type": "uint256"
        },
        {
          "indexed": false,
          "internalType": "uint256",
          "name": "amount1",
          "type": "uint256"
        }
      ],
      "name": "Mint",
      "type": "event"
    },
    {
      "anonymous": false,
      "inputs": [
        {
          "indexed": false,
          "internalType": "uint8",
          "name": "feeProtocol0Old",
          "type": "uint8"
        },
        {
          "indexed": false,
          "internalType": "uint8",
          "name": "feeProtocol1Old",
          "type": "uint8"
        },
        {
          "indexed": false,
          "internalType": "uint8",
          "name": "feeProtocol0New",
          "type": "uint8"
        },
        {
          "indexed": false,
          "internalType": "uint8",
          "name": "feeProtocol1New",
          "type": "uint8"
        }
      ],
      "name": "SetFeeProtocol",
      "type": "event"
    },
    {
      "anonymous": false,
      "inputs": [
        {
          "indexed": true,
          "internalType": "address",
          "name": "sender",
          "type": "address"
        },
        {
          "indexed": true,
          "internalType": "address",
          "name": "recipient",
          "type": "address"
        },
        {
          "indexed": false,
          "internalType": "int256",
          "name": "amount0",
          "type": "int256"
        },
        {
          "indexed": false,
          "internalType": "int256",
          "name": "amount1",
          "type": "int256"
        },
        {
          "indexed": false,
          "internalType": "uint160",
          "name": "sqrtPriceX96",
          "type": "uint160"
        },
        {
          "indexed": false,
          "internalType": "uint128",
          "name": "liquidity",
          "type": "uint128"
        },
        {
          "indexed": false,
          "internalType": "int24",
          "name": "tick",
          "type": "int24"
        }
      ],
      "name": "Swap",
      "type": "event"
    },
    {
      "inputs": [
        {
          "internalType": "int24",
          "name": "tickLower",
          "type": "int24"
        },
        {
          "internalType": "int24",
          "name": "tickUpper",
          "type": "int24"
        },
        {
          "internalType": "uint128",
          "name": "amount",
          "type": "uint128"
        }
      ],
      "name": "burn",
      "outputs": [
        {
          "internalType": "uint256",
          "name": "amount0",
          "type": "uint256"
        },
        {
          "internalType": "uint256",
          "name": "amount1",
          "type": "uint256"
        }
      ],
      "stateMutability": "nonpayable",
      "type": "function"
    },
    {
      "inputs": [
        {
          "internalType": "address",
          "name": "recipient",
          "type": "address"
        },
        {
          "internalType": "int24",
          "name": "tickLower",
          "type": "int24"
        },
        {
          "internalType": "int24",
          "name": "tickUpper",
          "type": "int24"
        },
        {
          "internalType": "uint128",
          "name": "amount0Requested",
          "type": "uint128"
        },
        {
          "internalType": "uint128",
          "name": "amount1Requested",
          "type": "uint128"
        }
      ],
      "name": "collect",
      "outputs": [
        {
          "internalType": "uint128",
          "name": "amount0",
          "type": "uint128"
        },
        {
          "internalType": "uint128",
          "name": "amount1",
          "type": "uint128"
        }
      ],
      "stateMutability": "nonpayable",
      "type": "function"
    },
    {
      "inputs": [
        {
          "internalType": "address",
          "name": "recipient",
          "type": "address"
        },
        {
          "internalType": "uint128",
          "name": "amount0Requested",
          "type": "uint128"
        },
        {
          "internalType": "uint128",
          "name": "amount1Requested",
          "type": "uint128"
        }
      ],
      "name": "collectProtocol",
      "outputs": [
        {
          "internalType": "uint128",
          "name": "amount0",
          "type": "uint128"
        },
        {
          "internalType": "uint128",
          "name": "amount1",
          "type": "uint128"
        }
      ],
      "stateMutability": "nonpayable",
      "type": "function"
    },
    {
      "inputs": [],
      "name": "factory",
      "outputs": [
        {
          "internalType": "address",
          "name": "",
          "type": "address"
        }
      ],
      "stateMutability": "view",
      "type": "function"
    },
    {
      "inputs": [],
      "name": "fee",
      "outputs": [
        {
          "internalType": "uint24",
          "name": "",
          "type": "uint24"
        }
      ],
      "stateMutability": "view",
      "type": "function"
    },
    {
      "inputs": [],
      "name": "feeGrowthGlobal0X128",
      "outputs": [
        {
          "internalType": "uint256",
          "name": "",
          "type": "uint256"
        }
      ],
      "stateMutability": "view",
      "type": "function"
    },
    {
      "inputs": [],
      "name": "feeGrowthGlobal1X128",
      "outputs": [
        {
          "internalType": "uint256",
          "name": "",
          "type": "uint256"
        }
      ],
      "stateMutability": "view",
      "type": "function"
    },
    {
      "inputs": [
        {
          "internalType": "address",
          "name": "recipient",
          "type": "address"
        },
        {
          "internalType": "uint256",
          "name": "amount0",
          "type": "uint256"
        },
        {
          "internalType": "uint256",
          "name": "amount1",
          "type": "uint256"
        },
        {
          "internalType": "bytes",
          "name": "data",
          "type": "bytes"
        }
      ],
      "name": "flash",
      "outputs": [],
      "stateMutability": "nonpayable",
      "type": "function"
    },
    {
      "inputs": [
        {
          "internalType": "uint16",
          "name": "observationCardinalityNext",
          "type": "uint16"
        }
      ],
      "name": "increaseObservationCardinalityNext",
      "outputs": [],
      "stateMutability": "nonpayable",
      "type": "function"
    },
    {
      "inputs": [
        {
          "internalType": "uint160",
          "name": "sqrtPriceX96",
          "type": "uint160"
        }
      ],
      "name": "initialize",
      "outputs": [],
      "stateMutability": "nonpayable",
      "type": "function"
    },
    {
      "inputs": [],
      "name": "liquidity",
      "outputs": [
        {
          "internalType": "uint128",
          "name": "",
          "type": "uint128"
        }
      ],
      "stateMutability": "view",
      "type": "function"
    },
    {
      "inputs": [],
      "name": "maxLiquidityPerTick",
      "outputs": [
        {
          "internalType": "uint128",
          "name": "",
          "type": "uint128"
        }
      ],
      "stateMutability": "view",
      "type": "function"
    },
    {
      "inputs": [
        {
          "internalType": "address",
          "name": "recipient",
          "type": "address"
        },
        {
          "internalType": "int24",
          "name": "tickLower",
          "type": "int24"
        },
        {
          "internalType": "int24",
          "name": "tickUpper",
          "type": "int24"
        },
        {
          "internalType": "uint128",
          "name": "amount",
          "type": "uint128"
        },
        {
          "internalType": "bytes",
          "name": "data",
          "type": "bytes"
        }
      ],
      "name": "mint",
      "outputs": [
        {
          "internalType": "uint256",
          "name": "amount0",
          "type": "uint256"
        },
        {
          "internalType": "uint256",
          "name": "amount1",
          "type": "uint256"
        }
      ],
      "stateMutability": "nonpayable",
      "type": "function"
    },
    {
      "inputs": [
        {
          "internalType": "uint256",
          "name": "",
          "type": "uint256"
        }
      ],
      "name": "observations",
      "outputs": [
        {
          "internalType": "uint32",
          "name": "blockTimestamp",
          "type": "uint32"
        },
        {
          "internalType": "int56",
          "name": "tickCumulative",
          "type": "int56"
        },
        {
          "internalType": "uint160",
          "name": "secondsPerLiquidityCumulativeX128",
          "type": "uint160"
        },
        {
          "internalType": "bool",
          "name": "initialized",
          "type": "bool"
        }
      ],
      "stateMutability": "view",
      "type": "function"
    },
    {
      "inputs": [
        {
          "internalType": "uint32[]",
          "name": "secondsAgos",
          "type": "uint32[]"
        }
      ],
      "name": "observe",
      "outputs": [
        {
          "internalType": "int56[]",
          "name": "tickCumulatives",
          "type": "int56[]"
        },
        {
          "internalType": "uint160[]",
          "name": "secondsPerLiquidityCumulativeX128s",
          "type": "uint160[]"
        }
      ],
      "stateMutability": "view",
      "type": "function"
    },
    {
      "inputs": [
        {
          "internalType": "bytes32",
          "name": "",
          "type": "bytes32"
        }
      ],
      "name": "positions",
      "outputs": [
        {
          "internalType": "uint128",
          "name": "liquidity",
          "type": "uint128"
        },
        {
          "internalType": "uint256",
          "name": "feeGrowthInside0LastX128",
          "type": "uint256"
        },
        {
          "internalType": "uint256",
          "name": "feeGrowthInside1LastX128",
          "type": "uint256"
        },
        {
          "internalType": "uint128",
          "name": "tokensOwed0",
          "type": "uint128"
        },
        {
          "internalType": "uint128",
          "name": "tokensOwed1",
          "type": "uint128"
        }
      ],
      "stateMutability": "view",
      "type": "function"
    },
    {
      "inputs": [],
      "name": "protocolFees",
      "outputs": [
        {
          "internalType": "uint128",
          "name": "token0",
          "type": "uint128"
        },
        {
          "internalType": "uint128",
          "name": "token1",
          "type": "uint128"
        }
      ],
      "stateMutability": "view",
      "type": "function"
    },
    {
      "inputs": [
        {
          "internalType": "uint8",
          "name": "feeProtocol0",
          "type": "uint8"
        },
        {
          "internalType": "uint8",
          "name": "feeProtocol1",
          "type": "uint8"
        }
      ],
      "name": "setFeeProtocol",
      "outputs": [],
      "stateMutability": "nonpayable",
      "type": "function"
    },
    {
      "inputs": [],
      "name": "slot0",
      "outputs": [
        {
          "internalType": "uint160",
          "name": "sqrtPriceX96",
          "type": "uint160"
        },
        {
          "internalType": "int24",
          "name": "tick",
          "type": "int24"
        },
        {
          "internalType": "uint16",
          "name": "observationIndex",
          "type": "uint16"
        },
        {
          "internalType": "uint16",
          "name": "observationCardinality",
          "type": "uint16"
        },
        {
          "internalType": "uint16",
          "name": "observationCardinalityNext",
          "type": "uint16"
        },
        {
          "internalType": "uint8",
          "name": "feeProtocol",
          "type": "uint8"
        },
        {
          "internalType": "bool",
          "name": "unlocked",
          "type": "bool"
        }
      ],
      "stateMutability": "view",
      "type": "function"
    },
    {
      "inputs": [
        {
          "internalType": "int24",
          "name": "tickLower",
          "type": "int24"
        },
        {
          "internalType": "int24",
          "name": "tickUpper",
          "type": "int24"
        }
      ],
      "name": "snapshotCumulativesInside",
      "outputs": [
        {
          "internalType": "int56",
          "name": "tickCumulativeInside",
          "type": "int56"
        },
        {
          "internalType": "uint160",
          "name": "secondsPerLiquidityInsideX128",
          "type": "uint160"
        },
        {
          "internalType": "uint32",
          "name": "secondsInside",
          "type": "uint32"
        }
      ],
      "stateMutability": "view",
      "type": "function"
    },
    {
      "inputs": [
        {
          "internalType": "address",
          "name": "recipient",
          "type": "address"
        },
        {
          "internalType": "bool",
          "name": "zeroForOne",
          "type": "bool"
        },
        {
          "internalType": "int256",
          "name": "amountSpecified",
          "type": "int256"
        },
        {
          "internalType": "uint160",
          "name": "sqrtPriceLimitX96",
          "type": "uint160"
        },
        {
          "internalType": "bytes",
          "name": "data",
          "type": "bytes"
        }
      ],
      "name": "swap",
      "outputs": [
        {
          "internalType": "int256",
          "name": "amount0",
          "type": "int256"
        },
        {
          "internalType": "int256",
          "name": "amount1",
          "type": "int256"
        }
      ],
      "stateMutability": "nonpayable",
      "type": "function"
    },
    {
      "inputs": [
        {
          "internalType": "int16",
          "name": "",
          "type": "int16"
        }
      ],
      "name": "tickBitmap",
      "outputs": [
        {
          "internalType": "uint256",
          "name": "",
          "type": "uint256"
        }
      ],
      "stateMutability": "view",
      "type": "function"
    },
    {
      "inputs": [],
      "name": "tickSpacing",
      "outputs": [
        {
          "internalType": "int24",
          "name": "",
          "type": "int24"
        }
      ],
      "stateMutability": "view",
      "type": "function"
    },
    {
      "inputs": [
        {
          "internalType": "int24",
          "name": "",
          "type": "int24"
        }
      ],
      "name": "ticks",
      "outputs": [
        {
          "internalType": "uint128",
          "name": "liquidityGross",
          "type": "uint128"
        },
        {
          "internalType": "int128",
          "name": "liquidityNet",
          "type": "int128"
        },
        {
          "internalType": "uint256",
          "name": "feeGrowthOutside0X128",
          "type": "uint256"
        },
        {
          "internalType": "uint256",
          "name": "feeGrowthOutside1X128",
          "type": "uint256"
        },
        {
          "internalType": "int56",
          "name": "tickCumulativeOutside",
          "type": "int56"
        },
        {
          "internalType": "uint160",
          "name": "secondsPerLiquidityOutsideX128",
          "type": "uint160"
        },
        {
          "internalType": "uint32",
          "name": "secondsOutside",
          "type": "uint32"
        },
        {
          "internalType": "bool",
          "name": "initialized",
          "type": "bool"
        }
      ],
      "stateMutability": "view",
      "type": "function"
    },
    {
      "inputs": [],
      "name": "token0",
      "outputs": [
        {
          "internalType": "address",
          "name": "",
          "type": "address"
        }
      ],
      "stateMutability": "view",
      "type": "function"
    },
    {
      "inputs": [],
      "name": "token1",
      "outputs": [
        {
          "internalType": "address",
          "name": "",
          "type": "address"
        }
      ],
      "stateMutability": "view",
      "type": "function"
    }
  ],
  "bytecode": "0x6101606040523480156200001257600080fd5b503060601b60805260408051630890357360e41b81529051600091339163890357309160048082019260a092909190829003018186803b1580156200005657600080fd5b505afa1580156200006b573d6000803e3d6000fd5b505050506040513d60a08110156200008257600080fd5b508051602080830151604084015160608086015160809096015160e896871b6001600160e81b0319166101005291811b6001600160601b031990811660e05292811b831660c0529390931b1660a052600282810b900b90921b610120529150620000f79082906200010f811b6200333517901c565b60801b6001600160801b03191661014052506200017d565b60008082600281900b620d89e719816200012557fe5b05029050600083600281900b620d89e8816200013d57fe5b0502905060008460020b83830360020b816200015557fe5b0560010190508062ffffff166001600160801b038016816200017357fe5b0495945050505050565b60805160601c60a05160601c60c05160601c60e05160601c6101005160e81c6101205160e81c6101405160801c6164846200024a600039806124c9528061588152806158b8525080610cd75280612ffe52806158ec528061591e525080610dfe5280611dbf5280611df652806130465250806113865280611e7952806123b452806129f95280613022528061485f5250806108d252806114ce5280611e48528061234e528061297352806146ca5250806125a452806128295280612fda5250806133c852506164846000f3fe608060405234801561001057600080fd5b50600436106101ae5760003560e01c806370cf754a116100ee578063c45a015511610097578063ddca3f4311610071578063ddca3f4314610800578063f305839914610820578063f30dba9314610828578063f637731d146108aa576101ae565b8063c45a0155146107d1578063d0c93a7c146107d9578063d21220a7146107f8576101ae565b8063883bdbfd116100c8578063883bdbfd14610633578063a34123a71461073c578063a38807f214610776576101ae565b806370cf754a146105c65780638206a4d1146105ce57806385b66729146105f6576101ae565b80633850c7bd1161015b578063490e6cbc11610135578063490e6cbc146104705780634f1eb3d8146104fc578063514ea4bf1461054d5780635339c296146105a6576101ae565b80633850c7bd1461035b5780633c8a7d8d146103b45780634614131914610456576101ae565b80631ad8b03b1161018c5780631ad8b03b146102aa578063252c09d7146102e157806332148f6714610338576101ae565b80630dfe1681146101b3578063128acb08146101d75780631a68650214610286575b600080fd5b6101bb6108d0565b604080516001600160a01b039092168252519081900360200190f35b61026d600480360360a08110156101ed57600080fd5b6001600160a01b0382358116926020810135151592604082013592606083013516919081019060a08101608082013564010000000081111561022e57600080fd5b82018360208201111561024057600080fd5b8035906020019184600183028401116401000000008311171561026257600080fd5b5090925090506108f4565b6040805192835260208301919091528051918290030190f35b61028e6116bb565b604080516001600160801b039092168252519081900360200190f35b6102b26116ca565b60405180836001600160801b03168152602001826001600160801b031681526020019250505060405180910390f35b6102fe600480360360208110156102f757600080fd5b50356116e4565b6040805163ffffffff909516855260069390930b60208501526001600160a01b039091168383015215156060830152519081900360800190f35b6103596004803603602081101561034e57600080fd5b503561ffff16611732565b005b6103636118c6565b604080516001600160a01b03909816885260029690960b602088015261ffff9485168787015292841660608701529216608085015260ff90911660a0840152151560c0830152519081900360e00190f35b61026d600480360360a08110156103ca57600080fd5b6001600160a01b03823516916020810135600290810b92604083013590910b916001600160801b036060820135169181019060a08101608082013564010000000081111561041757600080fd5b82018360208201111561042957600080fd5b8035906020019184600183028401116401000000008311171561044b57600080fd5b509092509050611983565b61045e611cc5565b60408051918252519081900360200190f35b6103596004803603608081101561048657600080fd5b6001600160a01b0382351691602081013591604082013591908101906080810160608201356401000000008111156104bd57600080fd5b8201836020820111156104cf57600080fd5b803590602001918460018302840111640100000000831117156104f157600080fd5b509092509050611ccb565b6102b2600480360360a081101561051257600080fd5b506001600160a01b03813516906020810135600290810b91604081013590910b906001600160801b0360608201358116916080013516612205565b61056a6004803603602081101561056357600080fd5b5035612478565b604080516001600160801b0396871681526020810195909552848101939093529084166060840152909216608082015290519081900360a00190f35b61045e600480360360208110156105bc57600080fd5b503560010b6124b5565b61028e6124c7565b610359600480360360408110156105e457600080fd5b5060ff813581169160200135166124eb565b6102b26004803603606081101561060c57600080fd5b506001600160a01b03813516906001600160801b036020820135811691604001351661276d565b6106a36004803603602081101561064957600080fd5b81019060208101813564010000000081111561066457600080fd5b82018360208201111561067657600080fd5b8035906020019184602083028401116401000000008311171561069857600080fd5b509092509050612aac565b604051808060200180602001838103835285818151815260200191508051906020019060200280838360005b838110156106e75781810151838201526020016106cf565b50505050905001838103825284818151815260200191508051906020019060200280838360005b8381101561072657818101518382015260200161070e565b5050505090500194505050505060405180910390f35b61026d6004803603606081101561075257600080fd5b508035600290810b91602081013590910b90604001356001600160801b0316612b74565b6107a06004803603604081101561078c57600080fd5b508035600290810b9160200135900b612d44565b6040805160069490940b84526001600160a01b03909216602084015263ffffffff1682820152519081900360600190f35b6101bb612fd8565b6107e1612ffc565b6040805160029290920b8252519081900360200190f35b6101bb613020565b610808613044565b6040805162ffffff9092168252519081900360200190f35b61045e613068565b6108486004803603602081101561083e57600080fd5b503560020b61306e565b604080516001600160801b039099168952600f9790970b602089015287870195909552606087019390935260069190910b60808601526001600160a01b031660a085015263ffffffff1660c0840152151560e083015251908190036101000190f35b610359600480360360208110156108c057600080fd5b50356001600160a01b03166130f4565b7f000000000000000000000000000000000000000000000000000000000000000081565b6000806108ff6133bd565b85610951576040805162461bcd60e51b815260206004820152600260248201527f4153000000000000000000000000000000000000000000000000000000000000604482015290519081900360640190fd5b6040805160e0810182526000546001600160a01b0381168252740100000000000000000000000000000000000000008104600290810b810b900b602083015261ffff7701000000000000000000000000000000000000000000000082048116938301939093527901000000000000000000000000000000000000000000000000008104831660608301527b010000000000000000000000000000000000000000000000000000008104909216608082015260ff7d0100000000000000000000000000000000000000000000000000000000008304811660a0830152600160f01b909204909116151560c08201819052610a91576040805162461bcd60e51b815260206004820152600360248201527f4c4f4b0000000000000000000000000000000000000000000000000000000000604482015290519081900360640190fd5b87610adc5780600001516001600160a01b0316866001600160a01b0316118015610ad7575073fffd8963efd1fc6a506488495d951d5263988d266001600160a01b038716105b610b0e565b80600001516001600160a01b0316866001600160a01b0316108015610b0e57506401000276a36001600160a01b038716115b610b5f576040805162461bcd60e51b815260206004820152600360248201527f53504c0000000000000000000000000000000000000000000000000000000000604482015290519081900360640190fd5b600080547fff00ffffffffffffffffffffffffffffffffffffffffffffffffffffffffffff1681556040805160c08101909152808a610ba95760048460a0015160ff16901c610bbc565b60108460a0015160ff1681610bba57fe5b065b60ff1681526004546001600160801b03166020820152604001610bdd6133f4565b63ffffffff168152602001600060060b815260200160006001600160a01b031681526020016000151581525090506000808913905060006040518060e001604052808b81526020016000815260200185600001516001600160a01b03168152602001856020015160020b81526020018c610c5957600254610c5d565b6001545b815260200160006001600160801b0316815260200184602001516001600160801b031681525090505b805115801590610cac5750886001600160a01b031681604001516001600160a01b031614155b156110ae57610cb96163eb565b60408201516001600160a01b031681526060820151610cfc906006907f00000000000000000000000000000000000000000000000000000000000000008f6133f8565b15156040830152600290810b810b602083018190527ffffffffffffffffffffffffffffffffffffffffffffffffffffffffffff27618910b1215610d65577ffffffffffffffffffffffffffffffffffffffffffffffffffffffffffff276186020820152610d84565b6020810151620d89e860029190910b1315610d8457620d89e860208201525b610d91816020015161353a565b6001600160a01b031660608201526040820151610e22908d610dcb578b6001600160a01b031683606001516001600160a01b031611610de5565b8b6001600160a01b031683606001516001600160a01b0316105b610df3578260600151610df5565b8b5b60c085015185517f0000000000000000000000000000000000000000000000000000000000000000613888565b60c085015260a084015260808301526001600160a01b031660408301528215610e8457610e588160c00151826080015101613a7a565b825103825260a0810151610e7a90610e6f90613a7a565b602084015190613aac565b6020830152610ebf565b610e918160a00151613a7a565b825101825260c08101516080820151610eb991610eae9101613a7a565b602084015190613ac8565b60208301525b835160ff1615610f05576000846000015160ff168260c0015181610edf57fe5b60c0840180519290910491829003905260a0840180519091016001600160801b03169052505b60c08201516001600160801b031615610f4457610f388160c00151600160801b8460c001516001600160801b0316613ade565b60808301805190910190525b80606001516001600160a01b031682604001516001600160a01b0316141561106d57806040015115611044578360a00151610fce57610fac846040015160008760200151886040015188602001518a606001516008613b8e909695949392919063ffffffff16565b6001600160a01b03166080860152600690810b900b6060850152600160a08501525b600061101a82602001518e610fe557600154610feb565b84608001515b8f610ffa578560800151610ffe565b6002545b608089015160608a015160408b01516005959493929190613d29565b90508c15611026576000035b6110348360c0015182613e44565b6001600160801b031660c0840152505b8b61105357806020015161105c565b60018160200151035b600290810b900b60608301526110a8565b80600001516001600160a01b031682604001516001600160a01b0316146110a85761109b8260400151613f30565b600290810b900b60608301525b50610c86565b836020015160020b816060015160020b1461121c576000806110fc86604001518660400151886020015188602001518a606001518b6080015160086142a5909695949392919063ffffffff16565b60408501516060860151600080547fffffffffff0000ffffffffffffffffffffffffffffffffffffffffffffffffff1679010000000000000000000000000000000000000000000000000061ffff95861602177fffffffffffffff0000ffffffffffffffffffffffffffffffffffffffffffffff16770100000000000000000000000000000000000000000000009590941694909402929092177fffffffffffffffffff000000ffffffffffffffffffffffffffffffffffffffff167401000000000000000000000000000000000000000062ffffff60029490940b9390931692909202919091177fffffffffffffffffffffffff0000000000000000000000000000000000000000166001600160a01b03909116179055506112599050565b6040810151600080547fffffffffffffffffffffffff0000000000000000000000000000000000000000166001600160a01b039092169190911790555b8060c001516001600160801b031683602001516001600160801b0316146112a85760c0810151600480546fffffffffffffffffffffffffffffffff19166001600160801b039092169190911790555b8a1561130157608081015160015560a08101516001600160801b0316156112fc5760a0810151600380546fffffffffffffffffffffffffffffffff1981166001600160801b03918216909301169190911790555b611347565b608081015160025560a08101516001600160801b0316156113475760a0810151600380546001600160801b03808216600160801b92839004821690940116029190911790555b8115158b15151461136057602081015181518b0361136d565b80600001518a0381602001515b90965094508a156114c05760008512156113af576113af7f00000000000000000000000000000000000000000000000000000000000000008d87600003614499565b60006113b961464e565b9050336001600160a01b031663fa461e3388888c8c6040518563ffffffff1660e01b815260040180858152602001848152602001806020018281038252848482818152602001925080828437600081840152601f19601f82011690508083019250505095505050505050600060405180830381600087803b15801561143d57600080fd5b505af1158015611451573d6000803e3d6000fd5b5050505061145d61464e565b61146782896147d3565b11156114ba576040805162461bcd60e51b815260206004820152600360248201527f4949410000000000000000000000000000000000000000000000000000000000604482015290519081900360640190fd5b50611604565b60008612156114f7576114f77f00000000000000000000000000000000000000000000000000000000000000008d88600003614499565b60006115016147e3565b9050336001600160a01b031663fa461e3388888c8c6040518563ffffffff1660e01b815260040180858152602001848152602001806020018281038252848482818152602001925080828437600081840152601f19601f82011690508083019250505095505050505050600060405180830381600087803b15801561158557600080fd5b505af1158015611599573d6000803e3d6000fd5b505050506115a56147e3565b6115af82886147d3565b1115611602576040805162461bcd60e51b815260206004820152600360248201527f4949410000000000000000000000000000000000000000000000000000000000604482015290519081900360640190fd5b505b60408082015160c083015160608085015184518b8152602081018b90526001600160a01b03948516818701526001600160801b039093169183019190915260020b60808201529151908e169133917fc42079f94a6350d7e6235f29174924f928cc2ac818eb64fed8004e115fbcca679181900360a00190a35050600080547fff00ffffffffffffffffffffffffffffffffffffffffffffffffffffffffffff16600160f01b17905550919890975095505050505050565b6004546001600160801b031681565b6003546001600160801b0380821691600160801b90041682565b60088161ffff81106116f557600080fd5b015463ffffffff81169150640100000000810460060b906b01000000000000000000000081046001600160a01b031690600160f81b900460ff1684565b600054600160f01b900460ff16611790576040805162461bcd60e51b815260206004820152600360248201527f4c4f4b0000000000000000000000000000000000000000000000000000000000604482015290519081900360640190fd5b600080547fff00ffffffffffffffffffffffffffffffffffffffffffffffffffffffffffff1690556117c06133bd565b600080547b01000000000000000000000000000000000000000000000000000000900461ffff16906117f4600883856148c7565b6000805461ffff8084167b0100000000000000000000000000000000000000000000000000000081027fffffff0000ffffffffffffffffffffffffffffffffffffffffffffffffffffff90931692909217909255919250831614611893576040805161ffff80851682528316602082015281517fac49e518f90a358f652e4400164f05a5d8f7e35e7747279bc3a93dbf584e125a929181900390910190a15b5050600080547fff00ffffffffffffffffffffffffffffffffffffffffffffffffffffffffffff16600160f01b17905550565b6000546001600160a01b0381169074010000000000000000000000000000000000000000810460020b9061ffff77010000000000000000000000000000000000000000000000820481169179010000000000000000000000000000000000000000000000000081048216917b010000000000000000000000000000000000000000000000000000008204169060ff7d0100000000000000000000000000000000000000000000000000000000008204811691600160f01b90041687565b600080548190600160f01b900460ff166119e4576040805162461bcd60e51b815260206004820152600360248201527f4c4f4b0000000000000000000000000000000000000000000000000000000000604482015290519081900360640190fd5b600080547fff00ffffffffffffffffffffffffffffffffffffffffffffffffffffffffffff1690556001600160801b038516611a1f57600080fd5b600080611a6d60405180608001604052808c6001600160a01b031681526020018b60020b81526020018a60020b8152602001611a638a6001600160801b03166149a1565b600f0b90526149b2565b92509250508193508092506000806000861115611a8f57611a8c61464e565b91505b8415611aa057611a9d6147e3565b90505b336001600160a01b031663d348799787878b8b6040518563ffffffff1660e01b815260040180858152602001848152602001806020018281038252848482818152602001925080828437600081840152601f19601f82011690508083019250505095505050505050600060405180830381600087803b158015611b2257600080fd5b505af1158015611b36573d6000803e3d6000fd5b505050506000861115611ba857611b4b61464e565b611b5583886147d3565b1115611ba8576040805162461bcd60e51b815260206004820152600260248201527f4d30000000000000000000000000000000000000000000000000000000000000604482015290519081900360640190fd5b8415611c1357611bb66147e3565b611bc082876147d3565b1115611c13576040805162461bcd60e51b815260206004820152600260248201527f4d31000000000000000000000000000000000000000000000000000000000000604482015290519081900360640190fd5b8960020b8b60020b8d6001600160a01b03167f7a53080ba414158be7ec69b987b5fb7d07dee101fe85488f0853ae16239d0bde338d8b8b60405180856001600160a01b03168152602001846001600160801b0316815260200183815260200182815260200194505050505060405180910390a45050600080547fff00ffffffffffffffffffffffffffffffffffffffffffffffffffffffffffff16600160f01b17905550919890975095505050505050565b60025481565b600054600160f01b900460ff16611d29576040805162461bcd60e51b815260206004820152600360248201527f4c4f4b0000000000000000000000000000000000000000000000000000000000604482015290519081900360640190fd5b600080547fff00ffffffffffffffffffffffffffffffffffffffffffffffffffffffffffff169055611d596133bd565b6004546001600160801b031680611db7576040805162461bcd60e51b815260206004820152600160248201527f4c00000000000000000000000000000000000000000000000000000000000000604482015290519081900360640190fd5b6000611dec867f000000000000000000000000000000000000000000000000000000000000000062ffffff16620f4240614cc6565b90506000611e23867f000000000000000000000000000000000000000000000000000000000000000062ffffff16620f4240614cc6565b90506000611e2f61464e565b90506000611e3b6147e3565b90508815611e6e57611e6e7f00000000000000000000000000000000000000000000000000000000000000008b8b614499565b8715611e9f57611e9f7f00000000000000000000000000000000000000000000000000000000000000008b8a614499565b336001600160a01b031663e9cbafb085858a8a6040518563ffffffff1660e01b815260040180858152602001848152602001806020018281038252848482818152602001925080828437600081840152601f19601f82011690508083019250505095505050505050600060405180830381600087803b158015611f2157600080fd5b505af1158015611f35573d6000803e3d6000fd5b505050506000611f4361464e565b90506000611f4f6147e3565b905081611f5c85886147d3565b1115611faf576040805162461bcd60e51b815260206004820152600260248201527f4630000000000000000000000000000000000000000000000000000000000000604482015290519081900360640190fd5b80611fba84876147d3565b111561200d576040805162461bcd60e51b815260206004820152600260248201527f4631000000000000000000000000000000000000000000000000000000000000604482015290519081900360640190fd5b83820383820381156120bf57600080547d0100000000000000000000000000000000000000000000000000000000009004600f1690811561205a578160ff16848161205457fe5b0461205d565b60005b90506001600160801b0381161561209957600380546001600160801b038082168401166fffffffffffffffffffffffffffffffff199091161790555b6120b3818503600160801b8d6001600160801b0316613ade565b60018054909101905550505b801561216457600080547d010000000000000000000000000000000000000000000000000000000000900460041c600f16908115612109578160ff16838161210357fe5b0461210c565b60005b90506001600160801b0381161561213e57600380546001600160801b03600160801b8083048216850182160291161790555b612158818403600160801b8d6001600160801b0316613ade565b60028054909101905550505b8d6001600160a01b0316336001600160a01b03167fbdbdb71d7860376ba52b25a5028beea23581364a40522f6bcfb86bb1f2dca6338f8f86866040518085815260200184815260200183815260200182815260200194505050505060405180910390a35050600080547fff00ffffffffffffffffffffffffffffffffffffffffffffffffffffffffffff16600160f01b179055505050505050505050505050565b600080548190600160f01b900460ff16612266576040805162461bcd60e51b815260206004820152600360248201527f4c4f4b0000000000000000000000000000000000000000000000000000000000604482015290519081900360640190fd5b600080547fff00ffffffffffffffffffffffffffffffffffffffffffffffffffffffffffff16815561229b6007338989614d00565b60038101549091506001600160801b03908116908616116122bc57846122cb565b60038101546001600160801b03165b60038201549093506001600160801b03600160801b9091048116908516116122f35783612309565b6003810154600160801b90046001600160801b03165b91506001600160801b03831615612377576003810180546fffffffffffffffffffffffffffffffff1981166001600160801b03918216869003821617909155612377907f0000000000000000000000000000000000000000000000000000000000000000908a908616614499565b6001600160801b038216156123dd576003810180546001600160801b03600160801b8083048216869003821602918116919091179091556123dd907f0000000000000000000000000000000000000000000000000000000000000000908a908516614499565b604080516001600160a01b038a1681526001600160801b0380861660208301528416818301529051600288810b92908a900b9133917f70935338e69775456a85ddef226c395fb668b63fa0115f5f20610b388e6ca9c0919081900360600190a450600080547fff00ffffffffffffffffffffffffffffffffffffffffffffffffffffffffffff16600160f01b17905590969095509350505050565b60076020526000908152604090208054600182015460028301546003909301546001600160801b0392831693919281811691600160801b90041685565b60066020526000908152604090205481565b7f000000000000000000000000000000000000000000000000000000000000000081565b600054600160f01b900460ff16612549576040805162461bcd60e51b815260206004820152600360248201527f4c4f4b0000000000000000000000000000000000000000000000000000000000604482015290519081900360640190fd5b600080547fff00ffffffffffffffffffffffffffffffffffffffffffffffffffffffffffff169055604080517f8da5cb5b00000000000000000000000000000000000000000000000000000000815290516001600160a01b037f00000000000000000000000000000000000000000000000000000000000000001691638da5cb5b916004808301926020929190829003018186803b1580156125ea57600080fd5b505afa1580156125fe573d6000803e3d6000fd5b505050506040513d602081101561261457600080fd5b50516001600160a01b0316331461262a57600080fd5b60ff8216158061264d575060048260ff161015801561264d5750600a8260ff1611155b8015612677575060ff81161580612677575060048160ff16101580156126775750600a8160ff1611155b61268057600080fd5b60008054610ff0600484901b16840160ff9081167d0100000000000000000000000000000000000000000000000000000000009081027fffff00ffffffffffffffffffffffffffffffffffffffffffffffffffffffffff841617909355919004167f973d8d92bb299f4af6ce49b52a8adb85ae46b9f214c4c4fc06ac77401237b1336010826040805160ff9390920683168252600f600486901c16602083015286831682820152918516606082015290519081900360800190a15050600080547fff00ffffffffffffffffffffffffffffffffffffffffffffffffffffffffffff16600160f01b17905550565b600080548190600160f01b900460ff166127ce576040805162461bcd60e51b815260206004820152600360248201527f4c4f4b0000000000000000000000000000000000000000000000000000000000604482015290519081900360640190fd5b600080547fff00ffffffffffffffffffffffffffffffffffffffffffffffffffffffffffff169055604080517f8da5cb5b00000000000000000000000000000000000000000000000000000000815290516001600160a01b037f00000000000000000000000000000000000000000000000000000000000000001691638da5cb5b916004808301926020929190829003018186803b15801561286f57600080fd5b505afa158015612883573d6000803e3d6000fd5b505050506040513d602081101561289957600080fd5b50516001600160a01b031633146128af57600080fd5b6003546001600160801b03908116908516116128cb57836128d8565b6003546001600160801b03165b6003549092506001600160801b03600160801b9091048116908416116128fe5782612912565b600354600160801b90046001600160801b03165b90506001600160801b0382161561299c576003546001600160801b038381169116141561294157600019909101905b600380546fffffffffffffffffffffffffffffffff1981166001600160801b0391821685900382161790915561299c907f00000000000000000000000000000000000000000000000000000000000000009087908516614499565b6001600160801b03811615612a22576003546001600160801b03828116600160801b9092041614156129cd57600019015b600380546001600160801b03600160801b808304821685900382160291811691909117909155612a22907f00000000000000000000000000000000000000000000000000000000000000009087908416614499565b604080516001600160801b0380851682528316602082015281516001600160a01b0388169233927f596b573906218d3411850b26a6b437d6c4522fdb43d2d2386263f86d50b8b151929081900390910190a3600080547fff00ffffffffffffffffffffffffffffffffffffffffffffffffffffffffffff16600160f01b1790559094909350915050565b606080612ab76133bd565b612b69612ac26133f4565b85858080602002602001604051908101604052809392919081815260200183836020028082843760009201829052505460045460089695945074010000000000000000000000000000000000000000820460020b935061ffff770100000000000000000000000000000000000000000000008304811693506001600160801b0390911691790100000000000000000000000000000000000000000000000000900416614d77565b915091509250929050565b600080548190600160f01b900460ff16612bd5576040805162461bcd60e51b815260206004820152600360248201527f4c4f4b0000000000000000000000000000000000000000000000000000000000604482015290519081900360640190fd5b600080547fff00ffffffffffffffffffffffffffffffffffffffffffffffffffffffffffff16815560408051608081018252338152600288810b602083015287900b9181019190915281908190612c499060608101612c3c6001600160801b038a166149a1565b600003600f0b90526149b2565b9250925092508160000394508060000393506000851180612c6a5750600084115b15612cb2576003830180546001600160801b038082168089018216600160801b93849004831689019092169092029091176fffffffffffffffffffffffffffffffff19161790555b604080516001600160801b0388168152602081018790528082018690529051600289810b92908b900b9133917f0c396cd989a39f4459b5fa1aed6a9a8dcdbc45908acfd67e028cd568da98982c919081900360600190a45050600080547fff00ffffffffffffffffffffffffffffffffffffffffffffffffffffffffffff16600160f01b179055509094909350915050565b6000806000612d516133bd565b612d5b8585614eed565b600285810b810b60009081526005602052604080822087840b90930b825281206003830154600681900b9367010000000000000082046001600160a01b03169284927b01000000000000000000000000000000000000000000000000000000810463ffffffff169284929091600160f81b900460ff1680612ddb57600080fd5b6003820154600681900b985067010000000000000081046001600160a01b031696507b01000000000000000000000000000000000000000000000000000000810463ffffffff169450600160f81b900460ff1680612e3857600080fd5b50506040805160e0810182526000546001600160a01b0381168252740100000000000000000000000000000000000000008104600290810b810b810b6020840181905261ffff7701000000000000000000000000000000000000000000000084048116958501959095527901000000000000000000000000000000000000000000000000008304851660608501527b010000000000000000000000000000000000000000000000000000008304909416608084015260ff7d0100000000000000000000000000000000000000000000000000000000008304811660a0850152600160f01b909204909116151560c08301529093508e810b91900b12159050612f4e57509390940396509003935090039050612fd1565b8a60020b816020015160020b1215612fc2576000612f6a6133f4565b6020830151604084015160045460608601519394506000938493612fa0936008938893879392916001600160801b031690613b8e565b9a9003989098039b505094909603929092039650909103039250612fd1915050565b50949093039650039350900390505b9250925092565b7f000000000000000000000000000000000000000000000000000000000000000081565b7f000000000000000000000000000000000000000000000000000000000000000081565b7f000000000000000000000000000000000000000000000000000000000000000081565b7f000000000000000000000000000000000000000000000000000000000000000081565b60015481565b60056020526000908152604090208054600182015460028301546003909301546001600160801b03831693600160801b909304600f0b9290600681900b9067010000000000000081046001600160a01b0316907b01000000000000000000000000000000000000000000000000000000810463ffffffff1690600160f81b900460ff1688565b6000546001600160a01b031615613152576040805162461bcd60e51b815260206004820152600260248201527f4149000000000000000000000000000000000000000000000000000000000000604482015290519081900360640190fd5b600061315d82613f30565b905060008061317561316d6133f4565b600890615020565b6040805160e0810182526001600160a01b038816808252600288810b6020808501829052600085870181905261ffff898116606088018190529089166080880181905260a08801839052600160c0909801979097528154600160f01b7fffffffffffffffffffffffff000000000000000000000000000000000000000090911687177fffffffffffffffffff000000ffffffffffffffffffffffffffffffffffffffff167401000000000000000000000000000000000000000062ffffff9787900b9790971696909602959095177fffffffffff00000000ffffffffffffffffffffffffffffffffffffffffffffff16790100000000000000000000000000000000000000000000000000909102177fffffff0000ffffffffffffffffffffffffffffffffffffffffffffffffffffff167b01000000000000000000000000000000000000000000000000000000909602959095177fff0000ffffffffffffffffffffffffffffffffffffffffffffffffffffffffff1692909217909355835191825281019190915281519395509193507f98636036cb66a9c19a37435efc1e90142190214e8abeb821bdba3f2990dd4c9592918290030190a150505050565b60008082600281900b7ffffffffffffffffffffffffffffffffffffffffffffffffffffffffffff276188161336657fe5b05029050600083600281900b620d89e88161337d57fe5b0502905060008460020b83830360020b8161339457fe5b0560010190508062ffffff166001600160801b038016816133b157fe5b0493505050505b919050565b306001600160a01b037f000000000000000000000000000000000000000000000000000000000000000016146133f257600080fd5b565b4290565b60008060008460020b8660020b8161340c57fe5b05905060008660020b12801561343357508460020b8660020b8161342c57fe5b0760020b15155b1561343d57600019015b83156134b25760008061344f83615087565b600182810b810b600090815260208d9052604090205460ff83169190911b8001600019019081168015159750929450909250908561349457888360ff168603026134a7565b8861349e82615099565b840360ff168603025b965050505050613530565b6000806134c183600101615087565b91509150600060018260ff166001901b031990506000818b60008660010b60010b815260200190815260200160002054169050806000141595508561351357888360ff0360ff16866001010102613529565b888361351e83615139565b0360ff168660010101025b9650505050505b5094509492505050565b60008060008360020b12613551578260020b613559565b8260020b6000035b9050620d89e88111156135b3576040805162461bcd60e51b815260206004820152600160248201527f5400000000000000000000000000000000000000000000000000000000000000604482015290519081900360640190fd5b6000600182166135c757600160801b6135d9565b6ffffcb933bd6fad37aa2d162d1a5940015b70ffffffffffffffffffffffffffffffffff169050600282161561360d576ffff97272373d413259a46990580e213a0260801c5b600482161561362c576ffff2e50f5f656932ef12357cf3c7fdcc0260801c5b600882161561364b576fffe5caca7e10e4e61c3624eaa0941cd00260801c5b601082161561366a576fffcb9843d60f6159c9db58835c9266440260801c5b6020821615613689576fff973b41fa98c081472e6896dfb254c00260801c5b60408216156136a8576fff2ea16466c96a3843ec78b326b528610260801c5b60808216156136c7576ffe5dee046a99a2a811c461f1969c30530260801c5b6101008216156136e7576ffcbe86c7900a88aedcffc83b479aa3a40260801c5b610200821615613707576ff987a7253ac413176f2b074cf7815e540260801c5b610400821615613727576ff3392b0822b70005940c7a398e4b70f30260801c5b610800821615613747576fe7159475a2c29b7443b29c7fa6e889d90260801c5b611000821615613767576fd097f3bdfd2022b8845ad8f792aa58250260801c5b612000821615613787576fa9f746462d870fdf8a65dc1f90e061e50260801c5b6140008216156137a7576f70d869a156d2a1b890bb3df62baf32f70260801c5b6180008216156137c7576f31be135f97d08fd981231505542fcfa60260801c5b620100008216156137e8576f09aa508b5b7a84e1c677de54f3e99bc90260801c5b62020000821615613808576e5d6af8dedb81196699c329225ee6040260801c5b62040000821615613827576d2216e584f5fa1ea926041bedfe980260801c5b62080000821615613844576b048a170391f7dc42444e8fa20260801c5b60008460020b131561385f57806000198161385b57fe5b0490505b640100000000810615613873576001613876565b60005b60ff16602082901c0192505050919050565b60008080806001600160a01b03808916908a16101581871280159061390d5760006138c18989620f42400362ffffff16620f4240613ade565b9050826138da576138d58c8c8c60016152f5565b6138e7565b6138e78b8d8c6001615382565b95508581106138f8578a9650613907565b6139048c8b838661543f565b96505b50613957565b816139245761391f8b8b8b6000615382565b613931565b6139318a8c8b60006152f5565b935083886000031061394557899550613957565b6139548b8a8a6000038561548b565b95505b6001600160a01b038a81169087161482156139ba578080156139765750815b61398c57613987878d8c6001615382565b61398e565b855b955080801561399b575081155b6139b1576139ac878d8c60006152f5565b6139b3565b845b9450613a04565b8080156139c45750815b6139da576139d58c888c60016152f5565b6139dc565b855b95508080156139e9575081155b6139ff576139fa8c888c6000615382565b613a01565b845b94505b81158015613a1457508860000385115b15613a20578860000394505b818015613a3f57508a6001600160a01b0316876001600160a01b031614155b15613a4e578589039350613a6b565b613a68868962ffffff168a620f42400362ffffff16614cc6565b93505b50505095509550955095915050565b60007f80000000000000000000000000000000000000000000000000000000000000008210613aa857600080fd5b5090565b80820382811315600083121514613ac257600080fd5b92915050565b81810182811215600083121514613ac257600080fd5b6000808060001985870986860292508281109083900303905080613b145760008411613b0957600080fd5b508290049050613b87565b808411613b2057600080fd5b6000848688096000868103871696879004966002600389028118808a02820302808a02820302808a02820302808a02820302808a02820302808a02909103029181900381900460010186841190950394909402919094039290920491909117919091029150505b9392505050565b60008063ffffffff8716613c3d576000898661ffff1661ffff8110613baf57fe5b60408051608081018252919092015463ffffffff8082168084526401000000008304600690810b810b900b60208501526b01000000000000000000000083046001600160a01b031694840194909452600160f81b90910460ff16151560608301529092508a1614613c2957613c26818a89886154d7565b90505b806020015181604001519250925050613d1d565b868803600080613c528c8c858c8c8c8c615587565b91509150816000015163ffffffff168363ffffffff161415613c84578160200151826040015194509450505050613d1d565b805163ffffffff84811691161415613cac578060200151816040015194509450505050613d1d565b8151815160208085015190840151918390039286039163ffffffff80841692908516910360060b81613cda57fe5b05028460200151018263ffffffff168263ffffffff1686604001518660400151036001600160a01b03160281613d0c57fe5b048560400151019650965050505050505b97509795505050505050565b600295860b860b60009081526020979097526040909620600181018054909503909455938301805490920390915560038201805463ffffffff7b010000000000000000000000000000000000000000000000000000006001600160a01b036701000000000000008085048216909603169094027fffffffffff0000000000000000000000000000000000000000ffffffffffffff90921691909117600681810b90960390950b66ffffffffffffff167fffffffffffffffffffffffffffffffffffffffffffffffffff00000000000000909516949094178281048516909503909316027fff00000000ffffffffffffffffffffffffffffffffffffffffffffffffffffff90931692909217905554600160801b9004600f0b90565b60008082600f0b1215613ec457826001600160801b03168260000384039150816001600160801b031610613ebf576040805162461bcd60e51b815260206004820152600260248201527f4c53000000000000000000000000000000000000000000000000000000000000604482015290519081900360640190fd5b613ac2565b826001600160801b03168284019150816001600160801b03161015613ac2576040805162461bcd60e51b815260206004820152600260248201527f4c41000000000000000000000000000000000000000000000000000000000000604482015290519081900360640190fd5b60006401000276a36001600160a01b03831610801590613f6c575073fffd8963efd1fc6a506488495d951d5263988d266001600160a01b038316105b613fbd576040805162461bcd60e51b815260206004820152600160248201527f5200000000000000000000000000000000000000000000000000000000000000604482015290519081900360640190fd5b77ffffffffffffffffffffffffffffffffffffffff00000000602083901b166001600160801b03811160071b81811c67ffffffffffffffff811160061b90811c63ffffffff811160051b90811c61ffff811160041b90811c60ff8111600390811b91821c600f811160021b90811c918211600190811b92831c9790881196179094179092171790911717176080811061405e57607f810383901c9150614068565b80607f0383901b91505b908002607f81811c60ff83811c9190911c800280831c81831c1c800280841c81841c1c800280851c81851c1c800280861c81861c1c800280871c81871c1c800280881c81881c1c800280891c81891c1c8002808a1c818a1c1c8002808b1c818b1c1c8002808c1c818c1c1c8002808d1c818d1c1c8002808e1c9c81901c9c909c1c80029c8d901c9e9d7fffffffffffffffffffffffffffffffffffffffffffffffffffffffffffffff808f0160401b60c09190911c678000000000000000161760c19b909b1c674000000000000000169a909a1760c29990991c672000000000000000169890981760c39790971c671000000000000000169690961760c49590951c670800000000000000169490941760c59390931c670400000000000000169290921760c69190911c670200000000000000161760c79190911c670100000000000000161760c89190911c6680000000000000161760c99190911c6640000000000000161760ca9190911c6620000000000000161760cb9190911c6610000000000000161760cc9190911c6608000000000000161760cd9190911c66040000000000001617693627a301d71055774c8581027ffffffffffffffffffffffffffffffffffd709b7e5480fba5a50fed5e62ffc5568101608090811d906fdb2df09e81959a81455e260799a0632f8301901d600281810b9083900b1461429657886001600160a01b031661427a8261353a565b6001600160a01b0316111561428f5781614291565b805b614298565b815b9998505050505050505050565b6000806000898961ffff1661ffff81106142bb57fe5b60408051608081018252919092015463ffffffff8082168084526401000000008304600690810b810b900b60208501526b01000000000000000000000083046001600160a01b031694840194909452600160f81b90910460ff1615156060830152909250891614156143335788859250925050613d1d565b8461ffff168461ffff1611801561435457506001850361ffff168961ffff16145b1561436157839150614365565b8491505b8161ffff168960010161ffff168161437957fe5b069250614388818989896154d7565b8a8461ffff1661ffff811061439957fe5b825191018054602084015160408501516060909501511515600160f81b027effffffffffffffffffffffffffffffffffffffffffffffffffffffffffffff6001600160a01b039096166b010000000000000000000000027fff0000000000000000000000000000000000000000ffffffffffffffffffffff60069390930b66ffffffffffffff16640100000000027fffffffffffffffffffffffffffffffffffffffffff00000000000000ffffffff63ffffffff9097167fffffffffffffffffffffffffffffffffffffffffffffffffffffffff000000009095169490941795909516929092171692909217929092161790555097509795505050505050565b604080516001600160a01b038481166024830152604480830185905283518084039091018152606490920183526020820180517bffffffffffffffffffffffffffffffffffffffffffffffffffffffff167fa9059cbb000000000000000000000000000000000000000000000000000000001781529251825160009485949389169392918291908083835b6020831061456157805182527fffffffffffffffffffffffffffffffffffffffffffffffffffffffffffffffe09092019160209182019101614524565b6001836020036101000a0380198251168184511680821785525050505050509050019150506000604051808303816000865af19150503d80600081146145c3576040519150601f19603f3d011682016040523d82523d6000602084013e6145c8565b606091505b50915091508180156145f65750805115806145f657508080602001905160208110156145f357600080fd5b50515b614647576040805162461bcd60e51b815260206004820152600260248201527f5354000000000000000000000000000000000000000000000000000000000000604482015290519081900360640190fd5b5050505050565b604080513060248083019190915282518083039091018152604490910182526020810180517bffffffffffffffffffffffffffffffffffffffffffffffffffffffff167f70a082310000000000000000000000000000000000000000000000000000000017815291518151600093849384936001600160a01b037f00000000000000000000000000000000000000000000000000000000000000001693919290918291908083835b6020831061473357805182527fffffffffffffffffffffffffffffffffffffffffffffffffffffffffffffffe090920191602091820191016146f6565b6001836020036101000a038019825116818451168082178552505050505050905001915050600060405180830381855afa9150503d8060008114614793576040519150601f19603f3d011682016040523d82523d6000602084013e614798565b606091505b50915091508180156147ac57506020815110155b6147b557600080fd5b8080602001905160208110156147ca57600080fd5b50519250505090565b80820182811015613ac257600080fd5b604080513060248083019190915282518083039091018152604490910182526020810180517bffffffffffffffffffffffffffffffffffffffffffffffffffffffff167f70a082310000000000000000000000000000000000000000000000000000000017815291518151600093849384936001600160a01b037f00000000000000000000000000000000000000000000000000000000000000001693919290918291908083836020831061473357805182527fffffffffffffffffffffffffffffffffffffffffffffffffffffffffffffffe090920191602091820191016146f6565b6000808361ffff1611614921576040805162461bcd60e51b815260206004820152600160248201527f4900000000000000000000000000000000000000000000000000000000000000604482015290519081900360640190fd5b8261ffff168261ffff1611614937575081613b87565b825b8261ffff168161ffff161015614998576001858261ffff1661ffff811061495c57fe5b0180547fffffffffffffffffffffffffffffffffffffffffffffffffffffffff000000001663ffffffff92909216919091179055600101614939565b50909392505050565b80600f81900b81146133b857600080fd5b60008060006149bf6133bd565b6149d184602001518560400151614eed565b6040805160e0810182526000546001600160a01b0381168252740100000000000000000000000000000000000000008104600290810b810b900b602080840182905261ffff770100000000000000000000000000000000000000000000008404811685870152790100000000000000000000000000000000000000000000000000840481166060808701919091527b010000000000000000000000000000000000000000000000000000008504909116608086015260ff7d0100000000000000000000000000000000000000000000000000000000008504811660a0870152600160f01b909404909316151560c085015288519089015194890151928901519394614ae294919390929091906157b6565b93508460600151600f0b600014614cbe57846020015160020b816020015160020b1215614b3757614b30614b19866020015161353a565b614b26876040015161353a565b87606001516159a6565b9250614cbe565b846040015160020b816020015160020b1215614c945760045460408201516001600160801b0390911690614b8990614b6d6133f4565b60208501516060860151608087015160089493929187916142a5565b600080547fffffffffff0000ffffffffffffffffffffffffffffffffffffffffffffffffff1679010000000000000000000000000000000000000000000000000061ffff93841602177fffffffffffffff0000ffffffffffffffffffffffffffffffffffffffffffffff1677010000000000000000000000000000000000000000000000939092169290920217905581516040870151614c379190614c2d9061353a565b88606001516159a6565b9350614c55614c49876020015161353a565b835160608901516159ea565b9250614c65818760600151613e44565b600480546fffffffffffffffffffffffffffffffff19166001600160801b039290921691909117905550614cbe565b614cbb614ca4866020015161353a565b614cb1876040015161353a565b87606001516159ea565b91505b509193909250565b6000614cd3848484613ade565b905060008280614cdf57fe5b8486091115613b87576000198110614cf657600080fd5b6001019392505050565b6040805160609490941b7fffffffffffffffffffffffffffffffffffffffff00000000000000000000000016602080860191909152600293840b60e890811b60348701529290930b90911b60378401528051808403601a018152603a90930181528251928201929092206000908152929052902090565b60608060008361ffff1611614dd3576040805162461bcd60e51b815260206004820152600160248201527f4900000000000000000000000000000000000000000000000000000000000000604482015290519081900360640190fd5b865167ffffffffffffffff81118015614deb57600080fd5b50604051908082528060200260200182016040528015614e15578160200160208202803683370190505b509150865167ffffffffffffffff81118015614e3057600080fd5b50604051908082528060200260200182016040528015614e5a578160200160208202803683370190505b50905060005b8751811015614ee057614e8b8a8a8a8481518110614e7a57fe5b60200260200101518a8a8a8a613b8e565b848381518110614e9757fe5b60200260200101848481518110614eaa57fe5b60200260200101826001600160a01b03166001600160a01b03168152508260060b60060b81525050508080600101915050614e60565b5097509795505050505050565b8060020b8260020b12614f47576040805162461bcd60e51b815260206004820152600360248201527f544c550000000000000000000000000000000000000000000000000000000000604482015290519081900360640190fd5b7ffffffffffffffffffffffffffffffffffffffffffffffffffffffffffff27618600283900b1215614fc0576040805162461bcd60e51b815260206004820152600360248201527f544c4d0000000000000000000000000000000000000000000000000000000000604482015290519081900360640190fd5b620d89e8600282900b131561501c576040805162461bcd60e51b815260206004820152600360248201527f54554d0000000000000000000000000000000000000000000000000000000000604482015290519081900360640190fd5b5050565b6040805160808101825263ffffffff928316808252600060208301819052928201929092526001606090910181905283547fffffffffffffffffffffffffffffffffffffffffffffffffffffffff0000000016909117909116600160f81b17909155908190565b60020b600881901d9161010090910790565b60008082116150a757600080fd5b600160801b82106150ba57608091821c91015b6801000000000000000082106150d257604091821c91015b64010000000082106150e657602091821c91015b6201000082106150f857601091821c91015b610100821061510957600891821c91015b6010821061511957600491821c91015b6004821061512957600291821c91015b600282106133b857600101919050565b600080821161514757600080fd5b5060ff6001600160801b03821615615180577fffffffffffffffffffffffffffffffffffffffffffffffffffffffffffffff8001615188565b608082901c91505b67ffffffffffffffff8216156151bf577fffffffffffffffffffffffffffffffffffffffffffffffffffffffffffffffc0016151c7565b604082901c91505b63ffffffff8216156151fa577fffffffffffffffffffffffffffffffffffffffffffffffffffffffffffffffe001615202565b602082901c91505b61ffff821615615233577ffffffffffffffffffffffffffffffffffffffffffffffffffffffffffffffff00161523b565b601082901c91505b60ff82161561526b577ffffffffffffffffffffffffffffffffffffffffffffffffffffffffffffffff801615273565b600882901c91505b600f8216156152a3577ffffffffffffffffffffffffffffffffffffffffffffffffffffffffffffffffc016152ab565b600482901c91505b60038216156152db577ffffffffffffffffffffffffffffffffffffffffffffffffffffffffffffffffe016152e3565b600282901c91505b60018216156133b85760001901919050565b6000836001600160a01b0316856001600160a01b03161115615315579293925b8161534b57615346836001600160801b03168686036001600160a01b03166c01000000000000000000000000613ade565b615377565b615377836001600160801b03168686036001600160a01b03166c01000000000000000000000000614cc6565b90505b949350505050565b6000836001600160a01b0316856001600160a01b031611156153a2579293925b7bffffffffffffffffffffffffffffffff000000000000000000000000606084901b166001600160a01b0386860381169087166153de57600080fd5b8361540e57866001600160a01b03166154018383896001600160a01b0316613ade565b8161540857fe5b04615434565b6154346154258383896001600160a01b0316614cc6565b886001600160a01b0316615a19565b979650505050505050565b600080856001600160a01b03161161545657600080fd5b6000846001600160801b03161161546c57600080fd5b8161547e576153468585856001615a24565b6153778585856001615b17565b600080856001600160a01b0316116154a257600080fd5b6000846001600160801b0316116154b857600080fd5b816154ca576153468585856000615b17565b6153778585856000615a24565b6154df616427565b600085600001518503905060405180608001604052808663ffffffff1681526020018263ffffffff168660020b0288602001510160060b81526020016000856001600160801b031611615533576001615535565b845b6001600160801b031673ffffffff00000000000000000000000000000000608085901b168161556057fe5b048860400151016001600160a01b0316815260200160011515815250915050949350505050565b61558f616427565b615597616427565b888561ffff1661ffff81106155a857fe5b60408051608081018252919092015463ffffffff81168083526401000000008204600690810b810b900b60208401526b01000000000000000000000082046001600160a01b031693830193909352600160f81b900460ff1615156060820152925061561590899089615c0c565b1561564d578663ffffffff16826000015163ffffffff16141561563757613d1d565b81615644838989886154d7565b91509150613d1d565b888361ffff168660010161ffff168161566257fe5b0661ffff1661ffff811061567257fe5b60408051608081018252929091015463ffffffff811683526401000000008104600690810b810b900b60208401526001600160a01b036b0100000000000000000000008204169183019190915260ff600160f81b9091041615156060820181905290925061573957604080516080810182528a5463ffffffff811682526401000000008104600690810b810b900b60208301526b01000000000000000000000081046001600160a01b031692820192909252600160f81b90910460ff161515606082015291505b61574888836000015189615c0c565b615799576040805162461bcd60e51b815260206004820152600360248201527f4f4c440000000000000000000000000000000000000000000000000000000000604482015290519081900360640190fd5b6157a68989898887615ccf565b9150915097509795505050505050565b60006157c56007878787614d00565b60015460025491925090600080600f87900b156159465760006157e66133f4565b600080546004549293509091829161586b916008918691859174010000000000000000000000000000000000000000810460020b9161ffff7701000000000000000000000000000000000000000000000083048116926001600160801b0390921691790100000000000000000000000000000000000000000000000000900416613b8e565b90925090506158a560058d8b8d8b8b87898b60007f0000000000000000000000000000000000000000000000000000000000000000615e7f565b94506158dc60058c8b8d8b8b87898b60017f0000000000000000000000000000000000000000000000000000000000000000615e7f565b935084156159105761591060068d7f00000000000000000000000000000000000000000000000000000000000000006160d5565b83156159425761594260068c7f00000000000000000000000000000000000000000000000000000000000000006160d5565b5050505b60008061595860058c8c8b8a8a61613b565b9092509050615969878a84846161e7565b600089600f0b12156159975783156159865761598660058c6163a9565b82156159975761599760058b6163a9565b50505050505095945050505050565b60008082600f0b126159cc576159c76159c28585856001615382565b613a7a565b61537a565b6159df6159c28585856000036000615382565b600003949350505050565b60008082600f0b12615a06576159c76159c285858560016152f5565b6159df6159c285858560000360006152f5565b808204910615150190565b60008115615aa05760006001600160a01b03841115615a6357615a5e846c01000000000000000000000000876001600160801b0316613ade565b615a7b565b6001600160801b038516606085901b81615a7957fe5b045b9050615a98615a936001600160a01b038816836147d3565b6163d5565b91505061537a565b60006001600160a01b03841115615ad757615ad2846c01000000000000000000000000876001600160801b0316614cc6565b615aee565b615aee606085901b6001600160801b038716615a19565b905080866001600160a01b031611615b0557600080fd5b6001600160a01b03861603905061537a565b600082615b2557508361537a565b7bffffffffffffffffffffffffffffffff000000000000000000000000606085901b168215615bc5576001600160a01b03861684810290858281615b6557fe5b041415615b9657818101828110615b9457615b8a83896001600160a01b031683614cc6565b935050505061537a565b505b615bbc82615bb7878a6001600160a01b03168681615bb057fe5b04906147d3565b615a19565b9250505061537a565b6001600160a01b03861684810290858281615bdc57fe5b04148015615be957508082115b615bf257600080fd5b808203615b8a615a93846001600160a01b038b1684614cc6565b60008363ffffffff168363ffffffff1611158015615c3657508363ffffffff168263ffffffff1611155b15615c52578163ffffffff168363ffffffff1611159050613b87565b60008463ffffffff168463ffffffff1611615c7a578363ffffffff1664010000000001615c82565b8363ffffffff165b64ffffffffff16905060008563ffffffff168463ffffffff1611615cb3578363ffffffff1664010000000001615cbb565b8363ffffffff165b64ffffffffff169091111595945050505050565b615cd7616427565b615cdf616427565b60008361ffff168560010161ffff1681615cf557fe5b0661ffff169050600060018561ffff16830103905060005b506002818301048961ffff87168281615d2257fe5b0661ffff8110615d2e57fe5b60408051608081018252929091015463ffffffff811683526401000000008104600690810b810b900b60208401526001600160a01b036b0100000000000000000000008204169183019190915260ff600160f81b90910416151560608201819052909550615da157806001019250615d0d565b898661ffff168260010181615db257fe5b0661ffff8110615dbe57fe5b60408051608081018252929091015463ffffffff811683526401000000008104600690810b810b900b60208401526001600160a01b036b0100000000000000000000008204169183019190915260ff600160f81b90910416151560608201528551909450600090615e31908b908b615c0c565b9050808015615e4a5750615e4a8a8a8760000151615c0c565b15615e555750615e72565b80615e6557600182039250615e6c565b8160010193505b50615d0d565b5050509550959350505050565b60028a810b900b600090815260208c90526040812080546001600160801b031682615eaa828d613e44565b9050846001600160801b0316816001600160801b03161115615f13576040805162461bcd60e51b815260206004820152600260248201527f4c4f000000000000000000000000000000000000000000000000000000000000604482015290519081900360640190fd5b6001600160801b038281161590821615811415945015616031578c60020b8e60020b1361600157600183018b9055600283018a90556003830180547fffffffffff0000000000000000000000000000000000000000ffffffffffffff166701000000000000006001600160a01b038c1602177fffffffffffffffffffffffffffffffffffffffffffffffffff000000000000001666ffffffffffffff60068b900b16177fff00000000ffffffffffffffffffffffffffffffffffffffffffffffffffffff167b0100000000000000000000000000000000000000000000000000000063ffffffff8a16021790555b6003830180547effffffffffffffffffffffffffffffffffffffffffffffffffffffffffffff16600160f81b1790555b82546fffffffffffffffffffffffffffffffff19166001600160801b0382161783558561608357825461607e9061607990600160801b9004600f90810b810b908f900b613ac8565b6149a1565b6160a4565b82546160a49061607990600160801b9004600f90810b810b908f900b613aac565b8354600f9190910b6001600160801b03908116600160801b0291161790925550909c9b505050505050505050505050565b8060020b8260020b816160e457fe5b0760020b156160f257600080fd5b60008061610d8360020b8560020b8161610757fe5b05615087565b600191820b820b60009081526020979097526040909620805460ff9097169190911b90951890945550505050565b600285810b80820b60009081526020899052604080822088850b850b83529082209193849391929184918291908a900b1261618157505060018201546002830154616194565b8360010154880391508360020154870390505b6000808b60020b8b60020b12156161b6575050600183015460028401546161c9565b84600101548a0391508460020154890390505b92909803979097039b96909503949094039850939650505050505050565b6040805160a08101825285546001600160801b0390811682526001870154602083015260028701549282019290925260038601548083166060830152600160801b900490911660808201526000600f85900b6162a15781516001600160801b0316616299576040805162461bcd60e51b815260206004820152600260248201527f4e50000000000000000000000000000000000000000000000000000000000000604482015290519081900360640190fd5b5080516162b0565b81516162ad9086613e44565b90505b60006162d48360200151860384600001516001600160801b0316600160801b613ade565b905060006162fa8460400151860385600001516001600160801b0316600160801b613ade565b905086600f0b60001461632a5787546fffffffffffffffffffffffffffffffff19166001600160801b0384161788555b60018801869055600288018590556001600160801b03821615158061635857506000816001600160801b0316115b1561639f576003880180546fffffffffffffffffffffffffffffffff1981166001600160801b039182168501821617808216600160801b9182900483168501909216021790555b5050505050505050565b600290810b810b6000908152602092909252604082208281556001810183905590810182905560030155565b806001600160a01b03811681146133b857600080fd5b6040805160e081018252600080825260208201819052918101829052606081018290526080810182905260a0810182905260c081019190915290565b6040805160808101825260008082526020820181905291810182905260608101919091529056fea26469706673582212201642952c9fd22998f21dbfef8bb7f767ff4e6dd686f6602dd0fb96c5ddf611c364736f6c63430007060033",
  "linkReferences": {},
  "deployedLinkReferences": {}
}